:100000000C947A010C94A2010C94A2010C94A2010C
:100010000C94A2010C94A2010C94A2010C94A201D4
:100020000C94A2010C94A2010C94A2010C94A201C4
:100030000C94A2010C94A2010C94A2010C94A201B4
:100040000C94A2010C94A2010C94A2010C94A201A4
:100050000C94A2010C94A2010C94A2010C94A20194
:100060000C94A2010C94A2010C94A2010C94A20184
:100070000C94A2010C94A2010C94A2010C94A20174
:100080000C94A2010C94A2010C94A2010C94A20164
:100090000C94A2010C94A2010C94A2010C94A20154
:1000A0000C94A2010C94A2010C94A2010C94A40142
:1000B0000C94A2010C94A2010C94A2010C94A20134
:1000C0000C94A2010C94A2010C94A2010C94A20124
:1000D0000C94A2010C94A2010C94A2010C94A20114
:1000E0000C94A2010C94A2010C94A2010C94A20104
:1000F0000C94A2010C94A2010C94A2010C94A201F4
:100100000C94A2010C94A2010C94A2010C94A201E3
:100110000C94A2010C94A2010C94A2010C94A201D3
:100120000C94A2010C94A2010C94A2010C94A201C3
:100130000C94A2010C94A2010C94A2010C94A201B3
:100140000C94A2010C94A2010C94A2010C94A201A3
:100150000C94A2010C94A2010C94A2010C94A20193
:100160000C94A2010C94A2010C94A2010C94A20183
:100170000C94A2010C94A2010C94A2010C94A20173
:100180000C94A2010C94A2010C94A2010C94A20163
:100190000C94A2010C94A2010C94A2010C94A20153
:1001A0000C94A2010C94A2010C94A2010C94A20143
:1001B0000C94A2010C94A2010C94A2010C94A20133
:1001C0000C94A2010C94A2010C94A2010C94A20123
:1001D0000C94A2010C94A2010C94A2010C94A20113
:1001E0000C94A2010C94A2010C94A2010C94A20103
:1001F0000C94A2010C94BE0F0C948710D513E3133A
:10020000EA13F113F8131B141B14FF1306140D1437
:100210001414DC134572726F7220696E206C6F6F5C
:10022000702120457863657074696F6E3A2025757A
:10023000202825733A257529004572726F7220694E
:100240006E207365747570212045786365707469DC
:100250006F6E3A202575202825733A25752900628E
:1002600075665B25755D203D202575005072696EB1
:1002700074696E6720627566666572210043686105
:100280006E202575204F4E004368616E2025752035
:100290004F464600726561645B253032585D3A20F6
:1002A00025303258004E6F20416C61726D005365ED
:1002B0007420496E746572727570743A20257520C9
:1002C0002573004E6F742054696D65205965742143
:1002D0000048616E646C6520496E74657272757059
:1002E00074202573000073389138D538DC38E13834
:1002F000FA380A3911241FBECFEFCDBFDFE2DEBFCF
:1003000012E2A0E0B0E2ECE1FCE702C005900D9241
:10031000A438B107D9F729E2A4E8B2E201C01D92DE
:10032000A136B207E1F711E0CAE7D1E004C0219796
:10033000FE010E948A39C337D107C9F70E94A53749
:100340000C940C3E0C9400001F920F920FB60F926B
:1003500011242F933F934F935F936F937F938F93CA
:100360009F93AF93BF93EF93FF930E94683521E073
:10037000FC01238B8081918160E045960E94FD30D5
:10038000FF91EF91BF91AF919F918F917F916F916D
:100390005F914F913F912F910F900FBE0F901F9043
:1003A0001895CF93DF93CDB7DEB72997CDBFDEBFCA
:1003B00019821A8281E090E08B839C838D839E83D7
:1003C00080E496E08F83988787E0898780E8809330
:1003D000410661E070E0CE0101960E94862789E027
:1003E000FE013196A4E8B2E201900D928A95E1F700
:1003F0001092AF281092B0281092B1281092B22813
:100400001092B32881E08093B4280E9497110E9433
:1004100049120E94371460E485E090E00E94EF11D9
:100420000E9448030E94810D0E941F350E94862B66
:10043000FC018181882321F00E9468350E949F344D
:100440002996CDBFDEBFDF91CF9108950E94683518
:100450000E94F03480918D2281110E94B113F89492
:10046000EFEAF8E280E090E02191211102C00196CC
:10047000FBCF009711F47894089520914800880FDD
:10048000991FFC01E05BFF4D822F817F9081892BBA
:100490008093480080914800816080934800789460
:1004A0008895809148008E7F80934800089510922F
:1004B0008D22089581E080938D22089580918D2270
:1004C000089581E080938D22089510928D220895E1
:1004D000089580E00E949E148823D9F308958091A6
:1004E0008D2208958091A1288F770C94200E9091F1
:1004F0009422911102C080E00895E0919222F0913F
:1005000093220190F081E02D94818917A0F7E09368
:100510009022F0939122228133812E0F3F1FE21708
:10052000F30798F49181943061F49281891309C0A2
:100530009381691306C0E0939022F093912281E0A9
:1005400008959081E90FF11DEACFE0939022F09396
:100550009122D1CFE0919222F09193220190F081EB
:10056000E02D228133812E0F3F1FFC014081E40FDB
:10057000F11DE217F30748F48181843031F08530B2
:1005800039F08081E80FF11DF4CF80E090E008950C
:10059000CF0108951F93CF93DF93182F0E94770206
:1005A000882349F1C0919022D0919122CE010E94DE
:1005B000AA02EC01892B49F04C815D816B818A8113
:1005C0000E94470E8111F2CF16C0E0919222F09165
:1005D000932292818381E92FF82FE10FF11DE10F22
:1005E000F11D0190F081E02D0190F081E02DDF916F
:1005F000CF911F91099480E0DF91CF911F910895D1
:10060000EF92FF921F93CF93DF93C82F60E00E9479
:100610007702811102C010E02FC0E0919222F09188
:10062000932292818381E92FF82FEC0FF11DEC0FBB
:10063000F11DE080F180D7011696ED91FC9117979E
:100640000995682F8C2F0E947702182F882319F3A1
:10065000C0919022D0919122CE010E94AA02EC0179
:10066000892B21F08A810E947E0FF6CFD701129646
:10067000ED91FC9113970995812FDF91CF911F91F7
:10068000FF90EF900895809190229091912208958B
:100690000C94A60DCF938091942281110AC01092E0
:1006A000942281E090E08093972290939822CF91BA
:1006B0000895C0E0E0919222F09193220190F081A0
:1006C000E02D8481C81758F78C2F0E940003CF5F5C
:1006D000F1CF0E94670D0C944A03CF93809194222E
:1006E0008823F1F0C0E0E0919222F0919322A08162
:1006F000B18114968C91C81798F492818381E92F67
:10070000F82FEC0FF11DEC0FF11D0190F081E02DA1
:100710000084F185E02D309709F00995CF5FE3CF94
:10072000CF910895EF92FF920F931F93CF93DF9392
:100730001F92CDB7DEB71092A9281092AA28109266
:10074000AB281092AC281092AD281092AE28809160
:100750009F2887FF07C02091A5283091A628232B2A
:1007600009F451C2982F907609F0D9C187FF02C1D0
:100770002091A5283091A6282115310509F4CFC173
:100780008F7109F0A2C08091A028863071F0883066
:1007900009F490C08111C3C12230310509F0BFC1F5
:1007A00062E070E087E992E28DC08091A12890918B
:1007B000A228292F332722303105A1F064F42130FB
:1007C000310509F0ACC180915E2090915F20DC0181
:1007D0006C9170E05CC02330310591F12F30310510
:1007E00011F19DC1E0915E20F0915F202189821777
:1007F00008F095C19927880F991F880F991FE091DC
:100800006020F0916120E80FF91F80819181FC0147
:10081000628173810E94400EE091A728F091A82880
:1008200082E0818336C0809162209091632000979E
:1008300009F475C1DC0112966D917C91139727C064
:1008400099278130910569F038F0029709F067C166
:100850006FE080E290E208C064E070E08AE390E23A
:1008600016C069E080E390E2282FA2E0B0E2FC012C
:10087000819190E08D939D938E2F821B8617C0F3FC
:10088000660F6E5F6093002070E080E090E20E944F
:10089000400E8091A5289091A6282091A9283091FA
:1008A000AA288217930708F0ACC18093A9289093D7
:1008B000AA28A7C12130310509F031C161E070E0FB
:1008C00084E992E20E94400E9CC18130D1F5809172
:1008D000A0288A3009F023C12130310509F01FC159
:1008E00080919422882309F41AC1E090A328F09003
:1008F000A4280091922210919322D801ED91FC91AD
:100900008481E81608F00BC160E08E2D0E9477020A
:10091000882309F404C1FF24EE0CFF1CF801828136
:1009200093818E0D9F1DDC01ED91FC910680F78176
:10093000E02D09958093962261E070E086E992E2CD
:10094000C1CF823009F0EBC08091A0288111E7C0AF
:100950002230310509F0E3C08091A3280E94A20E45
:1009600090E080938E2290938F2262E070E08EE878
:1009700092E2A8CF8F7109F080C08091A0288330C7
:1009800009F4CDC018F48130A1F0C9C0853019F048
:10099000893039F1C4C08091A5289091A628892B6F
:1009A00009F0BDC082E792E08093AB289093AC2819
:1009B00028C18091A5289091A628892B09F0AFC065
:1009C0008091A1289091A228019709F0A8C0809158
:1009D0009722909198228D7F8093972290939822CE
:1009E00010C18091A5289091A628892B09F097C065
:1009F0000E94230E882309F492C02091A1283091EF
:100A0000A2283327E0915E20F0915F20818990E059
:100A10008217930708F483C00E944A038091A1289B
:100A20009091A22880939422882309F4EAC0992700
:100A30008150904C880F991F880F991F209160203A
:100A400030916120820F931F809392229093932282
:100A500010E0E0919222F09193220190F081E02D3C
:100A60008481181708F0CDC060E0812F0E94CA026F
:100A7000882309F454C01F5FECCF813001F58091C9
:100A8000A0288B3009F04BC08091A5289091A62812
:100A9000892B09F044C080919422882309F43FC037
:100AA0001091A3286091A128812F69830E940003DF
:100AB00069818823A1F1812F0E94CA022EC0823051
:100AC00071F58091A028813019F0833091F027C012
:100AD0008091A5289091A628892B09F58091A128BD
:100AE0009091A228892BD9F48091A3280E94AA0E64
:100AF00014C08091A5289091A628892B81F480911B
:100B0000A1289091A228892B51F48091A3280E94BA
:100B10004B0F8091A3280E94890F811172C0809190
:100B20009F288F718130C9F5809194228823A9F183
:100B3000E090A328F090A428009192221091932293
:100B4000D801ED91FC918481E81638F560E08E2D96
:100B50000E947702882309F1F701FF27EE0FFF1F9C
:100B6000D80112968D919C911397E80FF91F00817F
:100B70001181D8011696ED91FC9117970995682F70
:100B80008E2D0E947702882341F0D8011496ED91B2
:100B9000FC9115970995811134C080919F288F7120
:100BA000823089F580919422882369F1F12CE091BB
:100BB0009222F0919322A081B18114968C91F81623
:100BC00010F592818381E92FF82FEF0DF11DEF0DC4
:100BD000F11D00811181D8011696ED91FC911797B6
:100BE0000995682F8F2D0E947702882361F0D80124
:100BF0001496ED91FC9115970995811102C0F3941B
:100C0000D6CF81E001C080E00F90DF91CF911F919E
:100C10000F91FF90EF900895CF93DF931F92CDB780
:100C2000DEB78FB78983F89489810F90DF91CF91D8
:100C300008958091B02381508093B023089580E07F
:100C4000089580E0089560EC73E280E00C945914FC
:100C50008091AF2381508093AF238091AF230E9476
:100C600065021092AE2308951092B0231092BC2317
:100C70001092BD2381EA8093B22380E28093B32354
:100C80001092B4231092B5231092B6231092B7237A
:100C900082E090E08093B8239093B9231092BA2316
:100CA0001092BB2380E092ECA1E0B0E08093C023DF
:100CB0009093C123A093C223B093C3231092C42363
:100CC0001092C52388E08093C62360EC73E280E035
:100CD0000E94591480E00E946102882329F09091BB
:100CE000B0239F5F9093B0230895FF920F931F93BB
:100CF000CF93DF9380919D2281118DC00E941E0EA3
:100D0000C0919E22D0919F228823B1F00E942B0E89
:100D1000C817D90709F47FC00E940C06D82FC091CC
:100D2000A022EC2FF0E0EE0FFF1FEF55FD4D80816C
:100D30009181892B31F503C00E94260EE9CF2091C5
:100D40009A2230919B222F5F3F4F20939A2230931B
:100D50009B220E941E0E811109C080919A229091BF
:100D60009B228436910510F4DFBF55C00E941E0EF1
:100D7000882339F080919A2290919B22803293406F
:100D800098F310929A2210929B2280919C228111BA
:100D900006C081E0C11180E08093A02204C081E000
:100DA000C11180E0C82F81E080939D22DFBFD0E099
:100DB0008E01000F111FF801EF55FD4DFF24F39434
:100DC000808191818034910531F4F12C10929E2222
:100DD00010929F220DC00E941E0E882319F00E94BF
:100DE0002B0E02C00E94260E80939E2290939F227B
:100DF000F801EF55FD4D20813181AE0186E0440FB1
:100E0000551F8A95E1F74A555D4D0EE617E06F2DA7
:100E100081E80E94C90EDF91CF911F910F91FF9041
:100E200008950C9475060F931F939091BE23911112
:100E30001EC04091BC235091BD232091BA23309114
:100E4000BB234217530799F02091BC233091BD2357
:100E50002093BA233093BB230AE317E02AE030E063
:100E600042EB53E260E00E94C90E8093BE231F91C3
:100E70000F910895842F1092BE232091BC233091AE
:100E8000BD2323782093BC233093BD23E2EBF3E210
:100E9000208531852378208731870C9413071F9391
:100EA000CF93DF93182FEB010E940C066091BC23B7
:100EB0007091BD23112319F0C62BD72B04C0C09508
:100EC000D095C623D723C093BC23D093BD238FBF17
:100ED00082E8DF91CF911F910C941307892BD1F4F5
:100EE0002091A02281E090E0222311F080E090E0A8
:100EF000880F991FFC01EF55FD4D10821182109251
:100F00009C2210929D22672B19F080E00E9472149F
:100F10000C947506089590919F28892F807697FFED
:100F20000EC08032A1F58091A028813281F5809198
:100F3000A5289091A6288730910549F51CC08032DC
:100F400031F58091A028803249F0823201F560911C
:100F5000A128617080E00E94680217C08091A528D6
:100F60009091A6288730910591F423E236E02093F2
:100F7000AB283093AC2820EC33E22093A7283093A1
:100F8000A8288093A9289093AA2881E0089580E05A
:100F9000089561E070E00C944F0762E070E00C94FB
:100FA0004F0760E170E081E00C944F0760E270E071
:100FB00081E00C944F0760E470E081E00C944F07EF
:100FC000862F61E070E00C944F07862F62E070E09E
:100FD0000C944F0760E170E081E00C944F0760E2F1
:100FE00070E081E00C944F0760E470E081E00C94C5
:100FF0004F070E940C062091272330912823E0916F
:101000002923F0E0EE0FFF1FE65DFC4D408151818A
:101010008FBFCA01821B930B089580E00C94F907DF
:101020000E94F90721E0892B09F420E0822F08951E
:101030000F931F93CF93DF930E940C0620912923D7
:1010400090912623911110C060912723709128233D
:10105000C22FD0E0FE01EE0FFF1FE65DFC4D408188
:1010600051816417750718F48FBF80E026C0109275
:1010700027231092282391E0211190E090932923B7
:1010800091E0909326238FBF80E00E941008882370
:1010900021F080E090E00E946902AE0186E0440FFA
:1010A000551F8A95E1F7425D5C4D08E918E020E4A0
:1010B00030E061E082E00E94C90EDF91CF911F9184
:1010C0000F9108951092AF2310929D2210929C22AE
:1010D0001092A0221092A1221092A2221092A3227A
:1010E0001092A42210929E2210929F220E947506B6
:1010F000109226231092292310922A2310922B2338
:1011000010922C2310922D23109227231092282323
:101110000E941808882359F09091AF239F5F909305
:10112000AF239091AF23913011F49093AE230895A3
:101130000F931F93892B39F58091292321E0811189
:1011400020E030E06115710589F4842F96E0220FCC
:10115000331F9A95E1F7A901425D5C4D08E918E05B
:1011600020E430E061E00E94C90E0DC0220F331F61
:10117000F901E65DFC4D60837183109226231F9177
:101180000F910C9418081F910F91089580E00C9412
:1011900010081F93CF93DF9311E08091C62389300D
:1011A00009F010E0C0E0D0E00E940C064091272337
:1011B000509128232091292330E0F901EE0FFF1FE1
:1011C000E65DFC4D608171818FBF4617570730F097
:1011D0008091AE238111E8CF90E01BC0F90196E029
:1011E000EE0FFF1F9A95E1F7E40FF51FE25DFC4D4E
:1011F0008081C82B4F5F5F4F409327235093282354
:101200000E941808112321F0DC2FCC2710E0CCCF4E
:10121000CE01DF91CF911F91089580E00C94C90811
:10122000EF92FF920F931F93CF93DF938B01EA010D
:101230000E940C0660912723709128232091292376
:1012400030E0F901EE0FFF1FE65DFC4D408151815A
:101250008FBF6417750730F08091AE238111E8CFFE
:10126000CE012CC080819181861B970B7E018C174B
:101270009D0708F47C0186E0220F331F8A95E1F771
:10128000260F371FB901625D7C4DA701C8010E947E
:10129000F43A80912723909128238E0D9F1D8093EF
:1012A0002723909328230E0D1F1DCE19DF090E94BE
:1012B0001808209709F0BCCF80E090E0DF91CF9133
:1012C0001F910F91FF90EF900895CF92DF92EF92D0
:1012D000FF920F931F93CF93DF932091AE2322238E
:1012E000D9F16B01EC010E940C06609127237091EB
:1012F000282390912923292F30E0F901EE0FFF1FB9
:10130000E65DFC4D00811181061B170B8FBF780134
:10131000C016D10608F47601E114F10401F186E06B
:10132000220F331F8A95E1F7620F731F625D7C4DB8
:10133000A701CE010E94F43A0E940C0620912723B7
:1013400030912823E20EF31EE0922723F092282307
:101350008FBF0E94180803C080E090E001C0C80160
:10136000DF91CF911F910F91FF90EF90DF90CF9081
:101370000895AB01BC0180E00C9410090E940C069A
:101380004091A022E42FF0E0EE0FFF1FEF55FD4D3E
:10139000208131812034310589F490919D22911171
:1013A0000DC090919C22911109C091E090939C22D4
:1013B000411190E09093A02220E030E08FBF80E4C4
:1013C00090E0821B930B089580E00C94BE090E946C
:1013D000BE0921E0892B09F420E0822F089580E0E6
:1013E0000C94E7091F93CF93DF93162FD72FC1E0FB
:1013F0008091C623893009F0C0E080E00E94E709AF
:10140000811107C08091AE238111F7CF80E090E079
:1014100026C00E940C06E091A022F0E0DF01AA0F96
:10142000BB1FAF55BD4D2D913C911197A9014F5F49
:101430005F4F4D935C9346E0EE0FFF1F4A95E1F737
:101440002E0F3F1FF901EA55FD4D10838FBFCC23AE
:1014500021F01D2FDD0FDD0BCFCF81E090E0DF917C
:10146000CF911F910895BC0180E00C94F2097F9206
:101470008F929F92AF92BF92CF92DF92EF92FF92A4
:101480000F931F93CF93DF936B01EA018091C623E3
:10149000893011F4CC0FDD1F20E4A22EB12C80E0A6
:1014A0000E94E709811106C08091AE238111F7CF18
:1014B000CE0133C00E940C06782E2091A02230E08D
:1014C0004901880C991CF401EF55FD4DE080F18035
:1014D000C5018E199F098E018C179D0708F48C0198
:1014E00086E0220F331F8A95E1F7C701820F931F11
:1014F000A801B6018A559D4D0E94F43AF401EF55BA
:10150000FD4DE00EF11EE082F1827FBEC00ED11EC5
:10151000C01BD10B21F680E090E0DF91CF911F91AD
:101520000F91FF90EF90DF90CF90BF90AF909F9082
:101530008F907F900895AB01BC0180E00C94370A36
:10154000CF93DF931F92CDB7DEB78FB78983F8941F
:1015500089810F90DF91CF910895CF93DF93EC01B4
:10156000C155D74D88818F3F09F4FFCF0E94A00A53
:1015700098819F5F98838FBFDF91CF910895CF931C
:10158000DF93EC01C155D74D8881811101C0FFCF98
:101590000E94A00A9881915098838FBFDF91CF91CC
:1015A0000895CF93C82F8091F224C11107C08823DA
:1015B00059F081E090E00E94BF0A06C0811104C08A
:1015C00081E090E00E94AD0AC093F224CF9108958B
:1015D000282F2F70082E000C990B392F331F33271B
:1015E000331F832F90E0820F911D820F911D23E006
:1015F000880F991F2A95E1F780549B4D08950F930A
:10160000E8ECF4E080818F7D808380818F7D808312
:10161000E8ECF4E202E005931092CA241092CB2485
:1016200000E2069300E40693E0ECF4E200E40693A3
:10163000EFE9F8E214861586168617861286138659
:101640001092B1241092B2240F9108950F9385E067
:1016500090E08093B1249093B224E9ECF4E204E0AA
:101660000593E1ECF4E204E005930F9108950F93E4
:1016700083E090E08093B1249093B2241092CA2426
:101680001092CB24E8ECF4E202E006930F91089567
:10169000E091AB28F091AC28309709F009940895B7
:1016A000282F2F70082E000C990B392F331F33274A
:1016B000331F832F90E0820F911D820F911D02979F
:1016C00049E0489F9001499F300D1124C901875B73
:1016D0009B4D08958F929F92AF92BF92DF92EF92AF
:1016E000FF920F931F93CF93DF93D82E0E94500B3E
:1016F000EC018D2D0E94E80A7C01DC011196EC9131
:10170000E770E150E73040F4F0E0EE0FFF1FEC53DC
:10171000FF4D0081118102C008E010E0ED81FE81E3
:101720002B813C814881D701D7FE4AC016968D9106
:101730009C9117978E0F9F1F8D839E83821793070F
:1017400071F1281B390B2115B4E03B0740F02FEF56
:1017500033E0C901B8010E944039281B390B41FF11
:101760000BC0C901B8010E944039AC0191E0452B82
:1017700009F090E0892F01C080E0988180FB91F909
:101780009883F701168217822283338329813A8155
:101790008D819E81820F931F848395830EC041FFAC
:1017A00074C04D7F4883D70116961D921C921797DF
:1017B00012961D921C921397F70102E006937FC0C8
:1017C0001296AD90BC90139742FF12C089809A8008
:1017D000C901B8010E944039B0E4DB9EB001112478
:1017E00067577C4DAC01C4018E0F9F1F0E94F43AD5
:1017F0008D819E818A0D9B1D8D839E832B813C81D3
:101800002817390710F42D833E83F70186819781CD
:10181000A816B906D1F58D819E8182179307A9F18B
:10182000281B390B2115F4E03F0710F02FEF33E0B0
:10183000C901B8010E944039281B390BD701129603
:101840001D921C9213972017310778F488818460C9
:101850008883B0E4DB9EC001112487579C4DF701BB
:101860008483958306831783A7CF49815A818D810D
:101870009E81840F951FD70114968D939C93159785
:1018800016962D933C93179797CF888180FF17C0AA
:101890008E7F8883EF81F885309789F06D817E8116
:1018A0004D2D80E090E0DF91CF911F910F91FF903F
:1018B000EF90DF90BF90AF909F908F900994DF9151
:1018C000CF911F910F91FF90EF90DF90BF90AF905D
:1018D0009F908F9008950F93CF93DF938091B124C1
:1018E0009091B224039739F40E94480BDF91CF9175
:1018F0000F910C94FF0A2091AD243091AE24C09139
:10190000A928D091AA28C21BD30B79F58091AF24C6
:101910009091B024820F931F8093AF249093B024B2
:101920002091A5283091A6282817390721F0809109
:10193000C823882349F084E090E08093B1249093F9
:10194000B224E0ECF4E236C0E091AD28F091AE288C
:10195000309799F00995882381F01092AD24109268
:10196000AE24C091A928D091AA28C034D10528F06E
:101970001092C823C0E4D0E003C081E08093C82364
:10198000C093CA24D093CB248091AD249091AE24EF
:101990002091A7283091A828280F391F2093CC2404
:1019A0003093CD24C80FD91FC093AD24D093AE245B
:1019B000E8ECF4E202E00693DF91CF910F910895F5
:1019C0000F93CF93DF931F92CDB7DEB78091CC04F6
:1019D00080FF75C021E02093CC0480EC94E2FC01F0
:1019E00000E80693E8ECF4E200E806932093CA04CA
:1019F000FC0100E106938091B1249091B2240097FC
:101A000039F00397029710F40E94480B0E94FF0AD6
:101A10008091C2249091C324089709F052C088E0B5
:101A2000EDE6F4E2AFE9B8E201900D928A95E1F7B4
:101A30008091C80480628093C8048091C804806249
:101A40008093C8040E949203811103C00E94260B58
:101A500038C090919F2897FF12C01092AF24109227
:101A6000B0241092AD241092AE2422E030E02093F6
:101A7000B1243093B22489830E946B0C09C0209159
:101A8000A5283091A628232B29F489830E94370B9F
:101A9000898118C01092AF241092B0241092AD2406
:101AA0001092AE2421E030E02093B1243093B22490
:101AB000E0ECF4E202E0069300E2069303C080E06B
:101AC00001C081E00F90DF91CF910F910895CF93E6
:101AD0000E94A00AC82FE1ECF4E090819E7F9083E1
:101AE0001092C00410820E943F1280E00E94D10A2E
:101AF00085E090E00E94BF0ACFBFCF91089580E0BB
:101B00000895CF930E94A00AC82F81E00E94D10AB5
:101B1000EAECF4E080E4808380E28083E1ECF4E0AE
:101B2000908191609083A9ECB4E09C9192609C9329
:101B3000E8ECF4E09081906490839C9191609C9398
:101B4000908190689083CFBFCF910895CF931092EA
:101B5000600080E30E941B128091C0048064809327
:101B6000C00481E0809360000E94A00AC82F1092F8
:101B7000C1241092C9241092D1241092D924109219
:101B8000E1241092E924909149249E7F9093492466
:101B9000909152249E7F9093522490915B249E7F3B
:101BA00090935B24909164249E7F909364246AE1D7
:101BB00070E082E00E9481388F3F09F48FE18093CA
:101BC000FA046BE170E082E00E9481388F3F09F4F3
:101BD0008FE18093FB049091C00492609093C004C5
:101BE0009091C00490689093C0049091C00490615B
:101BF0009093C00480EC94E28093C6049093C70451
:101C00009091C00490629093C0048FEF8093C504BC
:101C10009091C80491609093C8041092F22485E0DA
:101C200090E00E94AD0A0E94810DCFBFCF91089530
:101C3000E1ECF4E080818E7F8083089580E0089558
:101C40008093C30408958091C30408958091F02483
:101C50009091F124089580E090E008958091F2241D
:101C600081110DC081E00E94D10A8091C1048B7F57
:101C70008093C1048091C10484608093C10408955D
:101C8000EFE9F8E2808791876287738708950F9361
:101C90001F93CF93DF931F92CDB7DEB78A0169837D
:101CA0000E94E80AFC018181807C6981811141C028
:101CB0006370613019F020F090E803C090EC01C02F
:101CC00090E400381105E9F058F400321105A9F04C
:101CD00000341105A1F000311105C9F481E018C0EC
:101CE000011582E0180779F00F3F83E0180769F0CB
:101CF0000115114061F485E00BC082E009C083E06A
:101D000007C084E005C086E003C087E001C080E032
:101D1000118226E02083892B81838181807C803C15
:101D200021F481818770873031F0818180628183E5
:101D300002C080E001C081E00F90DF91CF911F9140
:101D40000F9108950E94E80AFC01818182FB882797
:101D500080F908950F93CF93C82F0E94E80AFC01E1
:101D600001E00693818182FF10C091819B7F918366
:101D70008C2F0E94500BFC01908190FF06C09E7F2B
:101D800090830780F085E02D099581E0CF910F9138
:101D900008958F929F92AF92BF92CF92DF92EF926F
:101DA000FF920F931F93CF93DF93B82EA62E4A0175
:101DB00079010E94500BEC018B2D0E94E80A6C0106
:101DC000DC0111968C911197807C09F456C0119614
:101DD0008C911197807C803C21F011968C9182FD32
:101DE0004CC00E94A00A988190FF02C08FBF45C0DE
:101DF000916098838FBF89829A82EB82FC821D82D8
:101E00001E820F83188791E0A11004C0E114F10431
:101E100009F090E0888190FB81F98B7F8883B7FE81
:101E200002C0F60123C0D60111968C911197807CD7
:101E3000803CC9F41196EC91E770E150E73040F432
:101E4000F0E0EE0FFF1FEC53FF4D6081718102C087
:101E500068E070E0C7010E944039892B21F0888139
:101E60008E7F88830AC0F60112821382168217823F
:101E70008B2D0E946A0B81E001C080E0DF91CF9141
:101E80001F910F91FF90EF90DF90CF90BF90AF9098
:101E90009F908F900895EF92FF920F93CF93C82F4A
:101EA0000E94E80A7C018C2F0E94500BDC01F70194
:101EB00002E005939C9190FF1CC09E7F9C93179617
:101EC000ED91FC9118973097A1F0D701C7FF05C09D
:101ED00016966D917C91179704C012966D917C9126
:101EE00013974C2F81E090E0CF910F91FF90EF90EE
:101EF0000994CF910F91FF90EF900895CF93C82F41
:101F00000E944B0F8C2F0E94E80AFC011182CF9196
:101F10000895CF93C82F0E94E80AFC019181946034
:101F200091838C2F0E944B0F81E0CF910895EF9207
:101F3000FF921F93CF93DF93182FEB010E94E80AC3
:101F40007C01812F0E94500BDC01F701818182FF0F
:101F50000AC09C9190FD0BC091609C931796CD9305
:101F6000DC93189702C0FE01099581E001C080E072
:101F7000DF91CF911F91FF90EF9008951F920F92E4
:101F80000FB60F9211240F932F933F934F935F93AC
:101F90006F937F938F939F93AF93BF93EF93FF9331
:101FA0008091CB0487FF08C080E88093CA040E9418
:101FB0006D030E945E0299C08091CB0482FF1DC018
:101FC00084E08093CA048091C82486FF8EC08091EB
:101FD000CC0481FD8AC00E94E00C811186C08091F2
:101FE000B1249091B2248130910519F40E94370BED
:101FF0007CC0049709F079C028C08091CB0481FF90
:102000002DC082E08093CA048091C02486FF6DC0F9
:102010008091CC0481FD69C00E94E00C811165C0F3
:102020008091B1249091B2248230910559F484E0DA
:1020300090E08093B1249093B224E0ECF4E202E0CB
:10204000069353C0039709F050C0E9ECF4E204E0B2
:102050000593E1ECF4E204E0059347C08091CB04E2
:1020600084FF2AC080E18093CA0481E00E944B0F64
:1020700081E80E944B0F82E00E944B0F82E80E9491
:102080004B0F0E944A031092C3041092C12496E0A1
:102090009093C02483E48093C1241092C924909328
:1020A000C8248093C9248DE694E28093C42490933D
:1020B000C5240E94FF0A19C08091CB0486FF09C085
:1020C00080E48093CA0480E00E94D10A0E945702F3
:1020D0000CC08091CB0485FF08C080E28093CA04C5
:1020E00081E00E94D10A0E945A02FF91EF91BF91B4
:1020F000AF919F918F917F916F915F914F913F91A0
:102100002F910F910F900FBE0F901F9018951F9257
:102110000F920FB60F9211240F931F932F933F939B
:102120004F935F936F937F938F939F93AF93BF93DF
:10213000CF93DF93EF93FF938091CC0481FF1AC07C
:1021400082E08093CC048091C5048195880FE0ECF7
:10215000F4E2E81BF10920813181205C344283E004
:10216000369527958A95E1F7822F869520FD07C041
:10217000C0E006C00E94E00C882311F392C0C0E8C2
:10218000C80F8C2F0E94E80AFC01208125FF89C01E
:1021900000E20693C1117DC08091B1249091B224D8
:1021A000049729F40E94480B0E94FF0A7AC000910C
:1021B000C2241091C3248091A9289091AA28C0918B
:1021C000AD24D091AE249E01200F311F82179307BA
:1021D00018F48C010C1B1D0B8091A7289091A82846
:1021E000A8016DE674E28C0F9D1F0E94F43AC00FA7
:1021F000D11FC093AD24D093AE240034110569F4EF
:102200008091AF249091B0248C0F9D1F2091A52820
:102210003091A6288217930798F0C093A928D093ED
:10222000AA28E091AD28F091AE28309731F00995B9
:10223000811103C00E94260B34C00E94370B31C0AD
:102240008091A9289091AA288C179D07D9F4E09134
:10225000AD28F091AE28309769F30995882351F3A2
:102260002091AF243091B0248091AD249091AE2480
:10227000820F931F8093AF249093B0241092AD24CB
:102280001092AE24E0ECF4E202E0069300E2069342
:1022900008C0C03819F40E946B0C03C08C2F0E9438
:1022A0006A0BFF91EF91DF91CF91BF91AF919F9119
:1022B0008F917F916F915F914F913F912F911F91DE
:1022C0000F910F900FBE0F901F901895982F9F7031
:1022D00019F081E0933008F080E00895CF93DF9308
:1022E0001F92CDB7DEB78FB78983F89489810F909D
:1022F000DF91CF9108950E946E11A0E5B0E016968F
:102300009C911697997F16969C931697E0E6F0E0BD
:1023100090E895839BEB968316969C911697946014
:1023200016969C939081916090838FBF0895CF9370
:10233000DF9300D000D0CDB7DEB78FEF8093700071
:102340008093710080937200809373008093740077
:1023500080937500809376006CE081E490E00E94A9
:102360008B386CE170E082E00E9481388C836DE1F3
:1023700070E082E00E9481388B838B819C81019682
:1023800021F480E493E28B839C838B819C818983FD
:102390009A83809362008A81809363000E946E1109
:1023A000909150009260909350008FBF80915100A7
:1023B00081FFFCCF0E947B1161E080E490E00E94ED
:1023C0008B380E946E11909150009E7F9093500028
:1023D0008FBF2496CDBFDEBFDF91CF9108950F93BD
:1023E0001F93CF93DF931F92CDB7DEB78C01698324
:1023F0000E946E11F801E059FF4F6981609590814C
:10240000692360838FBF0F90DF91CF911F910F9150
:1024100008951F93CF93DF93EC01162F0E946E1146
:10242000FE01E059FF4F6081162B10838FBFDF91B3
:10243000CF911F910895CF93863011F0C0E001C075
:10244000C8E18091510081FD0EC00E946E119091F3
:1024500050009260909350008FBF8091510081FF97
:10246000FCCF0E947B116C2F636084E490E00E949B
:102470008B3860E480E090E0CF910C94EF1160E441
:1024800080E090E00E94091260E084E490E00C9407
:102490008B3808952091032530910425A901480F18
:1024A000511DCA012091012530910225240F351FAD
:1024B000492F5527BA01680F711D6093032570934A
:1024C0000425832F9927820F911D809301259093D6
:1024D00002250895CF93C82F0E941E142091F7243F
:1024E0003091F8242C0F311D4091F5245091F624A1
:1024F000420F531F832F9927820F911D8093F7243A
:102500009093F824852F9927840F911D8093F524AB
:102510009093F624CA3A51F48091F4248150809328
:10252000F424811106C085E50E941E1482E0809388
:10253000F424CF910895109200251092FF2408955D
:10254000CF9390910025923061F4109200258A3A41
:1025500011F481E085C0853509F491C01092FF2403
:102560008EC08A3A21F49F5F9093002502C010929A
:1025700000259091FF24933061F128F4913059F0B7
:102580009230D9F07CC0953009F43EC0B8F1963055
:1025900009F469C074C08093FB241092FC242FEFCF
:1025A00030E02093032530930425209301253093B8
:1025B00002250E944A1282E053C0C82FCF70C093F8
:1025C000FA248093F9240E944A12CC23A9F083E0D4
:1025D00047C0E091FC2491E09E0F9093FC24F0E032
:1025E000EB5FFA4D80830E944A128091FA24815059
:1025F0008093FA24811143C084E032C01092FD24FC
:102600008093FE2485E02CC06091FD247091FE240F
:102610009B01282BC9018093FD249093FE24609197
:10262000032570910425272F30E0260F311D2093BC
:102630000325309304256091012570910225472FD1
:1026400050E0460F511D4093012550930225542F11
:102650004427242B352B8217930709F07FCF86E080
:102660008093FF240CC0853509F078CF4091FB247E
:102670006091F92485E095E20E94C7136FCFCF9156
:102680000895BF92CF92DF92EF92FF920F931F9324
:10269000CF93DF93E82EB62EC72EF42EF8940E9427
:1026A0003514813208F451C08F2D8F70D82E82E0FE
:1026B0008093F4242FEF30E02093F7243093F82414
:1026C0002093F5243093F6248AEA0E941E148AEAA5
:1026D0000E941E148AEA0E941E148E2D0E946A1205
:1026E0008F2D0E946A12EB2CFC2CDD2039F0F701B3
:1026F00081917F010E946A12DA94F7CF8091F724CA
:102700009091F824C92FF0E0DF2FC80FD11DC0939E
:10271000F724D093F8248091F5249091F624092F82
:1027200010E0080F111D0093F5241093F624102FCC
:102730000027C02BD12B8D2F0E946A128C2F0E9454
:102740006A1285E50E941E147894DF91CF911F9143
:102750000F91FF90EF90DF90CF90BF9008958F7012
:102760000895CF93DF931F92CDB7DEB70E940E1569
:10277000882349F061E0CE0101960E94D914898135
:102780000E94A012F3CF0F90DF91CF9108950F9385
:102790001F93042F10E0F8013297EC30F10508F098
:1027A0004AC0E250FF4F0C948A39462FBC0182E0A8
:1027B0001F910F910C94E018462FBC018DE01F91E2
:1027C0000F910C946A18462FBC0183E01F910F9162
:1027D0000C94E418462FBC0184E01F910F910C94D7
:1027E000F818462FBC0185E01F910F910C94181921
:1027F000462FBC0186E01F910F910C94E218462FE2
:10280000BC0189E01F910F910C948F19462FBC01D8
:102810008AE01F910F910C94A019462FBC018BE008
:102820001F910F910C94A419462FBC018CE01F91AD
:102830000F910C9476191F910F910895CF93DF9308
:102840001F92CDB7DEB789830E946F02882349F0BB
:1028500061E0CE0101960E94AD140E940515882307
:10286000E1F30F90DF91CF9108950C94051560E08E
:1028700070E080E00E9459140C949B12FC01858149
:102880009281891781F08F5F8583A081B1818381D7
:1028900091E0980F9383A80FB11D6C93938182816F
:1028A000981301C0138285819681981708F4868356
:1028B0000895E9E8F5E21582148213828CE395E22B
:1028C0008083918386E482831682E2E8F5E21582B2
:1028D0001482138284E195E28083918388E282836B
:1028E00016820895CF9380918E25882321F18150FF
:1028F00080938E25E0918925F0918A2580918D2500
:1029000091E0980F90938D25E80FF11DC081809183
:102910008B25981302C010928D250E94EF0981111A
:1029200004C00E94DB078EEF07C08C2F90E00E944E
:10293000330A80E001C08FEFCF9108950E94C6084E
:10294000882349F00E940D09682F82E895E20E94D1
:102950003E1480E008958FEF0895EF92FF921F9349
:10296000CF93DF93C62FD0E0CC23E1F01FB7F894CC
:1029700030918E2520918B25321789F0C1507C0132
:102980002FEFE21AF20AFC01608189E895E20E94C9
:102990003E1480E00E947214DF5FC70101C0C0E0F6
:1029A0001FBFE2CF8D2FDF91CF911F91FF90EF904E
:1029B0000895FC0180E0662339F13FB7F8949091C7
:1029C00087259923F1F0AF014F5F5F4F91509093AE
:1029D0008725A0918225B09183252091862591E0BD
:1029E000920F90938625A20FB11D2C917091842592
:1029F000971302C010928625615020838F5FFA01E1
:102A000001C060E03FBFD7CF08952FB7F894E9E841
:102A1000F5E2828195812FBF891B08959FB7F894B5
:102A2000809187259FBF08958091CF0187FDFCCFBE
:102A30000895CF93DF9300D0CDB7DEB76A83898343
:102A40000E941415898120E2829FC00111246A81AD
:102A50006F71862BE0ECF1E080839183128286E037
:102A60008287EF93FF930F932F93EBECF1E008ED48
:102A700021E004BF20832F910F91FF91EF9184817A
:102A80000F900F90DF91CF910895CF92DF92FF9238
:102A90000F931F93CF93DF931F92CDB7DEB7F62E20
:102AA0008C016A018C2D841B8F1598F46C2D6F712D
:102AB000C60125E0969587952A95E1F749830E94FE
:102AC0001915F80181938F01FFEFCF1ADF0A4981B1
:102AD000E9CF0F90DF91CF911F910F91FF90DF9081
:102AE000CF9008950E941415F8948091CF0181FF32
:102AF00011C086E38093CA01EF93FF930F932F9346
:102B0000EBECF1E008ED21E004BF20832F910F9161
:102B1000FF91EF9178940895CF93DF9300D01F92A7
:102B2000CDB7DEB74B836A8389830E947215E0ECD0
:102B3000F1E093E39287898120E2829FC001112412
:102B40006A816F71862B8083918312824B814483CB
:102B500085E38287EF93FF930F932F93EBECF1E0E4
:102B600008ED21E004BF20832F910F91FF91EF9199
:102B70002396CDBFDEBFDF91CF910895CF93DF9332
:102B800000D0CDB7DEB76A8389830E941415E0ECCC
:102B9000F1E093E39287F894898180831182128215
:102BA0006A81648378940F900F90DF91CF9108959C
:102BB000CF93DF93EC010E94141583E38093CA0145
:102BC0001092C1011092C20190E09093C0018991CE
:102BD0008093C4019F5F9032C1F7DF91CF91089538
:102BE000CF93DF931F92CDB7DEB789830E94141570
:102BF000F894898120E2829FC0011124E0ECF1E089
:102C000080839183128285E38287EF93FF930F93F2
:102C10002F93EBECF1E008ED21E004BF20832F912E
:102C20000F91FF91EF9178940F90DF91CF910895DC
:102C3000CF92DF92EF92FF920F931F93CF93DF9388
:102C400000D0CDB7DEB7F62E242F2F71D22E25E07F
:102C5000569547952A95E1F7C42E89839A830E9459
:102C600072158981E82E082F9A81192F802F8E19CD
:102C70008F1590F4F80161918F018D2D0E94BE1582
:102C8000D394F0E2DF12F2CF8C2D0E94F015C394A2
:102C90000E947215D12CEACF8C2D0F900F90DF91EE
:102CA000CF911F910F91FF90EF90DF90CF900C94F8
:102CB000F015CF93DF931F92CDB7DEB789830E94C3
:102CC0001415898120E2829FC0011124E0ECF1E01B
:102CD00080839183128282E38287EF93FF930F9325
:102CE0002F93EBECF1E008ED21E004BF20832F915E
:102CF0000F91FF91EF910F90DF91CF910895CF93B6
:102D0000DF931F92CDB7DEB789830E9414158981A6
:102D100020E2829FC0011124E0ECF1E080839183E6
:102D2000128284E38287EF93FF930F932F93EBEC50
:102D3000F1E008ED21E004BF20832F910F91FF9176
:102D4000EF910F90DF91CF9108950E941415F894A0
:102D50008091CF0181FF08C086E38093CA0188ED8E
:102D600084BF81E08093CB010E94141583E380939C
:102D7000CA011092C1011092C20180E09FEF8093BE
:102D8000C0019093C4018F5F8032C9F780E38093C4
:102D9000CA0188ED84BF81E08093CB018091CF018F
:102DA00087FDFCCF789408958A01C5EBD8E28A8329
:102DB0009B838BEB98E20E94FD3A0C831D838881F4
:102DC000998161E070E00E94D43AFC01EB57FF4F1B
:102DD000408151814F5F5F4FFC01628105960C94E9
:102DE0004515FC01EB57FF4F4081518161E0029690
:102DF0000C944515CF93DF93EC01898190E0019607
:102E0000EB81FC81228130E08217930744F044E398
:102E100050E062ED70E286E190E00E94D416FE017F
:102E2000EB57FF4F8081918101962A81820F911D7E
:102E30008083918389818F5F8983CE010E94F116FF
:102E40001882DF91CF9108951F93CF93DF93EC0108
:102E5000142F18826B837C831982FC01EB57FF4F80
:102E600081E090E080839183CE010E94F1168981F8
:102E7000811720F4CE010E94FA16F9CFDF91CF918D
:102E80001F910895FC01EB57FF4F208131812F5F87
:102E90003F4FFC018281A901480F511DCA010895CD
:102EA000CF93DF93EC018881811103C0CE010E9492
:102EB000E516CE010596DF91CF910895FC01818141
:102EC0000895FC0182810895FF920F931F93CF9381
:102ED000DF93EC018B01F42EFB018281481740F057
:102EE00049E550E062ED70E286E190E00E94D41680
:102EF0004F2DB801CE010E942417CE01DF91CF9152
:102F00001F910F91FF900895FC0182810895EF9227
:102F1000FF920F931F93CF93DF931F92CDB7DEB72E
:102F20008C017B014983FC014081518161E0CE012C
:102F300001960E9418160E947215F8014081518175
:102F40004F5F5F4F6981C7010E9418160E9472157A
:102F5000F801828191E0980F9283208131812F5F67
:102F60003F4F9981290F311D208331830F90DF91CD
:102F7000CF911F910F91FF90EF900895CF93DF9322
:102F8000CDB7DEB7C758D109CDBFDEBFFC01428146
:102F90004150BC01CE0101960E946417CA57DF4F11
:102FA00088819981C658D04001962B81820F911D4E
:102FB000C957DF4FCDBFDEBFDF91CF91089560E0ED
:102FC00080E00E9419158F3F09F480E00895FC010C
:102FD000428160E080E00C948C15CF93DF93EC018C
:102FE0001A820E94E71781E090E088839983DF913D
:102FF000CF910895CF93DF93EC010E94DF178A836E
:10300000811103C081E090E003C0CE010E94BE1791
:1030100088839983DF91CF91089580E995E208959F
:10302000809192250895462FBC0180E995E20C9489
:10303000871780E995E20C94ED17CF92DF92EF921B
:10304000FF921F93CF93DF93CDB7DEB7C758D10957
:10305000CDBFDEBF7B016A01482F60E975E2CE017A
:1030600001960E9464171B81F6011083CE01019620
:103070000E945017412F50E0BC01C7010E94F43A52
:10308000C957DF4FCDBFDEBFDF91CF911F91FF90BA
:10309000EF90DF90CF90089580E995E20C94E717C8
:1030A000CF93DF9300D01F92CDB7DEB761E0CE01A2
:1030B00001960E94FA1789819A81AB8180939025AD
:1030C00090939125A09392252396CDBFDEBFDF91EB
:1030D000CF9108958F929F92AF92BF92CF92DF923D
:1030E000EF92FF920F931F93CF93DF931F92CDB771
:1030F000DEB78B01ADB6BEB6423040F0CB0149839E
:103100000E9453326C0182E0498103C080E0C12CEF
:10311000D12C841728F4F801E80FF11DF08001C0CC
:10312000F12C8DB79EB78F1991098DBF9EBF0DB73A
:103130001EB70F5F1F4F8CE692E09F938F930E9404
:10314000F51A0F900F90F801E02E8E2F801B8F152F
:1031500010F41192FACFA6016F2DC8010E944515F7
:10316000C01AD10A8FE5882E82E0982E802F8E1902
:103170008F15B0F4F80180811F928F93C601800FE4
:10318000911F9F938F939F928F920E94F51A0F5FCA
:103190001F4F0F900F900F900F900F900F90E6CF52
:1031A000ADBEBEBE0F90DF91CF911F910F91FF90EA
:1031B000EF90DF90CF90BF90AF909F908F90089549
:1031C0000C9441130C942C1A423040F0CB010E9415
:1031D0005332809394259093952504C010929425A2
:1031E000109295251092962581E08093932508955D
:1031F0000F931F93CF93DF9380919325882399F0AA
:10320000842F8B010E94AF13D82FC09196258C2F4D
:1032100090E04D2F50E0B80189569A4D0E94F43A43
:10322000CD0FC0939625DF91CF911F910F910895F7
:10323000CF93DF93CDB7DEB76997CDBFDEBF809167
:103240009325882351F08091962590E02091942534
:10325000309195258217930729F00E94521A1092F7
:1032600093253EC010929325E5EBF8E28081918191
:10327000888F998FCE010196808391832AE53AE564
:10328000228333831682148215820E94B43A892BDA
:1032900099F46091942587E995E20E9413188AE5D4
:1032A0009AE58093B7289093B8281092BB28109283
:1032B000B9281092BA2804C08091B7289091B828F4
:1032C000E5EBF8E2888D998D8083918382819381EB
:1032D0008A359A4519F00E94521A02C00E94411A7A
:1032E0006996CDBFDEBFDF91CF9108958091932580
:1032F00081110C94521A0E9469280E9449280E9448
:103300004C180E9468350E948C320E9468350E94D9
:10331000EC340E9468350E949F340C94411A442377
:1033200069F0FB019081423048F081819D3531F494
:10333000823921F40E9419180C94411A0C94521AE3
:103340000E9425300C94651ACF93DF9300D000D0F3
:10335000CDB7DEB7CB01443028F00E945132AB012B
:10336000BC0103C040E050E0BA0149835A836B833B
:103370007C830E9469280E9449280E9468350E9427
:10338000EC340E94683549815A816B817C810E94AE
:10339000C7342496CDBFDEBFDF91CF9108950F9340
:1033A0001F93CF93DF9300D000D0CDB7DEB78B0152
:1033B000BE016F5F7F4F0E942F32BE016D5F7F4F56
:1033C000C8010E942F3244E0BE016F5F7F4F83E24D
:1033D0000E9441132496CDBFDEBFDF91CF911F9194
:1033E0000F9108950F931F93CF93DF93CDB7DEB75F
:1033F0002597CDBFDEBF8A019B018983AE014E5F59
:103400005F4FC901B8010E94213245E0BE016F5FE4
:103410007F4F84E20E9441132596CDBFDEBFDF912E
:10342000CF911F910F910895CF93DF9300D000D0DB
:10343000CDB7DEB7AE014F5F5F4F0E94213244E04F
:10344000BE016F5F7F4F8EE00E9441132496CDBF77
:10345000DEBFDF91CF910895CF93DF931F92CDB759
:10346000DEB70E94862BFC018181898341E0BE0189
:103470006F5F7F4F86E20E9441130F90DF91CF91E3
:103480000895CF93DF931F92CDB7DEB7198241E045
:10349000BE016F5F7F4F80EF0E9441130F90DF915D
:1034A000CF910895CF93DF931F92CDB7DEB781E020
:1034B000898341E0BE016F5F7F4F80EF0E9441131F
:1034C0000F90DF91CF9108950895CF93DF9300D0AF
:1034D00000D0CDB7DEB7AE014F5F5F4F0E94213203
:1034E00044E0BE016F5F7F4F89E20E944113249642
:1034F000CDBFDEBFDF91CF910895CF93DF9300D092
:10350000CDB7DEB7BE016F5F7F4F0E942F3242E022
:10351000BE016F5F7F4F80E30E9441130F900F90B9
:10352000DF91CF910895462FBC0181E30C944113A4
:10353000CF93DF931F92CDB7DEB740E0BE016F5F40
:103540007F4F82E30E9441130F90DF91CF91089546
:103550000F931F93CF93DF938C01EB01CB010E945C
:103560007D1A209791F0CF30D10540F06FE0C8016F
:103570000E94931A2F97015F1F4FF3CF6C2FC80142
:103580000E94931AC0E0D0E0ECCFDF91CF911F9161
:103590000F910C94981AFC0101900020E9F73197E3
:1035A000BF01681B790B0C94A81ACF93DF93CDB79A
:1035B000DEB7C058D109CDBFDEBFAE014B575F4F5C
:1035C000FA0161917191AF01F894CE0101960E94C8
:1035D000043BCE0101960E94CB1A7894C058DF4F6D
:1035E000CDBFDEBFDF91CF910895CF93DF93CDB7ED
:1035F000DEB7C058D109CDBFDEBFAE014B575F4F1C
:10360000FA0161917191AF01F894CE0101960E9487
:10361000213BCE0101960E94CB1A7894C058DF4F0F
:10362000CDBFDEBFDF91CF910895FC01E156FF4F82
:1036300021E02083FF964FEF5FEFBA014083518373
:10364000628373833297108211820895FC01E156E0
:10365000FF4F10824FEF5FEFBA0102960E947C2469
:103660000895FC01E252FF4F4FEF5FEFBA01408334
:103670005183628373833297108211820895FC0113
:103680008485958508952F923F924F925F926F9215
:103690007F928F929F92AF92BF92CF92DF92EF92E2
:1036A000FF920F931F93CF93DF93CDB7DEB7C15532
:1036B000D109CDBFDEBF7C015B01C42E02960E9402
:1036C000EB248701025F1F4F470180E9880E911CA0
:1036D000C8010E946C28C8010D960E946C28065EE5
:1036E0001F4F08151905A1F7D4011D921C9237012F
:1036F000B2E96B0E711CC3010E946C281701E1EA4C
:103700002E0E311C8FEF9FEFDC01F101808391833E
:10371000A283B3832701F5EA4F0E511CC2010E9418
:103720006C28F701EC54FF4FC70184529F4FDF0113
:103730000FEF1FEF98014FEF5FEFBA010083118386
:103740002283338304831583268337833896E817CF
:10375000F90789F798961D921C929997F701E25202
:10376000FF4F408351836283738334964083518338
:1037700062837383D5018C9190E0F70180839183FC
:10378000C11008C04FE250E068E171E284E090E0CF
:103790000E94D416C70180569F4F62968EAF9FAF8E
:1037A000629781E0D50111969C91911101C080E052
:1037B0006296EEADFFAD62978083F1E0FC1540F0BC
:1037C00043E350E068E171E284E090E00E94D416A7
:1037D000B5016E5F7F4FCE01C5960E9497248CE0A5
:1037E000FE01F596D701129601900D928A95E1F7A8
:1037F00086E08C1540F048E350E068E171E284E037
:1038000090E00E94D416AE014F5B5F4FB501695F37
:103810007F4FCE018E5B9F4F0E94E2288DE0FE011C
:10382000EE5BFF4FD30101900D928A95E1F722964E
:103830000FAD229710E0380197E0690E711CD12C72
:10384000C614D70440F44DE350E068E171E284E02F
:1038500090E00E94D416F501E60DF71DA081609658
:10386000AFAF6097085F1F4F712C8AE1682EB501DA
:10387000600F711F6096FFAD60977F1609F445C019
:10388000AE014F5B5F4FCE014B960E94DA29229624
:103890008FAD2297080F111DC016D10640F44AE4DF
:1038A00050E068E171E284E090E00E94D416FE01ED
:1038B0007B96DE011196862D01900D928A95E1F797
:1038C000F40180819181059740F045E250E068E184
:1038D00071E284E090E00E94D416D4018D919C9115
:1038E000689ED001699EB00D1124AE0DBF1D1E96BD
:1038F000FE013196262D01900D922A95E1F7019651
:10390000F401808391837394B2CFFB018081918114
:10391000A281B381F10180839183A283B3830C5F81
:103920001F4FC016D10640F441E550E068E171E256
:1039300084E090E00E94D416B501600F711FAE01C3
:103940004F5B5F4FCE018E5B9F4F0E94E2288DE060
:10395000FE01EE5BFF4FD20101900D928A95E1F7D7
:1039600022968FAD2297080F111DC016D10640F484
:1039700046E550E068E171E284E090E00E94D416F0
:10398000F501E00FF11F8081F701EE54FF4F8083B6
:103990000F5F1F4FC016D10648F44BE550E068E1B9
:1039A00071E284E090E00E94D41603C00C151D055E
:1039B00041F04EE550E068E171E28EE090E00E9457
:1039C000D416F701E156FF4F6296AEADBFAD6297D8
:1039D0008C918083CF5ADF4FCDBFDEBFDF91CF9177
:1039E0001F910F91FF90EF90DF90CF90BF90AF901D
:1039F0009F908F907F906F905F904F903F902F900F
:103A00000895CF93DF93EC010E94431BCE01DF9119
:103A1000CF9108950F931F93BC0182529F4FFC01D9
:103A200000811181228133810F3F1F4F2F4F3F4F64
:103A300021F46FEF7FEFCB0104C06E567F4F0E94E1
:103A400029291F910F9108954F925F927F928F9233
:103A50009F92AF92BF92CF92DF92EF92FF920F931D
:103A60001F93CF93DF93CDB7DEB76097CDBFDEBF97
:103A7000FC01E452FF4F10821182912C7C0120E95D
:103A8000E20EF11C6C01EEEDCE0ED11C5C01FEE0ED
:103A9000AF0EB11C3AE1732E48E0842E8C010C5419
:103AA0001F4F492C512CF7018081918148165906EE
:103AB00008F052C025E04216510408F044C0F60157
:103AC0004081518162817381749CC001759C900D0D
:103AD00011248A0D9B1D0E942B2A29873A874B8728
:103AE0005C876D877E878F87988BFE013996DE0114
:103AF0001196882D01900D928A95E1F7F80180A525
:103B000091A5059740F045E250E068E171E284E05C
:103B100090E00E94D416F80180A591A5DC0123E075
:103B2000AA0FBB1F2A95E1F7A00FB11FFE01319626
:103B3000282D01900D922A95E1F70196F80180A7B2
:103B400091A79394AECF4AE450E068E171E286E138
:103B500090E00E94D416B3CF6096CDBFDEBFDF9158
:103B6000CF911F910F91FF90EF90DF90CF90BF907A
:103B7000AF909F908F907F905F904F900895CF93DC
:103B8000DF93EC01FC01E252FF4F8FEF9FEFDC016E
:103B900080839183A283B3833297108211824FEF87
:103BA0005FEFBA01CE0102960E947C24FE01E1562D
:103BB000FF4FC056DF4F88818083DF91CF910895FA
:103BC000CF92DF92EF92FF921F93CF93DF937C010E
:103BD000EB011886198610E00E94862BFC0181817A
:103BE000181760F50E94862B612F70E00E94F02A62
:103BF0006C01FC01868197810197F1F480859185A4
:103C00008E159F05C9F488859985049740F045E293
:103C100050E068E171E284E090E00E94D4162885CB
:103C20003985F901EE0FFF1FEC0FFD1FC082D18215
:103C30002F5F3F4F288739871F5FCECFDF91CF910E
:103C40001F91FF90EF90DF90CF9008950F931F93F7
:103C5000CF93DF9300D000D0CDB7DEB78C010E94A8
:103C60006732FC018581882359F10E946732FC018B
:103C70009581F801EE54FF4F8081981321C0F8011F
:103C8000EF54FF4F8081882399F00E946732FC0136
:103C900086819781A085B18589839A83AB83BC8314
:103CA000B8016B557F4FCE0101960E9429290BC0A8
:103CB0000E946732FC01668177818085918503C00F
:103CC0006FEF7FEFCB012496CDBFDEBFDF91CF91A9
:103CD0001F910F9108950F931F93CF93DF9300D0FF
:103CE00000D0CDB7DEB78C010E946732FC01808125
:103CF000882359F10E946732FC019081F801EE544B
:103D0000FF4F8081981321C0F801EF54FF4F80814D
:103D1000882399F00E946732FC0181819281A381FE
:103D2000B48189839A83AB83BC83B8016B557F4F81
:103D3000CE0101960E9429290BC00E946732FC0126
:103D4000618172818381948103C06FEF7FEFCB012A
:103D50002496CDBFDEBFDF91CF911F910F910895C3
:103D60004F925F926F927F92AF92BF92CF92DF920B
:103D7000EF92FF920F931F93CF93DF93CDB7DEB7F0
:103D80002A97CDBFDEBF4D835E836F837887FC01AA
:103D9000EF55FF4F40815181628173819C01225216
:103DA0003F4F59014F3F3FEF53076307730761F0E0
:103DB000F50140835183628373834FEF5FEFBA0154
:103DC00002960E947C24FEC0FC01EE54FF4F20812D
:103DD000222361F04D815E816F8178850E946B1E88
:103DE000F5016083718382839383ECC08C010E564E
:103DF0001F4FC8010E940929603472448F40910509
:103E000029F48D819E81AF81B885D7C0C8010E94F9
:103E1000C929009759F4CE0105960E948B25C12C23
:103E2000E12C00E021E041E0BC01BFC08130910500
:103E300081F4CE0105960E949438482FCE01059654
:103E400049870E948B25BC01C12CE12C00E021E0B8
:103E5000ABC08230910531F5CD80DE80EF80F884F3
:103E6000CE0105960E94FC262B013C01CE01059651
:103E70000E948925FC01A481B0E0119720E831E57A
:103E800041E050E00E94A239C61AD70AE80AF90AAE
:103E9000C418D508E608F708F501C082D182E2828D
:103EA000F38290C083309105B1F4CE0105960E9453
:103EB0008925FC012381CE0105962A870E9494382A
:103EC000482FCE01059649870E948B25BC01C12C45
:103ED000E12C00E068C084309105D9F4CE0105964C
:103EE0000E948925FC010281CE0105960E94892548
:103EF000FC012381CE0105962A870E949438482F21
:103F0000CE01059649870E948B25BC01C12CE12C6E
:103F10004AC08530910501F5CE0105960E9489259C
:103F2000FC01E180CE0105960E948925FC010281F9
:103F3000CE0105960E948925FC012381CE010596BC
:103F40002A870E949438482FCE01059649870E94FF
:103F50008B25BC01C12C27C0069709F052CFCE019A
:103F600005960E948925FC01C080CE0105960E941D
:103F70008925FC01E180CE0105960E948925FC017E
:103F80000281CE0105960E948925FC012381CE0184
:103F900005962A870E949438482FCE0105964987B6
:103FA0000E948B25BC012A854985CE0101960E947D
:103FB000652589819A81AB81BC81F50180839183DC
:103FC000A283B3832A96CDBFDEBFDF91CF911F912D
:103FD0000F91FF90EF90DF90CF90BF90AF907F90C8
:103FE0006F905F904F9008954F925F926F927F9283
:103FF0008F929F92AF92BF92CF92DF92EF92FF92F9
:104000000F931F93CF93DF93EC016A017B018C0127
:1040100002521F4FF80180819181A281B3818F3FAD
:104020009F4FAF4FBF4F09F5CE010E94B01EF80160
:1040300080819181A281B3818F3F9F4FAF4FBF4F4E
:1040400009F49FC0CE01DF91CF911F910F91FF9096
:10405000EF90DF90CF90BF90AF909F908F907F9028
:104060006F905F904F900C94241DFE01EE54FF4F13
:1040700080818823F9F0F0964081518162817381BB
:10408000CE010E94261EC616D706E806F90658F08D
:10409000F80160837183828393836F3FFFEF7F0713
:1040A0008F079F0721F4CE010E94241D03C0AB019E
:1040B000BC01E6CFCE010E940A1D2B013C01FE018E
:1040C000EF55FF4F80809180A280B3802FEF821642
:1040D0009206A206B206D9F0C814D904EA04FB0479
:1040E000B0F4B701A601CE010296DF91CF911F91E6
:1040F0000F91FF90EF90DF90CF90BF90AF909F9087
:104100008F907F906F905F904F900C947C24F8017B
:1041100080809180A280B380C814D904EA04FB0493
:10412000C0F441E251E068E171E286E190E0DF91A4
:10413000CF911F910F91FF90EF90DF90CF90BF90A4
:10414000AF909F908F907F906F905F904F900C9466
:10415000D416C414D504E604F70498F05E01E2E92D
:10416000AE0EB11CF8016083718382839383B50125
:10417000C8010E942929C616D706E806F90690F755
:1041800061CFDF91CF911F910F91FF90EF90DF9062
:10419000CF90BF90AF909F908F907F906F905F90E7
:1041A0004F9008952F923F924F925F926F927F921D
:1041B0008F929F92AF92BF92CF92DF92EF92FF9237
:1041C0000F931F93CF93DF93CDB7DEB72D97CDBF5E
:1041D000DEBFFF24FA942FEFAA24AA943FEF398779
:1041E000EE24EA9422242A9433243A94B12C4424D1
:1041F0004A94542C642C4FE7742EAC0144525F4F08
:104200004A875B874C0154EB850E911C6C01E2EEF2
:10421000CE0ED11C6B2D70E0EA85FB8580819181EB
:104220006817790770F5C4012D873C870E94B03864
:104230008C01FC0180819181A281B38189839A8361
:10424000AB83BC83B601CE0101960E94F0262D857A
:104250003C8564157505860597058CF416161706BA
:104260001806190664F4F801E08021803280338159
:10427000F4802581A680478149872B013C01B394B6
:10428000C9CF3C832E83398538872E2D322D432D7F
:104290005C816F2D7E818A2D98852D96CDBFDEBFE6
:1042A000DF91CF911F910F91FF90EF90DF90CF9012
:1042B000BF90AF909F908F907F906F905F904F9046
:1042C0003F902F9008952F923F924F925F926F925E
:1042D0007F928F929F92AF92BF92CF92DF92EF9296
:1042E000FF920F931F93CF93DF93CDB7DEB72D9738
:1042F000CDBFDEBFFF24FA942FEFAA24AA943FEF8C
:104300003987EE24EA9422242A9433243A94B12C57
:1043100044244A94542C642C4FE7742EAC0144522C
:104320005F4F4A875B874C0154EB850E911C6C01F3
:10433000E2EECE0ED11C6B2D70E0EA85FB8580810C
:1043400091816817790778F5C4012D873C870E9411
:10435000B0388C01FC0184819581A681B781898365
:104360009A83AB83BC83BE016F5F7F4FC6010E94FF
:10437000F0262D853C8564157505860597058CF41A
:10438000161617061806190664F4F801E080218055
:1043900032803381F4802581A680478149872B01B3
:1043A0003C01B394C8CF3C832E83398538872E2DAA
:1043B000322D432D5C816F2D7E818A2D98852D961F
:1043C000CDBFDEBFDF91CF911F910F91FF90EF9096
:1043D000DF90CF90BF90AF909F908F907F906F9025
:1043E0005F904F903F902F900895AF92BF92CF92E1
:1043F000DF92EF92FF921F93CF93DF93CDB7DEB79B
:104400002897CDBFDEBF10E06C012CEDC20ED11C91
:104410005C01E4EBAE0EB11C7C01F2EEEF0EF11C80
:10442000612F70E0F6018081918168177907F8F4B7
:10443000C5010E94B0389C01FC014081518162811C
:104440007381F70180819181A281B38184179507DF
:10445000A607B70750F0F90144815581668177813D
:1044600084179507A607B70710F11F5FD9CF8FEF05
:104470009FEFDC0189839A83AB83BC838D839E830A
:10448000AF83B88729813A814B815C816D817E81C0
:104490008F8198852896CDBFDEBFDF91CF911F9188
:1044A000FF90EF90DF90CF90BF90AF90089588E09D
:1044B000F901DE01119601900D928A95E1F7E2CFA4
:1044C000CF92DF92EF92FF920F931F93CF93DF93E0
:1044D000CDB7DEB76097CDBFDEBFFC01E057FF4F21
:1044E00020813181232B29F46FEF7FEF8FEF9FEF36
:1044F0004CC07C010E94F52129873A874B875C8755
:104500006D877E878F87988BCE0109960E949A3897
:10451000870102521F4F811111C0C984DA84EB84D4
:10452000FC84F8010081118122813381C016D106FB
:10453000E206F30640F5B801C90127C0C7010E9491
:10454000632129833A834B835C836D837E838F83CE
:104550009887CE0101960E949A3881110EC0CD80B5
:10456000DE80EF80F884F80180819181A281B3819F
:10457000C816D906EA06FB0630F4F801608171819D
:104580008281938102C0B601C7016096CDBFDEBFB4
:10459000DF91CF911F910F91FF90EF90DF90CF901F
:1045A00008950E94602208958F929F92AF92BF92C9
:1045B000CF92DF92EF92FF920F931F93CF93DF93EF
:1045C000CDB7DEB76097CDBFDEBFFC01E057FF4F30
:1045D00020813181232B29F44FEF3FEF2FEF9FEF05
:1045E0004AC08C010E94F52129873A874B875C8756
:1045F0006D877E878F87988BCE0109960E949A38A7
:10460000811111C0C8010E940A1DCD84DE84EF848F
:10461000F8886C157D058E059F0550F14C2D3D2DBC
:104620002E2D9F2D28C0C8010E94D22029833A83B5
:104630004B835C836D837E838F839887CE01019645
:104640000E949A38811111C0C8010E940A1D8980F8
:104650009A80AB80BC80681579058A059B0540F07F
:10466000482D392D2A2D9B2D06C0C8010E940A1DF8
:10467000462F372F282F642F732F822F6096CDBFA0
:10468000DEBFDF91CF911F910F91FF90EF90DF90F0
:10469000CF90BF90AF909F908F900895EF92FF9230
:1046A0000F931F93CF93DF937C010E94D4228B0141
:1046B000D82FC92FF701EE54FF4F8081882391F046
:1046C000F0964081518162817381C7010E94261E4C
:1046D0006F3F2FEF72078207920721F0462F372F87
:1046E000282F04C0402F312F2D2F9C2F642F732F84
:1046F000822FDF91CF911F910F91FF90EF9008953E
:104700008F929F92AF92BF92CF92DF92EF92FF92E1
:104710001F93CF93DF93EC016A017B010E94F41F8A
:1047200010E05E018CEDA80EB11C4E01E4EB8E0E84
:10473000911C612F70E0F5018081918168177907E4
:10474000F8F4C4010E94B038FC01408151816281BB
:104750007381C416D506E606F70648F08481958174
:10476000A681B781C816D906EA06FB0610F01F5FBE
:10477000E0CFB701A601CE0102960E94682406C0D0
:10478000B701A601CE0102960E947C24FE01EE51E3
:10479000FF4FC082D182E282F382CD54DF4F81E0AD
:1047A0008883DF91CF911F91FF90EF90DF90CF90A2
:1047B000BF90AF909F908F900895CF92DF92EF922D
:1047C000FF92CF93DF93FC01E156FF4F208122231C
:1047D000A1F074962081211110C06A017B01EC01C7
:1047E0000E940424B701A601CE01DF91CF91FF9072
:1047F000EF90DF90CF900C948023DF91CF91FF90CA
:10480000EF90DF90CF9008958F929F92AF92BF92DA
:10481000FF920F931F93CF93DF93CDB7DEB72A9705
:10482000CDBFDEBF4A015B0119861A86BE016F5FEC
:104830007F4F0E94E01DF12C0F2D10E089859A8595
:104840000817190710F504301105B0F4000F111FF7
:10485000E1E0F0E0EC0FFD1FE00FF11F808191819E
:10486000FC01ED54FF4F2081211104C0B501A401CA
:104870000E94DD23F394E0CF4AE450E068E171E266
:1048800086E190E00E94D416E1CF2A96CDBFDEBF2C
:10489000DF91CF911F910F91FF90BF90AF909F90AC
:1048A0008F900895CF92DF92EF92FF92CF93DF9394
:1048B000EC016A017B010E940424B701A601CE012C
:1048C000DF91CF91FF90EF90DF90CF900C948023F9
:1048D000FC01228533852130310569F021E030E08B
:1048E00022873387208531852130310511F40C94DE
:1048F00007250C94F3240895FC0122853385232B8E
:1049000059F012861386208531852130310511F446
:104910000C94F3240C9407250895FC01228533851B
:104920002130310511F40C947C240C946824BF923E
:10493000CF92DF92EF92FF920F931F93CF93DF936B
:10494000EC017B01188219821A821B821E821F824F
:10495000FB01B190CF010E945D326C0101E010E0DB
:10496000F7018381813011F000E010E0F7018481CC
:10497000811103C01886198604C081E090E0888701
:104980009987B1100CC00E946928B6010E942428A2
:10499000088319830A831B831C821D8210C0F1E0E7
:1049A000BF120FC00E94862BB6010E94F02A088316
:1049B00019830A831B8321E030E02C833D838E839F
:1049C0009F83DF91CF911F910F91FF90EF90DF9028
:1049D000CF90BF900895FC01108211821282138241
:1049E000168217820895FC011282138286819781B4
:1049F000009761F0248135812115310511F40C9463
:104A000049272130310511F40C94261B08950F938A
:104A10001F93CF93DF9300D000D0CDB7DEB7FC015A
:104A200081E090E08283938386819781009779F17A
:104A3000248135812115310549F42496CDBFDEBF8F
:104A4000DF91CF911F910F910C9467272130310591
:104A5000F1F48F0149835A836B837C830E94151B79
:104A6000F8018481958149815A816B817C8101970C
:104A700019F48681978102C080E090E02496CDBF32
:104A8000DEBFDF91CF911F910F910C945224249699
:104A9000CDBFDEBFDF91CF911F910F910895FC0133
:104AA00086819781892B19F48EEF9FEF08950895E1
:104AB000CF93DF93EC01CB010E94A5366883798305
:104AC0008A839B83DF91CF910895CF92EF920F93CA
:104AD000CF93DF93CDB7DEB72C97CDBFDEBFC982B2
:104AE000EA820B832C8341504E836C5677406F8350
:104AF0007887BE016F5F7F4F0E9458252C96CDBFEF
:104B0000DEBFDF91CF910F91EF90CF9008950C947D
:104B100058250C9470350E947035FC018681978170
:104B20008459984F08950E94703561E00C9469375C
:104B30000F931F93CF93DF931F92CDB7DEB78C01F6
:104B400069830E9470356981FC016083BC01C801E2
:104B50000F90DF91CF911F910F910C9458250F93D7
:104B60001F93CF93DF931F92CDB7DEB78C0169837C
:104B70000E9470356981FC016183BC01C8010F90FE
:104B8000DF91CF911F910F910C9458250F931F9394
:104B9000CF93DF931F92CDB7DEB78C0169830E945C
:104BA00070356981FC016283BC01C8010F90DF91FF
:104BB000CF911F910F910C9458250F931F93CF9372
:104BC000DF931F92CDB7DEB78C0169830E947035E9
:104BD0006981FC016383BC01C8010F90DF91CF9113
:104BE0001F910F910C9458250F931F93CF93DF9330
:104BF0001F92CDB7DEB78C0169830E947035698141
:104C0000FC016583BC01C8010F90DF91CF911F911A
:104C10000F910C9458250F931F93CF93DF938C0122
:104C2000EB010E947035CC56D740FC01C683D78378
:104C3000BC01C801DF91CF911F910F910C945825B1
:104C40000F931F93FC010081118122813381400F5A
:104C5000511F621F731F40835183628373831F91AF
:104C60000F9108950F931F93FC01ACE3B0E09A01FC
:104C7000AB010E9497390081118122813381DC01CF
:104C8000CB01800F911FA21FB31F80839183A2834A
:104C9000B3831F910F9108950F931F93FC01A0E11F
:104CA000BEE09A01AB010E949739008111812281F7
:104CB0003381DC01CB01800F911FA21FB31F8083C2
:104CC0009183A283B3831F910F9108950F931F9334
:104CD000FC019A01AB0160E871E581E090E00E947F
:104CE00024390081118122813381DC01CB01800FC5
:104CF000911FA21FB31F80839183A283B3831F914F
:104D00000F910895FC016C3E71052CF08CEE90E043
:104D1000868397830895161617061CF0168217824D
:104D20000895668377830895EF92FF920F931F9300
:104D3000CF93DF937C018B010E947035EC01C80199
:104D40006CE070E00E945439182F2E813F81620F71
:104D5000731FCE010E9482268D81180F1D83BE0114
:104D6000C701DF91CF911F910F91FF90EF900C94AD
:104D70005825EF92FF920F931F93CF93DF938C01EF
:104D80007B010E947035EC012E813F81B701620FDB
:104D9000731F0E948226BE01C801DF91CF911F912F
:104DA0000F91FF90EF900C9458250F931F93FC01E7
:104DB000DB0120E83AE349E050E00E94A23900819B
:104DC000118122813381DC01CB01800F911FA21F51
:104DD000B31F80839183A283B3831F910F910895A2
:104DE000FB012081318142815381FC01608171810D
:104DF000828193810C946B35CF92DF92EF92FF9278
:104E00000F931F930E947035FC015181A2810A2EDD
:104E1000000CBB0B20E13EE00E9490396B017C014D
:104E2000A52F550FBB0B2CE330E00E949039AB014E
:104E3000BC014C0D5D1D6E1D7F1D8081082E000C78
:104E4000990BAA0BBB0B8A019B01080F191F2A1F84
:104E50003B1FC901B8011F910F91FF90EF90DF90A8
:104E6000CF9008950C947735CF93DF9300D0CDB7D2
:104E7000DEB769837A830E94703569817A810F90E9
:104E80000F90DF91CF910C9449360E9470350C94AD
:104E90003E36FC01A681B78181E090E0008402C02B
:104EA000880F991F0A94E2F716968C931282138248
:104EB00081818F9380818F9388E892E09F938F9375
:104EC0000E94F51A0F900F900F900F900895FC011B
:104ED000A681B78181E090E09C01008402C0220F8E
:104EE000331F0A94E2F715962C9382839383818172
:104EF0008F9380818F938DE792E09F938F930E9491
:104F0000F51A0F900F900F900F900895611571058D
:104F100021F06130710519F008950C9449270C9423
:104F20006727FC01228133812130310511F40C9473
:104F300049270C9467276F927F928F929F92AF922E
:104F4000BF92CF92DF92EF92FF920F931F93CF9376
:104F5000DF93CDB7DEB72997CDBFDEBF7C016A01F5
:104F6000FC01619385962FEF3FEF208331831282FE
:104F70001382148215821682178210863996E817DA
:104F8000F90799F710E080E2A82E86E0B82E882471
:104F90008394912C09E0F7018081181748F5612E60
:104FA000712C69827A82CB82DC82CD82DE82AF82F2
:104FB000B8861987C401012E01C0880F0A94EAF748
:104FC00080932106B601CE0101960E948627069D98
:104FD000D001079DB00D1124AE0DBF1D1196FE012D
:104FE0003196802F01900D928A95E1F71F5FD3CF04
:104FF0002996CDBFDEBFDF91CF911F910F91FF901A
:10500000EF90DF90CF90BF90AF909F908F907F9068
:105010006F9008950F931F93CF93DF938C01C0E09F
:10502000D9E0F8018081C81750F4C801DC9F800DD9
:10503000911D112401960E944927CF5FF2CFDF9185
:10504000CF911F910F9108950F931F93CF93DF93EB
:105050008C01EB0177FD06C0FC01208130E0621776
:10506000730744F04BE150E066E671E286E190E0C0
:105070000E94D41689E08C9F90018D9F300D1124E1
:10508000C9010196800F911FDF91CF911F910F9160
:1050900008950F931F93CF93DF938C01C0E0D9E065
:1050A000F8018081C81780F4DC9F90011124F80179
:1050B000E20FF31F65817681C9010196800F911F70
:1050C0000E948627CF5FECCFDF91CF911F910F9188
:1050D00008958FE596E20895FC018FEF90E08083BC
:1050E000918312821382148215828683978310869D
:1050F000118612861386148608958F929F92AF921E
:10510000BF92CF92DF92EF92FF920F931F93CF93B4
:10511000DF93EC018A018FEF90E0888399831A82F4
:105120001B821C821D828E839F83188619861A8695
:105130001B86FA0110826B01FFEFCF1ADF0AFB0119
:1051400080818C87FA0180818F5F80838C8583309A
:1051500040F04EE150E068EB71E284E090E00E94A4
:10516000D416F12C86E0E82E8C85F816F0F48F2CFE
:10517000912CF601A190CF01B12C0E945132E89CF4
:10518000F001E99CF00D1124EC0FFD1FA082B1820B
:105190006283738384839583F5E0CF0ED11CF8017D
:1051A00080818B5F8083F394DFCFDF91CF911F915C
:1051B0000F91FF90EF90DF90CF90BF90AF909F90B6
:1051C0008F900895CF93DF93EC010E947D28CE014C
:1051D000DF91CF910895FC01208131812617370797
:1051E00049F0268137812617370711F4069608956E
:1051F00080E090E008950E94EB28009731F0FC01D8
:105200006281738184819581089560E070E0CB01B3
:10521000089560E070E00C94FB2861E070E00C946D
:10522000FB2862E070E00C94FB2863E070E00C94D3
:10523000FB2864E070E00C94FB2865E070E00C94BF
:10524000FB2866E070E00C94FB2867E070E00C94AB
:10525000FB28EF92FF920F931F93CF93DF9300D021
:1052600000D0CDB7DEB77B01FC0180819181A281A6
:10527000B38189839A83AB83BC8310E006E0F70196
:105280008485181708F05CC0F701019FE00DF11D3F
:10529000112480819181009739F462817381CE015C
:1052A00001960E94B9264AC08130910539F4628185
:1052B0007381CE0101960E94942640C082309105F0
:1052C00039F462817381CE0101960E94D52636C0E1
:1052D0008330910559F442815381052E000C660BF1
:1052E000770BCE0101960E94662628C08430910576
:1052F00059F442815381052E000C660B770BCE01C9
:1053000001960E944C261AC08530910559F44281BD
:105310005381052E000C660B770BCE0101960E947F
:1053200032260CC0069751F442815381052E000CA1
:10533000660B770BCE0101960E9420261F5F9FCF40
:1053400069817A818B819C812496CDBFDEBFDF91FC
:10535000CF911F910F91FF90EF900895FC018FEF77
:1053600090E086839783108611861286138681E0EB
:1053700084872083318342835383648375830895B4
:10538000CF93DF93EC010E94AE29CE01DF91CF9144
:105390000895FC01348520E08FEF90E0231749F059
:1053A00040815181481759070CF4CA012F5F369686
:1053B000F5CF0895AF92BF92CF92DF92EF92FF9216
:1053C0000F931F93CF93DF93CDB7DEB72F97CDBF4A
:1053D000DEBF7C018B016A010E946C2857018DE0C1
:1053E000A80EB11CC5010E946C28AE014E5F5F4F34
:1053F000B801CE0103960E94E2288DE0FE013396AB
:10540000D70101900D928A95E1F78A81B801680F62
:10541000711DAE014F5F5F4FCE0103960E94E228DF
:105420009DE0FE013396D50101900D929A95E1F72A
:1054300099818A81890FF60180832F96CDBFDEBFC7
:10544000DF91CF911F910F91FF90EF90DF90CF9060
:10545000BF90AF900895CF92DF92EF92FF920F939B
:105460001F93CF93DF93CDB7DEB76497CDBFDEBF79
:105470008C01498B5A8B6B8B7C8BBC01635F7F4F9C
:10548000CE0141960E9429296B017C01B801CE0111
:1054900041960E94292969877A878B879C87CD86C8
:1054A000DE86EF86F88A88E0FE013996DE011196E5
:1054B00001900D928A95E1F729813A814B815C81B7
:1054C0006D817E818F8198856496CDBFDEBFDF912F
:1054D000CF911F910F91FF90EF90DF90CF900895A3
:1054E0004F925F926F927F928F929F92AF92BF92F4
:1054F000CF92DF92EF92FF920F931F93CF93DF93A0
:10550000FC0160831182EC01C252DF4F7C01F2E9A1
:10551000EF0EF11C8C0106551D4F88248A94982C9F
:10552000540144244A94542C3201CE018A5D9109DD
:105530000E94EB246E012EECC21AD108C6010E9413
:105540006C28C6010D960E946C288AE1C80ED11CF9
:10555000CE14DF0499F7F70110821182CE018A542C
:1055600091090E946C28F701818A928AA38AB48AE1
:10557000CE01C7970E946C28FE01B8978082918265
:10558000A282B38284829582A682B7823896EC1773
:10559000FD07A1F7108211824282538264827582D4
:1055A0004682578260867186EF01CA51DF4FF6EE60
:1055B000EF0EF11CC017D10709F0B7CFDF91CF91E3
:1055C0001F910F91FF90EF90DF90CF90BF90AF9021
:1055D0009F908F907F906F905F904F900895089567
:1055E0000F931F93CF93DF938C01EB0177FD06C0E0
:1055F000FC01218130E06217730744F042E250E081
:1056000065EF71E286E190E00E94D41686EE8C9FF1
:1056100090018D9F300D1124C9010296800F911FBA
:10562000DF91CF911F910F910895AF92BF92CF92CA
:10563000DF92EF92FF920F931F93CF93DF93CDB73B
:10564000DEB7CE56D140CDBFDEBF7C010E94101820
:10565000F7018183882309F44AC00E940D1840E0B5
:10566000BC01CE0101960E946417A12C86EEB82ED3
:10567000F7018181A816D8F5CA2CD12CCE0101964C
:105680000E946117482FCE010196C259DE4F488310
:10569000CE56D1400E945017BC01BC9C8001BD9CDD
:1056A000100D11240E0D1F1D0E5F1F4FC259DE4F2E
:1056B0004881CE56D140CE0188579F4F0E94011D90
:1056C000FE01E857FF4FD8018B2D01900D928A956E
:1056D000E1F7F701218130E021503109C216D306EC
:1056E00024F4CE0101960E94FA16A394C1CFC259A8
:1056F000DE4FCDBFDEBFDF91CF911F910F91FF90A5
:10570000EF90DF90CF90BF90AF90089584E896E23D
:105710000895CF93DF93CDB7DEB7CE5CD140CDBF38
:10572000DEBF0E94501862E0CE0101960E94702AEE
:105730008EEC91E0FE013196A4E8B6E201900D9264
:105740000197E1F784E896E20E94152BC253DE4FE1
:10575000CDBFDEBFDF91CF910895EF920F931F93DE
:10576000FC0147835087218781E0982F01C0990F62
:105770002A95EAF79287158606871787E08A01C07F
:10578000880FEA94EAF7818B148A158A168A178A99
:105790008FEF9FEFDC01848F958FA68FB78F10A2BC
:1057A00011A212A217A210A611A681E086A7CF010E
:1057B0001F910F91EF900C9453318F929F92AF9263
:1057C000CF92DF92EF920F931F93CF93DF93EC0171
:1057D0004B014F835887298781E0982F01C0990F8B
:1057E0002A95EAF79A871D860E871F87E88A982FE1
:1057F00001C0990FEA94EAF7998B1C8ACD8ADE8A58
:10580000AF8A01C0880FAA94EAF7888F1B8E8FEFAA
:105810009FEFDC018C8F9D8FAE8FBF8F18A219A2D6
:105820001AA21FA218A619A611E01EA7CE010E9457
:10583000533180EA881684E0980619F480E896E0EF
:1058400007C080E8881684E09806C1F480E496E0FA
:1058500088A399A31AA21BA31EA28FA398A719A776
:1058600082E08AA71DA6DF91CF911F910F91EF9043
:10587000DF90CF90AF909F908F9008954CE250E0D2
:1058800064E472E286E190E0DF91CF911F910F9185
:10589000EF90DF90CF90AF909F908F900C94D416A4
:1058A0000F931F93CF93DF93EC0107960E9458301C
:1058B0008E01025F1F4FC8010E945030C8010E9434
:1058C0009A30095F1F4FC8010E94583068E170E0AC
:1058D000C8010E94C03063E070E0C8010E94C73078
:1058E000CE0180960E945830CE0187960E94583093
:1058F0002FEF85EA9EE0215080409040E1F700C004
:10590000000040E157E260E070E0CE010E94833188
:1059100060E0C8010E94E43042E050E060E0C8016D
:10592000DF91CF911F910F910C9418310895982F0A
:1059300092959F702AEF929F800D112408950F93E6
:105940001F93CF93DF93EC018B0168E60E94D43163
:1059500060E0CE010E94F03168E6CE010E94D731AE
:10596000CE010E9404328F770E94972CF801808329
:10597000CE010E9404320E94972CF8018183CE014F
:105980000E9404328F7B0E94972CF8018283CE0103
:105990000E940432F8018483CE010E9404320E94E6
:1059A000972CF8018383CE010E9404328F770E94E6
:1059B000972C8150F8018583CE010E9404320E9409
:1059C000972C90E08C599F4FF80186839783CE01E6
:1059D0000E94DB3180E0DF91CF911F910F910895FC
:1059E000CF93DF93CDB7DEB76097CDBFDEBFBE01EB
:1059F0006F5F7F4F0E949F2CBE016F5F7F4FCE0174
:105A00000D960E9487256D857E858F859889609685
:105A1000CDBFDEBFDF91CF9108950F931F93CF933A
:105A2000DF93CDB7DEB76097CDBFDEBF8C0168E6F0
:105A30000E94D43167E0C8010E94F03168E6C801D5
:105A40000E94D731C8010E9404320E94972C89839A
:105A5000C8010E9404320E94972C8A83C8010E94C8
:105A600004320E94972C8B83C8010E9404320E944A
:105A7000972C8C83C8010E94DB311E8284E690E063
:105A80008F839887BE016F5F7F4FCE010D960E9476
:105A900087256D857E858F8598896096CDBFDEBF11
:105AA000DF91CF911F910F910895EF92FF921F9375
:105AB000CF93DF931F92CDB7DEB77C01162FF894FA
:105AC00068E649830E94D431612FC7010E94F031FA
:105AD0004981642FC7010E94F031C7010E94DB3168
