:10200000982A0020D1240000CD240000C72400001D
:1020100000000000000000000000000000000000C0
:10202000000000000000000000000000C9240000C3
:102030000000000000000000CB240000CF240000BE
:10204000C5240000C5240000C5240000C5240000EC
:10205000C54A0000C5240000C52400004537000023
:10206000C5240000C5240000C5240000C5240000CC
:10207000C52400000000000000000000C52400008E
:10208000C5240000C5240000C5240000C5240000AC
:10209000C52400000000000000000000C52400006E
:1020A000C5240000C5240000C5240000C52400008C
:1020B0000000000010B5064C2378002B07D1054B1B
:1020C000002B02D0044800E000BF0123237010BDA4
:1020D0006C09002000000000D0FE0000084B10B585
:1020E000002B03D00749084800E000BF07480368F9
:1020F000002B00D110BD064B002BFBD09847F9E711
:102100000000000070090020D0FE0000D0FE00009A
:1021100000000000F8B51820204FB8470024012225
:102120001B23050002710470437084704461C47005
:1021300044711B4B98471B4E18203560B84702234B
:10214000012205004370DB18027104708370446142
:10215000C4704471124B984718207560B847032328
:1021600001220500437005330271047083704461DD
:10217000C47044710A4B98471820B560B8470423CF
:102180000122437010230500837004704461C47001
:1021900002714471024B9847F560F8BD2965000053
:1021A000D525000088090020F0B501220024364B17
:1021B0008FB01A711C705C709C70DC70334B984748
:1021C000334B9847334B9847334B9847334B98479B
:1021D000334E344B35001035280098472800324BD9
:1021E0009847324F2020B84705002100304B9847D0
:1021F000A9882A0020002F4BB562984764230193D9
:102200002D4B01AD029380239B03059301235B4279
:10221000AB820A336B44DC770CAB1C7031236B440C
:102220001C7032236B441C70D7232B86FA239B002F
:10223000EB82224B0C200893214B03940993032338
:102240002C760B942B73B84707002A001D491E4BB0
:1022500098471E4BF76298473200210004201C4B20
:1022600098471C4BF46A98471B4B01002000984785
:102270001A4B98474378002B03D0194B9847194BBA
:1022800098470FB0F0BDC046DC150020214C00007F
:10229000215A0000F9270000A1480000A5620000B3
:1022A00088090020E5250000B1250000296500000F
:1022B000FD8B0000CD670000480D000002001000FB
:1022C00002001100000C0042658D00001521000085
:1022D0007D7A00001D670000CD870000AD7D000005
:1022E0002D880000E186000010B51F4B98471F4B5A
:1022F00098471F4B9847002801D01E4B984772B64D
:10230000BFF35F8F00221C491C4C0A70A05CD3B243
:1023100001320028FAD0002B05D101330B70BFF336
:102320005F8F62B61FE072B6BFF35F8F0022013B82
:10233000DBB20A70022B07D9032B0CD10420104A00
:1023400013690343136106E004240D480269A243A4
:1023500002610C4A537001230B70BFF35F8F62B6AA
:10236000BFF34F8F30BF10BD2D880000698700007C
:10237000CD88000091610000E6000020DC150020FF
:1023800000ED00E000040040012230B5384BB5B04C
:102390001A70BFF35F8F62B6364B06A81A680392B5
:1023A000354A18609A8000221A72DA80334B9847B7
:1023B000041E07D1324B98472E4B2F4A9A801C722D
:1023C000DC800CE02B4B9A8892B20092DA8804AB46
:1023D00092B2DA80DA8892B2DA802A4B0193002135
:1023E000244B039A2448CA509A8892B2824211D050
:1023F0000A2504AB06331B88234C9BB2019A009933
:102400002248A0472C00013C214BE4B29847002C05
:10241000F9D1EEE7186802901DA818609A80197229
:10242000D980164B9847002802D11A4B9847FCE7F1
:102430000020104B9A88D98892B20092114A89B232
:10244000019204AAD180D18889B2D180029AC25067
:102450009A88094B9A4209D004AB06331B88019A2B
:102460009BB200990C48084CA047F5E735B030BD49
:10247000E6000020E41500205A5A00000DB70000C5
:10248000A9210000EC150020CD6B00005CF60000D7
:1024900091610000E922000082F600001B22002367
:1024A00010B5064842741A3A037483744362C374C5
:1024B00043750275024B1030984710BD8809002003
:1024C000D5250000FEE7FEE7FEE7FEE7FEE7FEE7B4
:1024D0002148224970B5884202D00023204C03E0F5
:1024E000204B214A002106E0CA18A242F8D2C55862
:1024F00004331560F8E7934201D202C3FBE7FF21E2
:1025000002240325194B1A4A8B430C269360082298
:10251000184B19495C62CB78AB432343CB70CB7823
:10252000B3431343CB703021144B987B884310394D
:1025300008439873997BB1431143997380219A7B27
:10254000AA4322439A730E4A53680B4353600D4BC0
:1025500098470D4B9847FEE7D0FE00000000002092
:102560006C0900206C090020981600200020000053
:1025700000ED00E0FC7000410050004100480041C7
:1025800000400041EDAF00008923000041784B0975
:10259000CA0908D11F3211401E3A8A400349DB01A3
:1025A0005B189A61704700239B61FFDE0044004185
:1025B00041784B09CA0908D11F3211401E3A8A409E
:1025C0000349DB015B185A61704700235B61FFDE42
:1025D0000044004110B5C11C014B4078984710BD24
:1025E000A5590000C37810B5012B03D00123C37097
:1025F000014B984710BDC046D5250000C37810B5E3
:10260000002B03D00023C370014B984710BDC04678
:10261000D525000070B5050008350400064B2800DC
:1026200098470123607823740433E3742900A06081
:10263000024B984770BDC046994B0000AD4B00005F
:1026400010B504000021054B4078984761780022BE
:102650006069034B98470023636110BDA14A0000E5
:102660005D4A0000436970B504000D00002B01D0E5
:10267000094B98476561617800222800074B98470D
:102680001D2804D1692206491738064B98476078FF
:102690000021054B984770BD41260000354A0000D7
:1026A000A7F60000C56400007D4A000010B5034B8A
:1026B00058887F231840024B984710BD40150020D2
:1026C0005948000070B5154A1378002B01D100203D
:1026D00023E053681B681C798442F8D99360DC7846
:1026E0009D7824022C4300251C199C4211D95E7848
:1026F000042E0AD19E78864207D1DE788E4204D11C
:10270000002D00D09360012007E01D785B190125A2
:10271000EBE7002DDBD09360D9E770BDC009002046
:10272000094B5B681968CA788B7812021A438A18B9
:102730000378C018904205D24378042B02D0052BB1
:10274000F6D100E000207047C009002070B5104BA2
:1027500005009847002801D1002017E00D4EB4680D
:1027600020000D4B9847041E0AD0427903791202CB
:102770001A43C178094B807898470028F0D1EBE7DD
:102780007368AD005B68EB581B68984770BDC04626
:10279000C5260000C009002021270000C944000010
:1027A000F8B50021104D0400A847002801D10025EC
:1027B00017E00E4FA2007B685B68D658F368984715
:1027C00001002000A847051EF1D0BC682000084B7E
:1027D0009847041E03D08078064B9847F6E7736845
:1027E00098472800F8BDC046C5260000C009002053
:1027F000212700007544000010B5014B984710BD1B
:102800006D49000070B50A4C00252378002B03D1D8
:1028100000232370A38170BD63681B681B79AB42E2
:10282000F6D92800034B01359847EDB2F4E7C046CE
:10283000C0090020A127000070B50B4B00241A78B6
:102840001D00002A0ED06B681A681279A24209D9BD
:102850005B68A200D3581B69002B00D09847013455
:10286000E4B2F0E770BDC046C0090020F8B500230F
:102870009C4C2278A38150B223616361984203DAB1
:10288000E388002B00D19EE16021114000D053E18C
:102890001F23002800DBAEE0E588002D00D14BE1CE
:1028A000134070D16378062B0BD0082B63D0002B1C
:1028B00000D041E1022D00D03EE18B4829000C30D0
:1028C0005EE063881D0A022D0CD006D8012D00D0D1
:1028D00032E1864B1868017844E0032D1FD00F2D9C
:1028E00013D029E1814ADBB21168497C994200D8B2
:1028F00022E15268DB009858C178837809021943B5
:102900007B4B9847A3685D702EE0784B9868002851
:1029100000D111E1C17883780902194322E0DBB2CA
:10292000012B0BD0002B05D0022B00D004E10F218E
:10293000704D06E06F4804211C3013E009216D4DF5
:1029400010356C4A0023100020305E00EF5C8619C1
:1029500001337780DEB2B142F7D84900023101324B
:10296000D17789B2624B9847E388A2899A4200D80E
:1029700005E1A38103E1012D00D0DDE029005A48E3
:102980005B4B9847FBE0012B22D163780A2B00D0E8
:10299000D2E0012D00D0CFE0534D2B78002B00D199
:1029A000CAE06F6826793B681B79B34200D8C3E060
:1029B0003000514B9847002800D1BDE07B68B6003D
:1029C000F358DB6898472874280001211030D7E7B6
:1029D000022B00D0B0E06378002B00D0ACE0022DD9
:1029E00000D0A9E0454B207998473F4B29005882F9
:1029F00012331800C4E713404BD16078013808281F
:102A000000D999E006F05CFC0C9898980598989885
:102A10001A00E388002B00D08EE0394B2361AEE032
:102A2000E388002B00D087E06388012B00D083E08F
:102A300002212D4A93898B439381A0E0E588002DE4
:102A400000D079E02F4B9847002875D0274FA27807
:102A50003B685B7C9A426FDC2B4B9847A378224EF5
:102A60003370002B00D18AE0284A9B187A68DB007B
:102A7000D318736073681B681B79AB4200D87EE083
:102A800000212800224B9847002855D00135EDB28F
:102A9000F0E7012B15D163780B2B4DD1E388002B88
:102AA0004AD1114B1B78002B46D02679194B3000A8
:102AB0006588984700283FD0E9B23000144B98470A
:102AC00038E0022B38D16378012B02D0032B25D0BC
:102AD00032E0E388002B2FD16388002B2CD12079A2
:102AE0000D4B26E040150020C009002068000020A2
:102AF0007948000000000020C52600009545000030
:102B0000AD2600006948000005280000FFFFFF1FF8
:102B10004D270000A1270000B1460000E388002BEC
:102B20000AD16388002B07D12079284B9847207958
:102B3000274B9847002822D11F2322781340012BCE
:102B40001FD1244B1A78002A3DD05E68257933685E
:102B50001B79AB4237D9002128001F4FB847002806
:102B60000FD07368AA00D658F36898470100280070
:102B7000B847002805D0B3689847002801D0012045
:102B800022E01F2322781340022B1CD1114B00247A
:102B90001A781D00002A16D06B681A681279A242B2
:102BA00011D95B68A200D658F36898470A4B010018
:102BB00020009847002806D0B36898470028DED147
:102BC0000134E4B2E8E70020F8BDC0461544000037
:102BD000A9450000C0090020C526000082B0EFF31F
:102BE00010835A425341019372B6BFF35F8F0022A4
:102BF000024B1A70019802B07047C046E6000020F0
:102C0000024A1378013BDBB213707047DC090020E5
:102C1000002070470020704710B50020014B9847F6
:102C200010BDC046AD88000010B5064C6378013B6E
:102C3000DBB263706078044BC0B298470023A37086
:102C400010BDC046DC090020A1880000002805D086
:102C50000122034B1A70BFF35F8F62B67047C04604
:102C6000E60000206022154B197848B20A4000287F
:102C70000EDA0020202A1FD15A78212A1CD1D988A7
:102C8000072919D10E4A998104329A60013013E064
:102C90000020202A10D15A78202A03D0223A50420C
:102CA000504109E0D988072906D10120054A9981B8
:102CB0001A61034A04329A607047C04640150020EA
:102CC000DC090020192C0000A12370B50F4C002551
:102CD0002374813B63741E3BE382E1235B026360E8
:102CE00008232800A3726582094BA58225832572DB
:102CF00065722570A58198472800064B9847A84221
:102D000003D023780133DBB2237070BDDC090020CF
:102D1000AD88000095880000F0B5334C85B0A37EE7
:102D2000002B5FD1314EB047A58B314B002800D02E
:102D3000304B9847854255D02F4B9847A57F0700C9
:102D4000EDB26B00E3181B8C002B13D1A38C013365
:102D5000A384B047002806D1A38C632B03D8380086
:102D6000264B98473EE0B047002803D0A28C244B66
:102D70009A42F4D90023A384E31DDB7F002B04D106
:102D80006B426B41DBB2A37702E06A425541EDB280
:102D900001233800A3766F00184B9847E3191A8C6B
:102DA0001300413BFF3B591E8B41DBB20393A02331
:102DB0005B009A4207D0B0470E4B002800D10C4B65
:102DC0009847A08301E00023A383AA010D492D02A7
:102DD000E719521928343B8CA218009181200399DD
:102DE000094CA04705B0F0BDDC09002051440000AB
:102DF0005544000065440000DD2B00004D2C000010
:102E00001F030000C12E0000ED46000010B5014B6D
:102E1000984710BD192D000037B50A4C2834217889
:102E200000290DD1084A9389158B9D4208D09389BA
:102E3000064D1383064B103200930A23A8472070D7
:102E400037BDC0465C0C0020DC090020ED460000C8
:102E5000552E0000002110B57C24074B10002833AC
:102E60001970064B9989A1439981198BA143198344
:102E7000034B984710BDC0465C0C0020DC090020C5
:102E8000192E000070B50A4B05000C009847094B3D
:102E9000002D03D099892143998102E09A89A243A8
:102EA0009A81054B98478320044B984770BDC046D4
:102EB000DD2B0000DC0900204D2C0000192E000045
:102EC00010B500280FD1084A937F5C4263415B0034
:102ED000D3181884D31DD8779076002901D0034BDE
:102EE0009847034B984710BDDC0900201D63000084
:102EF000192D000010B540210120014B984710BD4D
:102F0000852E000070B5084B9847084B1A002C32EC
:102F10005D8D12782E335200D35AADB29CB2044B61
:102F20009847601B70BDC046DD2B00005C0C002084
:102F30004D2C000010B5034B9847431E9841C0B27A
:102F400010BDC046052F0000F0B51E4B85B0984758
:102F50001D4D29002A002C3132320C781678E4B24B
:102F6000F6B20392002E07D12B002E331A00630015
:102F70006F8D9B5A9F4203D2144B984700201EE04E
:102F800063426341DBB26E850B700123039A1370B9
:102F90000E4B984730000E4B9847002802D0300067
:102FA0000C4B98470C4BA2010093A0232402141948
:102FB00034352A195B0001210220084CA04705B0D6
:102FC000F0BDC046DD2B00005C0C00204D2C000045
:102FD000352F0000716300003D300000ED46000019
:102FE00070B50024114DEB1D6C70AC76DC77104B86
:102FF000AC772C846C84AC8398470E4B1A00323229
:1030000014701A002C321470DC851C865C850A4B07
:103010009847A04208D06B780133DBB26B706B78B5
:10302000DBB2012B00D1AB7070BDC046DC090020C3
:10303000192D00005C0C0020492F000037B504005A
:103040001000002C1FD1104A13002C331B785D4256
:103050006B41DBB200290DD1343211009A011B0201
:10306000D318CA18094B01210093A023084C5B0018
:10307000A04708E010005B0089B22E3019523232AE
:10308000044B1470984737BD5C0C00203D300000A5
:10309000ED460000492F000010B50020014B984775
:1030A00010BDC046352F0000F0B51D4A0027937AA9
:1030B00085B0093B59424B41DBB201930392194B56
:1030C0009847194E33002C33758D1C783300E4B2C9
:1030D00062002E33D35AADB29BB20293134B984782
:1030E000029B9D4205D3039B9878C0B20028E6D18D
:1030F00014E03200A1012302CC1834321419605DAF
:1031000001350B4BADB2074375859847019B002BEA
:1031100003D000233F020193D1E7380005B0F0BD92
:10312000DC090020DD2B00005C0C00204D2C000091
:10313000492F000010B50020014B984710BDC04634
:10314000A930000070B5104B9847104A937FDBB24E
:10315000590051180C8CA02149008C420ED1917E4F
:1031600000290BD1D51DE97FC9B2002906D1012460
:10317000EC775C4263410C00DBB29377044B9847D9
:10318000A0204000001B70BDDD2B0000DC090020EA
:103190004D2C000010B5034B9847431E9841C0B218
:1031A00010BDC0464531000010B50020014B9847C6
:1031B00010BDC04695310000F8B5164D0E00AC7A32
:1031C000093C63425C41E4B20020134B984700285D
:1031D00004D1A878C0B20028F6D119E00F4B984767
:1031E000AB7FDBB25A00AA18118C4F1C17849A01CE
:1031F00094461A022F00130028376344FB185E54CC
:10320000074B9847002C02D036120024DCE701203F
:10321000F8BDC046DC09002095310000DD2B000020
:103220004D2C000010B50100014B0020984710BD47
:10323000B93100000B002E339B0010B51A50AA22A2
:10324000044B52004900845ACB5A23438352002036
:1032500010BDC046E8F60000064B4900CB5AAB2132
:10326000026849009383425A1A434252026800207E
:1032700013837047E8F60000054B4900CA5AAB219A
:103280004900435A93434352036800209A8270478F
:10329000E8F6000010B58C00A4183434A40004191A
:1032A0004018054959306360FF300E3104788B5C5B
:1032B00023430370002010BDE8F6000010B5002481
:1032C0008B009B1834339B00C3185C604118054B7E
:1032D0005931FF310E339A5C0B78200093430B7009
:1032E00010BDC046E8F600000F23F0B50B40C4182F
:1032F000204E6134FF340E362778B55C3D4325708F
:10330000002A0FD10268002B03D113000322FF33E0
:103310002DE05B01D31849B2FF330222002926DBDE
:10332000012224E0012A0FD10268002B03D11300EF
:103330000C22FF331BE05B01D31849B2FF33082294
:10334000002914DB042212E0022A05D102685B0185
:10335000D318FF3310220AE0032A09D102685B0167
:10336000D31849B2FF334022002900DB20229A7291
:103370000020F0BDE8F600000F2370B50B40C41824
:10338000204D6134FF340E35AE5C2578B543257091
:10339000002A0FD10268002B03D113000322FF3350
:1033A0002DE05B01D31849B2FF330222002926DB4E
:1033B000012224E0012A0FD10268002B03D113005F
:1033C0000C22FF331BE05B01D31849B2FF33082204
:1033D000002914DB042212E0022A05D102685B01F5
:1033E000D318FF3310220AE0032A09D102685B01D7
:1033F000D31849B2FF334022002900DB20225A7241
:10340000002070BDE8F60000002303704370837055
:103410000133C370704700000F23F0B505000A7830
:10342000C878134052B2042800D999E02C6805F0FE
:1034300047FF03084A5E7B00002008335B01E0542D
:10344000AAE05E01A419FF3462781C20520700D064
:10345000A2E070226778174200D09DE05F3A627068
:103460002A6808335B01D218243050712A684B480F
:10347000D31880221A718B78002B09D080258319EC
:103480005C682D062C435C605A692A435A6108E047
:10349000821953685B005B08536053695B005B08EB
:1034A0005361072285194C7868683D4E1440240703
:1034B00030402043686049786B690A401207334006
:1034C00013436B6163E058012418FF34002A07DAC4
:1034D000702667781C2037425ED16078503E12E03B
:1034E00066781C20760757D1607802262FE05801B5
:1034F0002418FF34002A10DA702667781C2037421F
:103500004AD16078403E3043607018002C68083023
:10351000400120188024047122E066781C20760780
:103520003AD16078032612E058012418FF34002AAB
:1035300007DA702667781C2037422DD16078303E3C
:10354000E1E766781C20760726D1042660783043B0
:10355000607018002C680830400120184024447125
:103560000720D20F5B009B180C4A1B01D3184C7824
:103570005D680B4A204000072A4002435A60887861
:103580005A68002805D0802109060A435A600020A5
:1035900002E0520052085A60F0BDC04618120020E6
:1035A000FFFFFF8F0F230B40026808335B0149B216
:1035B000D218002905DA802111710268D31802227D
:1035C00004E0402151710268D3180122DA7170477A
:1035D0000F230B4049B200680833002904DA5A016E
:1035E00083189879800603E05B01C3189879C006B8
:1035F000C00F70470F230B4049B200680833002901
:1036000003DA5A018318202202E010225B01C3185A
:103610005A7170470F2330B50B4002685C011219D4
:10362000FF3249B2D579002911DA20210D4220D08C
:103630005171026814194022FF34217A114218D0C6
:103640002272026808335B01D318022210E01021B5
:103650000D420ED05171026814192022FF34217AD4
:10366000114206D02272026808335B01D31801228E
:103670001A7130BD70B50C00056808346401665DD0
:103680001C207606760F13D00A484901411808001D
:103690000A614969084A9B040A40426141699A0CDF
:1036A0008B0B9B0313434361802300202C19637110
:1036B00070BDC04618120020FF3F00F070B50C002E
:1036C000056808346401665D1C20760712D00A483C
:1036D00049010A509B04411848681A09074B2C19E4
:1036E000034013434B604B6800209B0B9B034B60D4
:1036F0004023237170BDC04618120020FF3F00F028
:10370000094B0A4A196059680A40802189020A4314
:103710005A605A68920B92035A6040220368002054
:10372000FF335A717047C04618120020FF3F00F067
:103730000221026813780B43137002689378022BFE
:10374000FCD07047F7B5D44C67683E683378DB0926
:1037500000D1C4E0338C002B00D1CBE1308CCF4BB7
:1037600080B298474301F618009333000500032008
:10377000FF331E7AF6B2064243D001229446AA4095
:1037800021681872914362467B19AE331B78216021
:10379000134236D02B00257208333A685B019A5CDD
:1037A000BF4B9207920F62450ED16A019B185A686F
:1037B0009204920C62815A681201920CA2815A689A
:1037C000920B92035A6014E06A019B185A68120126
:1037D000920C628191B25A689204920CA28158684C
:1037E000B04A02405A60002903D15B689B049B0CDD
:1037F0006381AB1C1B01A849FB185B6808313800CA
:103800009847042216420BD00123AB40216899430C
:103810006368216019682B0008335B01CB18DA71EB
:10382000082216421DD00123AB40216860689943ED
:103830002160AB1801685B01CB18DA714319AE3314
:103840001B789B070DD5964B6A019F181F232100FB
:10385000FA892572134063722B01C31808319B6AE1
:103860009847102216421DD00123AB4021686068A2
:1038700099432B002160083301685B01CB18DA7192
:103880004319AE331B785B070CD5854A6B01257253
:10389000D3185B6800211B019B0C63812B01C318AB
:1038A000DB6A98472022164200D196E10123AB4003
:1038B0002168606899432B002160083301685B012F
:1038C000CB18DA714319AE331B781B0700D484E19F
:1038D000210025722D01451908312B6B02E1358C31
:1038E000AAB29446002A2CD1AB2355325B00FF329A
:1038F000FB5ABA5A80276546B68B7F00B6B2334072
:103900001A400092684B6A00D35A334202D0626870
:1039100012689383009A13420FD0062D04D1604B96
:103920001B891B093B4023612B00210062682E3359
:103930009B0010319B58100098470135072DE1D1AD
:103940004BE13D005935FF35624601211A41DCB299
:103950000A4200D1C8E01A00083251017118C81D8E
:10396000009201902A78C879297AC0B21140602269
:103970000140104219D05A01B6184022FF36307A61
:10398000104203D03272C03A144304E02022307A4D
:10399000104202D03272404A94766022114200D125
:1039A0001BE11B01FB18E03398E01022104218D0F5
:1039B0001021019A11701021FA186132FF32127829
:1039C0000A4200D109E136495A018A1852681B019E
:1039D00031499204FB18920CDC338A821B68143143
:1039E0007FE0032210422DD002205A01B618FF3684
:1039F000357A05420DD0802530726D4226482C4321
:103A00008476274CA218103252689204920CC2821B
:103A100010E00125307A28420CD01F483572847698
:103A20001F4CA2185468A404A40C8482526812018A
:103A3000920C02838A0700D1CFE00D331B01FB18E3
:103A40005B684CE00C2210424ED008205D017619D4
:103A5000FF36327A024229D03072022610484019CD
:103A6000857E354202D0857EB543857680204042F2
:103A700004430948009A8476386852018218D27942
:103A8000920700D5A9E00C22114200D1A5E01B014C
:103A9000FB18D83322E0C046180F0020FD95000027
:103AA00018120020FF3F00F0E8F600000420327AF0
:103AB0000242E8D03072022648484019857A3542E1
:103AC00002D0857AB54385724548009A8476386875
:103AD00052018218D279D207D5D57EE01B684049C1
:103AE00014313800984778E001330135082B00D0B5
:103AF0002AE772E00423B58BADB21D4208D0B38330
:103B00003B00A5331B78DB0702D57B68380098475C
:103B100008231D420BD00022606822600268938354
:103B20000300A5331B789B0701D583689847402382
:103B30001D4209D06068026893830300A5331B7897
:103B4000DB0601D54369984720231D4209D06068F0
:103B5000026893830300A5331B781B0701D5036913
:103B6000984710231D4209D06068026893830300C0
:103B7000A5331B785B0701D5C368984780231D4296
:103B80000BD0002260682260026893830300A53393
:103B90001B789B0601D58369984780235B001D42F3
:103BA0000BD0002260682260026893830300A53373
:103BB0001B785B0601D5C369984780239B001D4293
:103BC0000BD0002260682260026893830300A53353
:103BD0001B787F2B01D9036A9847F7BD1812002084
:103BE000180F002000220123027043708270C370FE
:103BF00070470000F7B50023040020201700664A34
:103C00000D0018C22160654901AECA690243CA614C
:103C100001227370F3700633337031000838604B43
:103C2000B270984706233100337019205C4B9847D7
:103C30006A46BB786946137006205A4B98475A4B20
:103C40000620984701222B7813432B70AB78DB07B3
:103C5000FCD403211F20554AD3788B4301390B43F1
:103C6000D370D3780A318B4304390B435049D37056
:103C70000B685B0B0340834200D1052303402E8D6C
:103C80009A014C4B334013432B850B689B0C03402C
:103C90001F2B00D1023B1F202A8D03408243134378
:103CA0002B8507230A68D20D1A409A4200D10322BD
:103CB0001340298D1A03404B40480B4013432B857A
:103CC0007F2329783A780B40D201134301222B70CD
:103CD00079782B780A40042192008B4313432B7090
:103CE0006862FB78012B04D12268083113898B4369
:103CF00006E0002B05D10C2522681389AB430B434A
:103D000013818022002152002D4B9847230000216F
:103D1000221D243302C29A42FCD120000021A4308B
:103D2000196059609960D960103300229842F7D128
:103D300023002100A5330270AE311A7001331A70CE
:103D40001A7201339942FAD1220023000021B832BD
:103D5000D43302C29342FCD1200000215530FF3001
:103D6000196059609960D960103300229842F7D1E8
:103D7000AA235B00E2520233E2522300613459333A
:103D8000FF33FF341A701A7201339C42FAD1802239
:103D90000C4B00201A60FEBD180F002000040040EC
:103DA0005552000081510000F950000000500041C0
:103DB000246080003FF8FFFFFF8FFFFF18120020F4
:103DC00055B6000000E100E082B0EFF310835A42E4
:103DD0005341019372B6BFF35F8F0022024B1A70FA
:103DE000019802B07047C046E60000200F23034050
:103DF0005B00C0091818142302385843014B1818E7
:103E00007047C0463C0F0020F0B58D7985B06AB28E
:103E10000E00534B2800002A45DA0F2798472F4001
:103E20000197038A816802937688C3680400F618B4
:103E3000C660877C8E421FD08D1B4A4BADB29D421F
:103E400006D918000299484B9847464B5D1AADB207
:103E50000022BB0706D5454B02992800984789B236
:103E60004A424A4151000222A37C934362681943AB
:103E7000A17492192B0008E002233800184009D0E1
:103E80009F4300236268A77492190199384C3948FE
:103E9000A04762E001239F432368A774002B5CD0F6
:103EA0002A00310058E098470F232B400293038AE1
:103EB00004000193837C37885B0711D5C26843688F
:103EC0009446634403930199284B80689847029B6A
:103ED0000A00581E284B8001C1180398274B9847A9
:103EE000E368FA18A368E2609A4200D9E360B288F6
:103EF000BA4227D1E668B34224D09D1B194FADB218
:103F00000199BD4204D9184B380098477B1A03E049
:103F1000164B280098476B1A019A9BB21548184F08
:103F20009A420AD90422A37C1343A374029B5A1E0B
:103F3000114B9201D218019B01E06268921902991B
:103F4000B8470AE00122A37C9343A3742368002BA3
:103F500003D02A000020E168984705B0F0BDC046B4
:103F6000ED3D0000FF1F0000B5950000E19300004B
:103F700075360000D813002018130020D9B50000B2
:103F8000BD360000052210B5064B074C78331A7079
:103F900020008021054B984700212000044B9847C2
:103FA00010BDC0463C0F0020D8130020F53500009E
:103FB0001536000037B504001E4B98478023226851
:103FC00001AD937228001C4B9847032329006B70A6
:103FD00020001A4B98471A4920001A4B98471A4D4F
:103FE0001A4B022200212000A8470022184B110082
:103FF0002000A847174B012200212000A847164D9A
:10400000022200212000A847002220001100A8471A
:10401000012200212000A8472268104B11890B4083
:104020008021C9000B43138100220D4B78331A7095
:1040300037BDC046052800000934000019340000CF
:10404000581500200137000095320000D1410000D2
:10405000D5450000A1400000E9320000FFF3FFFF5A
:104060003C0F00200322084B10B5084C78331A701F
:1040700007492000074B98470023074A1900926818
:104080002000064CA04710BD3C0F0020D813002094
:10409000581500200137000040150020753600003B
:1040A00010B589790C4B4AB27833002A08DA1B78AC
:1040B000012B02D1094B98470DE0042B0BD107E0EF
:1040C0001A78022A02D102321A7004E0032A02D1BD
:1040D0000348044B984710BD3C0F0020654000008A
:1040E000D8130020F5350000F8B5204C204E2700ED
:1040F0007A373988B5896D1AADB2002D1DD12200ED
:104100007C321388CB189BB21380F2889A4204D079
:1041100023007E331B78002B07D0042378342370D0
:104120001449154B154898471FE07369002B0CD0B4
:104130009847002809D03D80B5893F2D05D9230037
:1041400000227E331A70402503E0230001227E33D3
:104150001A707A342388B2680021D21807482B00DD
:10416000074EB0472388ED182580F8BD3C0F00208E
:10417000401500205815002001370000D8130020FA
:104180007536000010B5024B9847024B984710BD9A
:1041900039280000898800000122034B1A70BFF300
:1041A0005F8F62B67047C046E6000020074B9A8CCE
:1041B000920605D4D021DA680A40D02AFBD103E068
:1041C0001022D9681142FCD07047C0460008004058
:1041D00070B52C4C0D00230078331B78002B08D0D1
:1041E000294B1B69002B00D098472300002278330D
:1041F0001A702B88082B01D0244B30E0244D224E1E
:104200002B7833706B787370EB78AA781B02D31815
:1042100073806B792A791B02D318B380EB79AA7962
:104220001B02D318F3801B4B98470028E4D0337847
:104230007F2B10D9230000217C33198023007A338F
:1042400019800223783423702A003E331248134C1D
:10425000A047134B03E0F388002B02D1114B984782
:104260000EE0230000217C33198023007A3319806B
:104270000123783423702A003F330748074CA047B6
:1042800070BDC0463C0F002040150020853F000057
:10429000581500206D280000D8130020BD360000FE
:1042A000E940000065400000F0B585B003AD042290
:1042B0001A4B04001A49280098471A4B1A007F32FB
:1042C000127801930092A24225D0002C0ED02E5DD0
:1042D000154FBB5DFF2B00D1FEE7144B9847BB5D2C
:1042E0000133BB55002801D0114B9847009B002B90
:1042F0000ED0ED5C0C4E735D002B00D1FEE70B4B36
:104300009847735D013B7355002801D0084B9847CF
:10431000019B7F331C7005B0F0BDC046D9B50000CD
:10432000FAF600003C0F0020DC150020C93D00001B
:104330009941000070B50D000D4C06210D4E200076
:10434000B04704212000B04702210B4B20009847C2
:104350000A4B022098472B68002B01D0084B984746
:104360002B68002B01D1074B9847074B984770BD2E
:10437000D81300207932000059320000A942000011
:10438000C7880000C9880000C588000070B50C4BC4
:1043900098470C4C0C4B0221200098470B4D0421F0
:1043A0002000A8470A4A0B4B062120009847062107
:1043B0002000A8470320084B9847084B984770BD3A
:1043C000AD410000D81300207932000059320000BE
:1043D0003543000035320000A94200007D8800000E
:1043E00010B5074C04212000064B984702212000FD
:1043F000054B98470120054B9847054B984710BD42
:10440000D81300207932000059320000A942000080
:104410007188000070B5040001000A4B0A489847F3
:104420000A4B200098470300827C0120024207D0FB
:104430001D6882439A74002D02D02200D968A847D3
:1044400070BDC046A5350000D8130020ED3D00002A
:1044500000207047024B1B68188A8004400D70478B
:10446000D8130020024B1B68188A80B27047C046E0
:10447000D8130020F7B50400002701AD28000C4B2D
:10448000984720000B4B98470B4E290030000B4BF0
:10449000EF702C7098470F213A0021403000084BF4
:1044A00098473A0030002100064B9847F7BDC046B8
:1044B0000934000015440000D8130020193400000E
:1044C000BD32000079330000F7B5060001AC294B7E
:1044D00020000F001500984726700023082D1ED9D4
:1044E0000123102D1BD90223202D18D90323402D81
:1044F00015D90423802D12D980235B009D4201D859
:10450000FB3B0CE080239B009D4202D8FB3BFF3B22
:1045100005E0194B9D4201D900202AE00723637072
:104520003000164B984703233900058219400129B2
:1045300001D1013B04E0022902D00329ECD104237C
:104540000F4DE370210028000E4B9847041EE3D165
:104550000F210D4B0200314028000C4FB8472200BC
:1045600031000B4C2800A047012231002800A04751
:104570000120FEBD09340000FF030000ED3D0000F6
:10458000D813002019340000093E000095320000C5
:10459000E932000010B50100014B0248984710BDF8
:1045A000D1350000D81300200F2310B503400400BC
:1045B0000020032B07D821000348044B9847200014
:1045C000034B9847012010BDD8130020F53500009B
:1045D00015440000F7B52D4C230078331B78012BD0
:1045E00046D122002A4D7A320E881788AB89BA1933
:1045F000934201DADE1BB6B2AB683200D819254906
:10460000254BBF199847BBB22700224A7A373B8017
:104610000192402E06D126007C363288E988D218D5
:1046200091420FDCAB816B69002B09D098470028C1
:1046300006D10523783423700020184B984724E0D6
:10464000174B18E0AA899A420BD16B69002BF0D066
:1046500098470028EDD032883B88D3183380002358
:104660003B804023019A00210E4C0F48A0470CE0EC
:10467000022B02D10D4B984707E0054B1B69002B1D
:1046800000D09847002378342370F7BD3C0F0020FA
:104690004015002058150020D9B50000A94500009C
:1046A00065400000BD360000D8130020E94000003E
:1046B0000F2370B5034006000024032B0ED8084BCF
:1046C00098470500074B310007489847AB7C0134F9
:1046D000234203D0A343AB742B689847200070BDDE
:1046E000ED3D000015360000D8130020F0B51D0088
:1046F0000F2385B003400700039102920193032B1F
:1047000001D900268EE0494B9847061EF9D1484B47
:10471000380098470400474B98470122A37C134276
:1047200004D00028EDD0444B98477BE01343A3749A
:10473000002801D0404B9847029B01216360002371
:104740000220E3600A9BA5602360039B0B405A0094
:10475000A37C8343134304229343A3747BB2002BB3
:1047600035DAA67C002D1AD0344FADB2BD4205D942
:10477000218A3800324B98477D1AADB20021B30729
:1047800006D5304B218A2800984789B24B425941BF
:104790000222A37C490093431943A17410E006420E
:1047A00002D08643A6740BE08E43A6740A9B002BAE
:1047B00004D000213A0008000A9B9847012631E006
:1047C0002B00029A0199204C2048A04722E0002D9E
:1047D00024D0278A194EADB23900B54204D9184BFE
:1047E00030009847731A03E0164B280098476B1A5D
:1047F0009BB21648164E029ABB4209D20422A37CF1
:104800001343A374019B5A1E124B9201D2183B0012
:104810000199B04746424641F6B203E0A37C8B4380
:10482000A374C3E7300005B0F0BDC0469545000055
:10483000ED3D0000C93D000099410000FF1F000050
:10484000B5950000E193000075360000D8130020F4
:10485000BD36000018130020024B1A68802318434D
:1048600090727047D8130020024B1B68987A40065C
:10487000400E7047D8130020014B98609981704713
:1048800040150020012010B5034B1A68138903431B
:104890001381024B984710BDD8130020A942000095
:1048A000F8B501270320164B9847164C164E226880
:1048B000042113892000BB431381144AB047144AD2
:1048C00000212000B0473900124A2000B047124AA8
:1048D00002212000B047114D04212000A8470021EB
:1048E0002000A84739002000A84702212000A8473F
:1048F0000B4A06212000B04706212000A847F8BD3A
:10490000A9420000D813002035320000E143000026
:1049100085410000B53F00008D4300005932000082
:104920003543000010B50B4B00210F2098470A4B70
:104930001A6A1C00130401D5084B00E0084B984785
:10494000206A084B0004C00F98470021064B0F2037
:10495000984710BDA14A000000440041A148000052
:1049600085480000B98800007D4A0000F0B5214B61
:1049700087B09847012701901F4B02A898471F4C0A
:1049800002AB1A001E4920009F701E4B9847200062
:104990001D4B98471D4B03AC984738001C4B98475C
:1049A00020001C4B98470F25002603233100E3729B
:1049B0002800194B66602672A7720395984721005C
:1049C0002800164B9847164C32002900154B200042
:1049D0009847154B310028009847144B1B6A1B045D
:1049E00000D5A047019B002B01D0114B984707B081
:1049F000F0BDC046C93D0000E53B0000D8130020D3
:104A000000500041F53B000031370000AD4100008F
:104A1000A9420000994B0000A14A0000AD4B0000E4
:104A200025490000354A00007D4A0000004400414D
:104A30009941000010B51723002A0BD1064B8900BD
:104A4000CC58002C02D1C850230003E0130084424C
:104A500000D01D23180010BD9C15002030B5172371
:104A6000002A07D1044C89000D590133854201D138
:104A700013000A51180030BD9C150020172300298F
:104A800009D11F2805D8163B8340044AD3600B0088
:104A900001E0C960FFDE18007047C0460018004002
:104AA0001723002909D11F2805D8163B8340044A43
:104AB00093600B0001E08960FFDE18007047C0467C
:104AC00000180040002370B501250B4C237023789B
:104AD0000F2B10D829009940084A1069084206D0C7
:104AE0001161074A9B009B58002B00D09847237800
:104AF00001332370EBE770BD9815002000180040CB
:104B00009C150020014B5878C009704700180040E0
:104B1000022110B5044A13780B431370034B9847D6
:104B20000028FBD110BDC04600180040054B000016
:104B300007B54021104A052093690B439361002378
:104B400001A90B700D4B98470D4B0520984701218B
:104B50000C4A13780B4313700B4B98470028FBD17A
:104B600002000A4B1A5004304028FBD11022084B97
:104B70001A60084B984707BD0004004081510000AF
:104B8000F950000000180040054B00009C15002063
:104B900000E100E0114B00000023012203604360AC
:104BA0008372023302724272C3727047F7B50D000E
:104BB00000262B7901A94E70CE700B702B7A040061
:104BC0008B702878134B984733001F2C00D8124B5A
:104BD0000720A97A20408000EA7A002901D0082124
:104BE0000A430F2787408240E108890059188E69DF
:104BF000BE4332438A61697A0122002903D0A24070
:104C000059690A4303E0A240596991430A005A6175
:104C1000F7BDC04655520000001800407047000024
:104C200010B5054B9847054B9847054B9847054BE2
:104C30009847054B984710BD2D4E00001D4C0000B5
:104C40001D4C0000314B00001D4C00001023024998
:104C5000CA681A42FCD07047000800400222F8B52A
:104C60000026094D094C2B68094F13432B60A28481
:104C7000B847AB68E3626B68A362A684B8472B6849
:104C800030009BB2A384F8BDC40F00200008004090
:104C90004D4C000010B5082806D804F011FB07059C
:104CA000052626110A141E00002020E0104B18696A
:104CB0001DE0104B10481B6A9B059B0FD84016E067
:104CC0000B4B586913E00223094C206818400ED0A2
:104CD0000A4B984723680A4809E00A4B00201B78D2
:104CE0005B0704D5024BD86801E08020000210BDAC
:104CF000C40F00200008004000127A004D4C000054
:104D0000006CDC025008004070B5012186780578FF
:104D100042784020094C0A40236A9201834313439E
:104D200080223140C90193430B437D3A0449154029
:104D30002D020B402B43236270BDC046000800408B
:104D4000FFFCFFFF027A438992069B059B0D120C24
:104D50001A43194B30B55A60C2798479818814435B
:104D600042880A4341782243C90104780A431A6001
:104D7000042C0ED1027B018A92060A431500C289D7
:104D80000E4912040A402A439A601A6814431C60B0
:104D900010E0202C0ED1027B018A92060A431400F7
:104DA000C289064912040A4022439A601A680449DB
:104DB0000A431A6030BDC046C40F00200000FF0344
:104DC0002404000010B5082806D804F079FA130569
:104DD00005270D19071F2200172020E00221104A85
:104DE000136A0B43136219E002210D4A93690B43C6
:104DF000936113E002210A4A138A0B4313820DE0E8
:104E00000221074A938A0B43938207E0054B984798
:104E100005E00221044A13780B431370002010BDF3
:104E2000000800405D4C000044080040C2231E20E2
:104E3000F0B53C4ADB003C4993604B680025834356
:104E40001A3803434B6002238DB007AC23700192E4
:104E5000E8B22100354B01359847252DF8D10023C4
:104E600020226380A371E3716370314B22701B6851
:104E700007269B0E3F2B00D1203B23720A230025DF
:104E80000127E3812B4B20006381FF3BA3802A4B4A
:104E900026732382294B984703A8294B87704570B6
:104EA00005709847274B062004AC9847264B984737
:104EB000210038002670254E676065702572657286
:104EC000B0473800224B9847062321000320676033
:104ED0002370657025726572B04703201C4B98479C
:104EE0001C4B984710231A4F01990E4AC968194262
:104EF000FAD080210025938C28000B439384164B15
:104F000007221D725D729D72DD72012321006360B4
:104F10002270237265706572B0472800B8470DB0E3
:104F2000F0BDC04600080040004000418151000033
:104F300024608000FF01000080BBFFFF454D0000A2
:104F4000094D0000C54D0000694F0000894F000069
:104F5000315000005D4C000000040040014B5878C7
:104F6000C0097047000C00400821054A93690B43B3
:104F700093610123034A137011781942FCD17047E1
:104F800000040040000C0040F8B50C784B78240277
:104F9000060005000443002B02D08023DB021C43E3
:104FA0004B7A002B02D080231B031C434B68012B40
:104FB00013D95D1E1D400222002D09D19A4202D252
:104FC00001355200FAE780232D0235435B0303E0ED
:104FD0001D02802335439B021C430B7A002B02D019
:104FE00080239B031C430D4FB8470028FBD10C4B7B
:104FF00098470C4B1E70B8470028FCD10A4B9D60A7
:105000001D00B8470028FCD180236A685B0213406A
:105010001C436C60054B9847F8BDC0465D4F0000CF
:10502000C5590000080C0040000C0040F559000074
:1050300070B50500094CA0470028FBD1084B9847E4
:10504000084B1D70A0470028FCD18021064A490268
:1050500053680B435360054B984770BD5D4F00008C
:10506000C5590000040C0040000C0040F559000038
:10507000F7B50700184EB0470028FBD1174B9847EB
:10508000174B1F700193B0470028FCD1154D164BEC
:105090006868C004C00E98470400019B1F706B68CD
:1050A000DB02DB0F0193114B1F70B0470028FCD1CE
:1050B000AD680F4B9847019B2D022D0C002B07D19B
:1050C000012D07D9200029000A4B9847040001E070
:1050D0000135EC402000FEBD5D4F0000C5590000C9
:1050E000040C0040000C0040954C0000080C0040EF
:1050F000F5590000D592000010B50400064B984702
:105100008021064B064A1C705388C9010B4353800B
:10511000044B984710BDC046C5590000020C004022
:10512000000C0040F559000070B504000E4B984784
:105130000E4B0F4A1C700F4B5988588809051040B8
:1051400058805C880C48090F204080245880E40176
:105150005D8808482542FBD144880B0222401A434F
:105160004280064B984770BDC5590000020C0040B4
:10517000FFF0FFFF000C0040FFBFFFFFF5590000EC
:1051800010B50C78034B240204439847024BA4B299
:105190005C8010BD29510000000C004010B50400D7
:1051A000064B9847064B1C70064B5C88064B240543
:1051B000240F98472000054B984710BDC5590000A3
:1051C000020C0040000C0040F55900007150000036
:1051D000D37830B5002B1BD11478802C03D08023DA
:1051E00024065B02234302255478AC4309D194780A
:1051F000002C02D18024A40201E0C024E402234355
:1052000041605478013C012C04D8114C234001E04A
:1052100000234160A0258CB2ED052C43D0251C4312
:1052200084622D060C0C2C431C438462D478002C21
:105230000CD15B0305D59378012B01D1816100E08E
:1052400041615378013B012B00D8816030BDC046DD
:10525000FFFFFBFF10B50A0004004309C10900204D
:10526000814202D1D801054BC0181F231C401E3BB0
:10527000A3401900024B984710BDC04600440041AE
:10528000D15100000D4B37B51A7804001D00002ADB
:1052900001D000290CD001A91320094B0C709847AC
:1052A0001320084B984701236C702B70002004E0FA
:1052B0005B780800A34200D01D203EBDE40F002013
:1052C00081510000F9500000284A030000B5080091
:1052D000934218D003D8264A934207D03AE0254A91
:1052E00093421DD0244A934227D033E00023032960
:1052F00039D803F0E5FF31020406204B33E0204BA0
:1053000031E0204B2FE0002303292CD803F0D8FFF5
:10531000260204061C4B26E01C4B24E01C4B22E01A
:10532000002303291FD803F0CBFF1B020406194BEF
:1053300019E0194B17E0194B15E00023032912D887
:1053400003F0BEFF10020406154B0CE0154B0AE0FB
:10535000154B08E0002306E0144B04E0032302E0B1
:10536000134B00E0134B180000BDC046000C004278
:105370000008004200100042001400420300050033
:1053800003000600030007000300010003001E00E5
:1053900003001F000300090003000A0003000B00C4
:1053A00003001100030012000300130003000400B7
:1053B00003000800030010007FB56946094B6A46E8
:1053C00070CB70C11B680B6000239900515881425B
:1053D00001D1D8B203E00133042BF6D1002004B090
:1053E00070BDC04600F7000007230168CA691A4271
:1053F000FCD170470300F0B501278BB0196006900F
:105400008F4B080016000D0098473C00811C8C4013
:105410008C4A1430136A23431362337B08AAC4B244
:10542000137011002000884B98472000874B984745
:10543000874B307B002198472B681C209B0700D5A9
:10544000FBE02C6817383C4000D0F6E014232B60BA
:10545000069B09AD1B6801931800794B9847802380
:105460000290F0696C70EC702B70AF70346A002899
:1054700003D10100774B0198984702232870000C54
:105480006B70C0B22900744B9847002C04D10121E5
:105490000198704B9847040002272C70240C6E4B27
:1054A000E0B229006F709847B38A069AD380F38AD6
:1054B0001381327E8023002A05D1684B9B781F40E0
:1054C0007B1E9F41FB01B268376917431F43731D61
:1054D000DB7F002B02D08023DB051F43B36A1F4311
:1054E00033002C331B78002B03D180239B049A427A
:1054F00002D180231B051F4333002D331B78002B63
:1055000002D080231B041F4333002E331B78002B53
:1055100002D08023DB031F43019B02981B68019A82
:105520001F43019B14301F608023FA275B005360E8
:10553000C0B24B4B98473368BF005F437368069017
:105540000793484B9847474B029003917800984740
:1055500004900591069B308E5843424B9847424A2F
:10556000424B434CA0470022424B434CA0473D4B8B
:10557000040038000D00984702000B0020002900AD
:105580003B4CA0473D4D02000B0002980399A847F1
:10559000049A059B384CA0470022394BA847049A2F
:1055A000059B384CA047384B98478023B2680700CA
:1055B0009B049A422DD1FA23079C9B005C43029ADC
:1055C000039B2D4E10001900B047264B029003910B
:1055D0002000984700222D4B254EB047294E02004F
:1055E0000B0002980399B0470022254BA847264B91
:1055F0009847274B061E05D0210006989847023889
:10560000801B08E06100069A481E80189847013800
:1056100001E0002630004023FF2F01D8FF2801D9E8
:1056200018000AE0FF2336061B04000418403E431E
:10563000019B3043D8600023F2E70BB0F0BDC046B9
:10564000B95300000004004081510000F9500000EF
:1056500085520000C9520000555200000020004150
:105660009D510000C9AE000095D626E80B2E113ED4
:10567000C1A20000000024403D960000B5A7000034
:105680000000F03F959C00005DAE00000000084067
:10569000D592000002220368197E114205D01A76C5
:1056A0005B8B412013420BD109E05A8B520706D580
:1056B000C0215A6889020A435A60182000E000207D
:1056C000704770B500220126022401680B7E33402A
:1056D0000BD10D7E254206D10132038992B293424D
:1056E000F4D8122002E0180000E0002070BD000095
:1056F000802210B50468D20263681343636061625C
:10570000024B98470123237610BDC046C3560000C4
:10571000F0B504684B8885B00193236807001B012E
:10572000DB0F03934B7A0E00002B02D0897A4D4B8E
:10573000984763684C4D2B406360737A3288317AA6
:1057400052009B0300291DD01A4380231B021A43D9
:105750006262464B3800984763682B4063600028BC
:1057600000D07DE03800424B9847002878D178215E
:105770003388727A1B0A0B435900012392031343A7
:105780000B4302E013430122134363623800374B9B
:105790009847039B0090002B08D07388012B05D1FC
:1057A00080226368D2021343636002E063681D4095
:1057B00065600098002853D138002D4B984702901F
:1057C00000284DD1019B013B9BB20193294B019ACB
:1057D0009A4230D02022638B134240D0FB7A002BB8
:1057E00010D0039B002B03D1019B002B03D009E0B9
:1057F000019B012B06D180226368D20213436360B0
:10580000009D10E038001C4B9847009B72685D1C9F
:10581000230028331B78009938005354134BADB242
:105820009847002805D1019B0095013B9BB201934D
:10583000CCE700950290BB7A0F4D002B06D03800C4
:10584000A847C0226368920213436360380028347B
:10585000A84722787368009902985A5400E04120C2
:1058600005B0F0BDF1560000FFFFFBFFC35600007E
:1058700095560000FFFF0000E9530000F0B50F004F
:105880004B8885B02A4E039305000468B0477B7AA5
:105890000296002B03D0B97A2800264B98476268FD
:1058A000254B134063607B7A3A88397A52009B0318
:1058B0001343002902D0802212021343636228009E
:1058C0001E4B9847061E30D128001D4B984701906B
:1058D000061E2AD1039B9E4219D02022638B1342BD
:1058E00022D02800029B98477B6828009A5D2300FD
:1058F00028331A70114B9847002807D10422638B74
:1059000001361342E6D01E23019300E00190AB7AEA
:10591000019E002B09D0029B28009847C022636893
:1059200092021343636000E04126300005B0F0BDF1
:10593000E9530000F1560000FFFFFBFFC3560000D3
:1059400095560000012310B58372C372014B98472E
:1059500010BDC04611570000002310B583720133FB
:10596000C372014B984710BD7D58000010B5044B21
:1059700004689847C022636892021343636010BDB5
:10598000E953000070B50E0004000568034B28358C
:1059900098472E702000024B984770BDE9530000D5
:1059A000C356000007B5802201AB1A700A785A70FE
:1059B0004A789A708A781900DA70014B984707BDC7
:1059C00055520000094B1A68002A0AD1EFF31081E2
:1059D000002905D172B6BFF35F8F054A117001220D
:1059E0001A711A6801321A607047C046EC0F002025
:1059F000E6000020084B1A68013A1A601A68002A6B
:105A000008D11B79002B05D0044B01321A70BFF36B
:105A10005F8F62B67047C046EC0F0020E6000020A2
:105A200070B5094B00209847FA21084D89000600FF
:105A3000A847074C074920603000A8470522064BBD
:105A400060601A6070BDC04671500000D5920000C1
:105A5000E800002040420F0010E000E070B5802414
:105A60000021084B084A1B686402013808D3002B48
:105A7000FBD0054E5360916035682542FCD0F4E7B9
:105A800070BDC046E800002010E000E0024B187D29
:105A9000012318407047C04600400041042170B502
:105AA0001E4A1F4DD36904000B43D3612023FF33EB
:105AB0002B831C4B984703000520002B2DD0C022C0
:105AC000237892001B0213401E221800A378802125
:105AD0005B00134003436278E078D20180041343F3
:105AE0000200C9020A40C021134318002379890229
:105AF0001B040B401A000300082113436B60AB68C2
:105B0000094A5B035B0F99401180AB68538063784F
:105B10001371288BC005C00F000170BD0004004048
:105B2000004000418D5A0000F40F0020F7B5264ACE
:105B3000009153881188009A4B430400934207D286
:105B40008022009B214918205B18920193423AD889
:105B500080231F4DDB026F682E003B436B602023C8
:105B6000FF332B831B4B98471A4B0193002802D11C
:105B70006F60053027E0062C06D8052C0BD2022CCE
:105B80000FD0042C12D10CE0402C0FD3412C08D99B
:105B9000452C0ED90AE02B8BDB0502D56F60102057
:105BA00011E0009B9B085B00F36102E07760172027
:105BB00009E0A5231B021C433480019B9847002861
:105BC000FBD000207760FEBDF40F002000C07FFFF7
:105BD000004000418D5A0000F7B51500214A0F0022
:105BE000138851880400594300921822814236D309
:105BF000591E084233D1013AAB4230D31A4EB04756
:105C0000052200282BD0194B194A1A800193B0475E
:105C10000028FCD02023019AFF331383002360085F
:105C200040006E1E9AB295420DD99AB2B95CB2424A
:105C300001DB8AB203E0BA18527812020A43C11893
:105C40000A800233EEE70022009B1B79934206D1C3
:105C50003F2D04D821000420064B98470200100075
:105C6000FEBDC046F40F00208D5A000000400041E8
:105C700044A5FFFF2D5B0000F8B5184B0D001988F7
:105C80005B8814004B4307001822834223D34B1E2A
:105C900003401E1E1FD1013AA1421CD3104B98474E
:105CA0000522002817D020220E4BFF3278081A83D5
:105CB00040003300661E9AB294420BD9C218128873
:105CC00099B292B26A54B14202DA6918120A4A7061
:105CD0000233F0E700221000F8BDC046F40F0020A8
:105CE0008D5A00000040004170B5134A040013882B
:105CF000528818205A43A2421CD39B00013B1C42ED
:105D000018D10E4DA84703000520002B12D02022E9
:105D10000B4BA408FF3264001A83DC611C00094AA3
:105D20001A80A8470028FCD01C23208B1840431E53
:105D30009841800070BDC046F40F00208D5A0000CD
:105D40000040004102A5FFFF2022124BFF321A83C0
:105D5000996808234A03520F93400F4A0370418009
:105D600013885B065B0F072B01D1002303E006219C
:105D7000C91A04238B404360072312881A409A42B1
:105D800001D1002303E09B1A04229A401300836090
:105D90007047C046004000410040800073B50400D9
:105DA000204B98470028FBD06A461F4B1B88138066
:105DB0001E4B1B8853801E4B1B8893801D4B1B88DA
:105DC000D380009B072219001140217019090A4055
:105DD000012162709A04920EA2709A0B0A40E2703E
:105DE000DA03920F2271019ADD0E100A08406071E9
:105DF000580E0840A071980E0840E0710F20054031
:105E000025720E2556003540DB0F2B436372D308F5
:105E10001840D3091940120CA072E1720020A2812F
:105E200076BDC0468D5A00000040800002408000D0
:105E30000440800006408000F0B503008FB01720BA
:105E4000002B7DD03F4F404D3A682E6802925A7821
:105E50001C7803929A7829000492DA781238059215
:105E60001A7906925A7907929A790892DA79099200
:105E70001A7A0A925A7A01929A7A0B92DA7A0C92E8
:105E80009B8900220D93314B9847002858D102007E
:105E9000290044302D4B9847002851D107229643C2
:105EA00033007021144023438B431C00039B1E01CD
:105EB0000E40FC21264B34431C40049B89011B02ED
:105EC0000B401C43234B1C40059B99030C43224B66
:105ED00006992340C9030B4320490B400899490602
:105EE0000B431F490B40099989060B431D490B4081
:105EF0000A99C9060B4301995B00C9075B080B436C
:105F00002B600299184B19400B00079909020B43AB
:105F10009343019A290052081343782293430B9A22
:105F2000D2001343802293430C9AD20113430D9A5B
:105F30009BB2120413433B600200044B06309847A7
:105F40000FB0F0BD04408000004080002D5B0000D9
:105F5000FFC0FFFFFFBFFFFFFF7FFEFFFFFFFFFD53
:105F6000FFFFFFFBFFFFFF87FFFEFFFF094A10B5A2
:105F70001388FF21181880B2040053880C40C318FE
:105F80009BB21940000A1B0A2018CB1810805380BE
:105F900010BDC0460010002070B505000F4EB04780
:105FA0000F4CFF21A388E2885B199BB218009A1856
:105FB00092B208401B0A1140120AC3188A18A38023
:105FC000E280AA2D07D1237A013BDBB22372002B9A
:105FD00003D15520B0470223237270BD69620000CF
:105FE000001000200022024B5A729A727047C0467D
:105FF0000010002070B5364903004A7A0C00022ACE
:106000000AD100224A72AA2802D1A93B8B725DE014
:1060100055285BD000234EE00132AA2800D0002290
:10602000A07A62720138052850D803F049F9030EAE
:106030001A2A2E460022E37222731800FF32254BE3
:10604000228062809847022335E00F25A3731D400C
:106050001800204B657398470323002D2BD1042390
:1060600029E0227B1800511C217321000F318B5431
:10607000184B9847637B013BDBB26373002BEED078
:1060800024E01B02E383052315E0E28B2188134300
:10609000FF250A00090A2A4050182A006188E38374
:1060A0000A40090A521862801202024392B220800A
:1060B0009342AFD10623A37208E0552BAAD120004A
:1060C000E27AA17B0F30044B9847A3E770BDC0462E
:1060D000001000206D5F0000BD610000F7B50500F5
:1060E0000E00009272B6BFF35F8F0023214C237025
:1060F000214B9847019420283AD902231F4C204F66
:106100002372AA20FD33A380E380B847AA20B847B2
:10611000AA20B84728001B4DA8470098A8470F237E
:10612000009A1A40B3180093009BB34203D0307812
:10613000A8470136F8E7A288FF211300120A0B4096
:1061400098180B00E288A0801340120A9B18E38085
:106150001B0203431CB2A0B2000AA847E0B2A84742
:106160005520B8470123019A1370BFF35F8F62B6C1
:10617000F7BDC046E6000020996200000010002034
:1061800069620000995F00000F231840704700000B
:1061900013B5074B9847002809D06B46DC1D012139
:1061A0002000044B98472078034B9847F1E713BD34
:1061B0009D64000009640000F55F00000300901E6C
:1061C00010B50C283AD803F07BF8070C11161B39D0
:1061D0003920252A2F3934000A0002201900184BD3
:1061E0002BE00A0003201900164B26E00A000420C9
:1061F0001900154B21E00A0005201900134B1CE083
:106200000A0006201900124B17E00A0009201900A5
:10621000104B12E00A000A2019000F4B0DE00A0093
:106220000B2019000D4B08E00A000C2019000C4B44
:1062300003E00E200A0019000A4B984710BDC04623
:10624000D1680000E968000011690000456900009C
:10625000DD680000316A0000616A0000756A0000B4
:10626000D5690000B96A000013B56B46DC1DD87112
:10627000064B9847002807D001212000044B98477F
:10628000044B98470028FBD013BDC046CD880000C2
:10629000A96300007164000010B5014B984710BD60
:1062A0007164000010B5024B9847024B984710BD2F
:1062B000E9620000E55F0000C37902799A420CD0E0
:1062C0000133C37143795A1C42710268D154427937
:1062D00003799A4201D100234371C379027A9A4229
:1062E00000D20372704700000B4B002219000C31E2
:1062F000196018004621603019711900DA719A711D
:106300005A711A72586528235431CA718A714A71B8
:106310000B710A727047C0462810002010B5104B50
:106320000120DA79002A19D09979013ADA714A1CE8
:10633000D2B218689A71445C1979914201D1002255
:106340009A71084B9847002803D1074B98470220C1
:1063500004E02000054B9847002000E0404210BDBB
:1063600028100020A9310000F52E00002532000081
:1063700010B5094CA047002801D101380AE0A04718
:10638000002807D0054B9847C1B20548054B54304B
:106390009847F4E710BDC046993000003531000041
:1063A00028100020B9620000F7B503000C0000259A
:1063B000002C1FD072B6BFF35F8F00260E4F0F4820
:1063C0003E70C179027991420DD05A1C19780C4B5C
:1063D0000192013C984701350A4B30009847E4B2DE
:1063E000EDB2019B00E0340001223A70BFF35F8FF1
:1063F00062B6DDE72800FEBDE60000202810002080
:10640000B96200001D630000F7B504000020164EBD
:10641000002928D072B6BFF35F8F0022134B1A7089
:1064200033005433DA79002A15D0671C01979F791D
:10643000013ADA717A1C756DD2B29A71EF5D1D79ED
:10644000954201D100229A71013901302770C9B2F9
:10645000C0B2019C00E011000122044B1A70BFF38E
:106460005F8F62B6D4E7FEBD28100020E600002052
:1064700072B6BFF35F8F0023064A074913700B798A
:10648000C879181A0123C0B21370BFF35F8F62B6C8
:106490007047C046E60000202810002072B6BFF307
:1064A0005F8F0023054A1370054B5433D8790123BD
:1064B0001370BFF35F8F62B67047C046E6000020DE
:1064C00028100020FEE70000F8B504000E4D4C43F4
:1064D0002B880600E4188023A4B20F001B029C4204
:1064E00004D9272209490120094B98473000390077
:1064F000084B9847061E04D12C2204490120044B66
:10650000984730002C80F8BDB810002010F700002C
:10651000C564000039AF000010B50121014B984758
:1065200010BDC046C964000010B5014B984710BDAE
:1065300019650000F7B56B46DD1D03682A7001334D
:106540009A18C36804000E009A4204D92F221049F9
:106550001720104B984720692900036801225F68C3
:106560002368B8472069236801682A784F68013397
:106570003100B847206903689B6898472079431C1D
:10658000237123685A1C2B78D3182360FEBDC046A4
:106590005CF70000C564000010B5836801795A1CDF
:1065A000036988B000930139C9B2C368034C03A8DA
:1065B000A04703A8024B984708B010BDB16800007F
:1065C0005D68000070B504000069211D03680122A8
:1065D0001D68A368A8472079FF2800D1002070BD5E
:1065E00070B50400002020712000A160E2602361EA
:1065F000013114300D4DA847A368E268934204D3DB
:106600001C220B4917200B4B984720000A4B984738
:106610002071002803D1A3680133236003E0200028
:10662000064B98472060200070BDC04615680000EA
:106630005CF70000C5640000C565000099650000B6
:1066400070B5037906000C008B4204D84E220C4929
:1066500017200C4B98473500337D1435002B09D09B
:10666000737D9C420AD001339C4203D12800064B23
:10667000984703E021002800044B9847280070BD8C
:106680005CF70000C5640000416800007D68000000
:10669000F7B5084C170005000E000193A047019ABA
:1066A0008378310013702800A0473900024B9847C7
:1066B000F7BDC046416600006768000070B5040081
:1066C0000069211D036801225D68A368A84720694D
:1066D00003689B68984770BD037910B50400002BD0
:1066E00006D000230371034B9847A368013323604E
:1066F00010BDC046BD660000054B10B51B68002BE1
:1067000004D1752203490520034B984710BDC046AC
:10671000BC1000205CF70000C564000010B5024BFF
:106720009847024B186810BDF9660000BC100020A5
:1067300010B5034B9847034B1B68187910BDC04632
:10674000F9660000BC10002070B50D000400044B79
:106750009847044B2A0021001868034B984770BDE6
:10676000F9660000BC1000203565000010B5034B31
:106770009847034B1868034B984710BDF966000013
:10678000BC100020D966000070B50D001600040092
:10679000044B9847044833002A0021000068034C4A
:1067A000A04770BDF9660000BC1000209166000093
:1067B00010B5034B9847034B1868034B984710BD1F
:1067C000F9660000BC100020BD660000F7B50C4B58
:1067D00017001A68050001911E00002A04D09C22AF
:1067E00008490620084B9847084B28209847040082
:1067F0003B002900019A064DA8473460F7BDC0460A
:10680000BC1000205CF70000C56400002965000092
:10681000E165000010B5002481600470C26003616E
:1068200010BD70B504000069A11C036801221D6839
:106830006368A847A378FF2B01D10023237070BDA4
:10684000436810B55A1C8378D318436043780133EA
:106850004370014B984710BD2368000043685A1CE1
:106860008378D0187047020010B500695368046837
:1068700001339BB292782468A04710BD002370B505
:10688000437083680400436001230D000370064BCE
:1068900098476378AB4205D22378002B02D02000C2
:1068A000024BF5E770BDC046236800004168000058
:1068B00010B504000020E360029B207023612000DB
:1068C000A260024B9847200010BDC0467D680000C2
:1068D00010B5014B984710BDDD60000010B5014BAD
:1068E000984710BDC56A000010B5074C012A04D9AD
:1068F0000800064B9847208001E0002323800023F6
:10690000A3700133E37010BDC0100020B5830000F8
:10691000F8B5094C0F00E378002B0CD01000074BA2
:1069200098470600A578201D401932003900044B15
:1069300075199847A570F8BDC01000208961000046
:10694000D9B5000010B51C4B9AB0DA78002A03D0F4
:1069500099781A88914205D0184B98470022164B17
:10696000DA7026E00022DA70154B03A8196801914D
:106970001449186099801A72DA80134B9847041EE4
:106980000AD10D48114B0178043098470C4B0D4A41
:106990009A801C72DC8001E0094B9B88084B019AAD
:1069A0001A609A88074B9A4201D0044B00E0084BCA
:1069B00098471AB010BDC046C0100020FD6A000004
:1069C000E41500205A5A00000DB700004967000086
:1069D000E56A00000C4B10B5DB78002B01D00B4BA7
:1069E00010E00B4B98470B4B98470B4B98470B4CC1
:1069F000A0470B4B9847A0470A4B9847A0470A4B24
:106A000098470A4B984710BDC0100020FD6A00004F
:106A1000557A0000297A0000B16700002D88000037
:106A20002984000055870000E1860000E56A000027
:106A300010B5002A0BD00878012A08D94B785D28B8
:106A400005D1922B03D1034B9847034B00E0034B36
:106A5000984710BD6D670000E56A0000FD6A000000
:106A600010B5024B9847024B984710BD3D8300007C
:106A7000116B000070B50024032A03D90800084BED
:106A800098470400074B9847074B9847074DA8477E
:106A9000074B9847A8472100064B984770BDC04652
:106AA000A9830000557A0000297A00002D88000093
:106AB000558700002D87000010B5014B984710BD89
:106AC0000D6C000007B5054B9847437801A90B7082
:106AD00001222620024B984707BDC046AD7D00002D
:106AE000DD600000002307B501A90B700122F02032
:106AF000014B984707BDC046DD60000007B5012285
:106B000001A9F020014B0A70984707BDDD60000025
:106B100007B5044B01A99847042201A92920024B7B
:106B2000984707BD79830000DD60000007B5054B7D
:106B300000B201A99847022201A93020024B9847D0
:106B400007BDC04689830000DD60000010B50A0063
:106B5000024B01003120984710BDC046DD600000A7
:106B600007B5034B002201A93220984707BDC04654
:106B7000DD60000070B50B4B050008000C00984765
:106B8000002C0CD0084B0E2C06D928000F210F3CEE
:106B90009847A4B20F35F3E7E1B228009847034BBA
:106BA000984770BD2D6B00004D6B0000616B0000BD
:106BB00010B5044B04009847034B81B2200098475E
:106BC00010BDC04641B70000756B00000FB430B572
:106BD000A3B026AC20CC094B984722002900019491
:106BE00002A8074B984702A8064B9847064B9847C0
:106BF00023B030BC08BC04B01847C046C5590000DB
:106C0000D9B70000B16B0000F559000007B5054B7E
:106C100001A901209847042201A93320024B98477B
:106C200007BDC04679830000DD60000010B5034B4E
:106C3000984740790130C0B210BDC0469977000036
:106C400003001A680020013204D158680130424222
:106C50004241D0B2704703000122F0331A70012381
:106C6000FC305B4203640023C363704703000022CF
:106C7000012110B5F0331A7004304942014B984796
:106C800010BDC046F17500000300FC331B6C10B54D
:106C90005A1C01D1180005E001003D30DC31FF3005
:106CA000014B984710BDC0469D7B000003000121A9
:106CB00070B500250400FC334942DD6319640430DB
:106CC000054B984722002300F1321278F033FF344D
:106CD0001A70A57370BDC046F1750000F8B50024A8
:106CE00007000D000C61104EB0474378A3421AD93B
:106CF000B0470E4B2100984783790600012B0FD136
:106D00008368BB420CD12B69032B04D92322084989
:106D10000420084B98472B699A00013356512B6188
:106D20000134E4B2DFE7F8BDAD7D00005D7D000019
:106D3000A8F70000C564000037B50F4D0400A84750
:106D4000037A002B15D0A8472300FF33597B027A22
:106D500091420ED15B7A002B08D0A8472100C3686E
:106D6000F831019301A8054B984704E0A847C06893
:106D700001E0012040423EBDCD8300009D7B00002C
:106D800037B50F4D0400A8470378002B15D0A8474E
:106D90002300FF33597B027891420ED15B7A002B9E
:106DA00008D0A84721004368F831019301A8054B9A
:106DB000984704E0A847406801E0012040423EBDFA
:106DC000CD8300009D7B00000300F0B50400F43388
:106DD0001B688BB00791FC345A1C06D00121236438
:106DE000043049425C4B9847B3E00300FF335D7BBE
:106DF000002D04D00799594B98472064A9E0DC3056
:106E0000574B06009847574B984201D1079B9FE08C
:106E10003000554B9847061E09D1544B07A8984798
:106E2000012301000296019600961A008CE00128C9
:106E30000DD14E4B07A898474D4B070007A8984720
:106E40000295020001950095330039007CE002288C
:106E50000FD1484B07A8079D9847474B060007A846
:106E600098470379454A013B5343ED1AAD1B25640E
:106E70006FE003280FD13D4B07A898473C4B060015
:106E800007A898473C4B070007A89847C378029586
:106E90000195009556E0042816D1344B07A8984771
:106EA000334B059007A89847334E070007A8B04713
:106EB000C37807A80493B0470295019583783A00F8
:106EC00000930599049B3FE005281BD1274B07A899
:106ED0009847274B069007A89847274E070007A812
:106EE000B047C37807A80593B047837807A80493F1
:106EF000B047029543783A000193049B06990093AA
:106F0000059B21E0062881D1184B07A89847184B0C
:106F1000060007A89847184D070007A8A847C37898
:106F200007A80693A847837807A80593A84743783E
:106F300007A80493A84703780293049B0193059B39
:106F40000093069B3A00310009A80D4DA847099B04
:106F500023640BB0F0BDC046F1750000816D0000E8
:106F60008D7B000040420F00417C0000A5770000AF
:106F70002D6C0000F5780000997700008051010029
:106F80004D770000F8B5070005000400C837200061
:106F9000054EB047200028341430B047BC42F6D12B
:106FA000002328002360F8BDC17A000001000122FF
:106FB0000300283152421A605A6008338B42FAD1DA
:106FC0000023836270470000F0B50700061D9BB0E8
:106FD000774B30000091140098473800754B103003
:106FE00098473800744BDC30984701253B00380047
:106FF0006D42F4331D60F8306F4B98473800113004
:107000006E4BFF3098473B00FC331D645D64009B72
:107010001B783B60002C04D1442269490420694B51
:107020009847009B5B785A1E93413A00F1321370E7
:10703000012C04D8482262490420624B9847009BE7
:107040003000991C604B9847062C04D84E225C49AE
:1070500004205C4B984704ABDD1D009B2A00D91D22
:1070600010A85A4B98473800594B112210A9DC3010
:1070700098472D78A3B2EE1D01939E4204D9532266
:107080004F4904204F4B9847009B08359B5D0026D5
:10709000039304ABDC1D009B5919039B9E4237D020
:1070A0004C4B220006A898472378ED18019BADB2FF
:1070B000AB4204D2602242490420424B9847444BE1
:1070C000282206A910A898473B00D8331B68042B38
:1070D00004D923223A4904203A4B98473800282201
:1070E000D830036802905A43BA189C46103210AB4D
:1070F00013CB13C2140007CB07C407CB07C46146E8
:107100001B6801312360029B01361960F6B2C0E7AB
:107110004A788B7812021B04D318009A505D04350C
:107120001A183800CB78F4301B069B180360019BBB
:10713000ADB2AB4204D26D2221490420214B9847C5
:10714000009B2200591906A8204B98473800204B75
:10715000112206A9F83098472378ED18019BADB2AB
:10716000AB4204D2722216490420164B9847009B6A
:107170005A5D3B00FF335A730135019BADB2AB4200
:1071800005D277220E4904200E4B984702E0019B5E
:10719000AB4204D07A220A490E200A4B98473A00A3
:1071A0003B003800F1321278F0331A701BB0F0BD9A
:1071B000BD760000856F0000C17A0000AD6F000051
:1071C000A8F70000C564000019760000517B00009C
:1071D000D9B50000657C0000130010B50A0001005D
:1071E0001800014B984710BDC96F00000300C83359
:1071F0001B6870B505000C1E9C4201D2042904D9FD
:10720000482204491720044B984728206043281837
:1072100070BDC046A8F70000C5640000F0B50700C7
:1072200000240600FC3785B0FC633300D8331B68AC
:107230009C4224D230002100124B10309847350078
:107240000100114B3A6C02A89847029B113500933C
:10725000039BFF350193AB6A042B04D923220B490E
:1072600004200B4B9847AB6A0099DA00AA1811600A
:107270000199013301345160E4B2AB62D5E705B046
:10728000F0BDC046ED710000CD7C0000A8F7000005
:10729000C5640000F8B50600FC36336C04000D0030
:1072A000013308D1214B9847336C01333CD0200087
:1072B0001F4B984738E00300FF335B7B002B0DD05A
:1072C000716C1C4FB847854205D33064431C02D013
:1072D00001002000F6E72000154B9847164B2000D0
:1072E00098472300F4331B685A1C06D09D4204D2F1
:1072F000201D2900114B984716E0336C9D4206D2A1
:10730000B8220F49520017200E4B98470CE08542D7
:107310000AD33064200021003D30DC31FF300A4BBD
:1073200098478542F5D2C2E7F8BDC046C96D000056
:107330001D720000396D0000896C0000F1750000BD
:10734000A8F70000C56400009D7B0000836A70B54B
:1073500005000C1E9C4201D2042904D9482203498D
:107360001720034B9847E000281870BDA8F70000CD
:10737000C56400000123F0B504000F0000255B4246
:1073800003604360124B85B001933B00FC33DB6B21
:107390009D421AD23800113029000E4BFF30984719
:1073A000390003684131039306000B4BFF3103A8FA
:1073B0009847019B834205DD002803DD230006CEAC
:1073C00006C301900135EDB2DFE7200005B0F0BD46
:1073D000FFFFFF7F4D730000E5780000F8B5040063
:1073E0000E0000253700FC37FB6B9D4210D23000A9
:1073F00011300C4B2900FF3098477B6C0268934298
:107400000BD34268934208D2230006C806C307E0A4
:1074100001235B422360636002E00135EDB2E1E7E6
:107420002000F8BD4D7300007FB50300D8331B6802
:107430000400002B02D10120404220E00100114B4A
:10744000684698476846104EB047104D002804D152
:107450002000A847030001980BE002A821000C4B74
:10746000984702A8B047002807D12000A84703008A
:107470000298984203D9180001E02000A84704B000
:1074800070BDC046DD730000416C0000896C0000D7
:107490007573000070B50500084B98472B00FF334B
:1074A0005B7B0400002B07D02B00FC33596C2800B9
:1074B000034B9847431C00D1200070BD2974000085
:1074C000396D0000F8B5134B04000E0000259847F5
:1074D0002700FC37FB6B9D420FD2200011300E4B72
:1074E0002900FF30984703689E420FD343689E42AD
:1074F0000CD2201D3100094B02E03100084B201D49
:1075000098470123FF347E64A373F8BD0135EDB2C3
:10751000DEE7C046957200004D730000C97500009B
:10752000F17500000300F0331B7870B504000D0006
:10753000002B0AD00300FF339B7B002B05D1034BAC
:10754000984729002000024B984770BD55750000F0
:10755000C574000070B5002486B001AD0E000F4B5D
:1075600029002C619847059B9C4214D2032C0CD80F
:10757000A300E8580300FF339B7B002B02D13100AE
:10758000074B98470134E4B2EDE74822054917203C
:10759000054B9847ECE706B070BDC046DD6C0000B7
:1075A00025750000A8F70000C564000070B50D0047
:1075B0000400034B984729002000024B984770BDF8
:1075C00055750000C5740000437A10B5002B09D032
:1075D00000234372037A012B02D1034B984701E049
:1075E000024B984710BDC046F5760000C9760000F2
:1075F000437A10B5012B09D001234372037A012B82
:1076000002D1034B984701E0024B984710BDC0469A
:10761000C9760000F5760000F7B5002606704670C2
:1076200046600B780F00009304001D4B481C9847E0
:10763000FB7801903500B34208D00135AB4205D04C
:10764000452218490E20184B984735003B79002BEE
:1076500001D0012B01D1237204E0492211490E20EF
:10766000114B9847009B002B04D1104B9847019970
:107670000F4B06E0009B012B0BD10E4B9847019955
:107680000D4B98476B461B7825706570A370606042
:1076900004E0502203490E20034B98472000FEBD12
:1076A000C183000002F80000C5640000557A0000A4
:1076B000FD790000AD7D00005D7D000000230370BA
:1076C0004370436070470000002210B50300427011
:1076D0004068904208D09B78934201D1034B02E06E
:1076E000012B01D1024B984710BDC0463D790000E7
:1076F0006D6C0000012370B50400437040680D00FC
:10770000002811D0A378002B02D1084B98470BE03A
:10771000012B09D1064B9847A3780020012B00D1FB
:1077200060682900034B984770BDC046617900002E
:10773000576C0000AD75000010B5034B0400080045
:107740009847206010BDC046B9910000F0B5040014
:1077500085B00AA805780BA806780CA8077801A8B8
:10776000C370074B013AC9180770467085704271A3
:10777000C180044B010020009847200005B0F0BDF7
:1077800094F8FFFF3977000010B50400014B9847CB
:10779000200010BD3977000010B5014B984710BD8F
:1077A000F18F000010B5034B9847034BC088C018F9
:1077B00080B210BDF18F00006C07000070B5054B62
:1077C0000D0004009847044B057001002000984705
:1077D00070BDC046F18F00003977000070B5054BD1
:1077E0000D0004009847044B4570010020009847A5
:1077F00070BDC046F18F00003977000070B5054BB1
:107800000D0004009847044BC57001002000984704
:1078100070BDC046F18F0000397700000368C818BA
:1078200070473C2359430368C8187047E1231B0184
:1078300059430368C8187047024B59430368C81876
:107840007047C04680510100EC23EB2902DC00297F
:1078500002DC0023C38000E0C1807047024B594323
:107860000368C8187047C046803A090037B50D4B09
:107870000D00984704000C4B28000C219847E18824
:107880000A4B081801B2200098472800084B0C2129
:107890009847637901A8C9186171064B2100984780
:1078A00001983EBDF18F0000E99300004978000087
:1078B000B59500003977000037B5074B0C009847A5
:1078C0000500C188054B0C1921B29847290001A871
:1078D000034B984701983EBDF18F000049780000A6
:1078E0003977000010B509680068014B984710BD52
:1078F000ED8F000010B5084B98470221E123415657
:107900001B01594301233C22C3560078534340B224
:10791000CB18181810BDC046F18F000010B5014BF0
:10792000984710BD0990000010B5024B9847024BD4
:10793000984710BDF18F00002591000010B5054B50
:107940000400806898470023216823710248034B94
:10795000984710BDB12500005EF80000CD6B000017
:1079600010B5054B040080689847012321682371F6
:107970000248034B984710BD8D2500006AF80000AF
:10798000CD6B000010B5002903D0012903D1024BB3
:1079900000E0024B984710BD617900003D7900007E
:1079A000F7B50C2401706143060000930800104BEA
:1079B000170098470025706001943378AB4215D9C1
:1079C000019C73686C431C19002C0CD0009AAB000E
:1079D0009858084BA0602560277167719847390057
:1079E0002000054B98470135EDB2E6E73000FEBDBB
:1079F00071B00000E52500008579000070B5050034
:107A00000C1E02DB0378994204DB24220449172070
:107A1000044B98470C20010061436868401870BD12
:107A200075F80000C564000070B5050000242B78CF
:107A3000A34209D92100054B280098470134417918
:107A4000034B9847E4B2F2E770BDC046FD790000F1
:107A500085790000064B10B51A681C00002A04D175
:107A60003B3204490320044B9847206810BDC046B0
:107A70009411002075F80000C5640000F8B50500F9
:107A80000E001700042804D9402208490920084B99
:107A90009847084B0820984704003B003200290013
:107AA000054DA847054B1C60F8BDC04675F80000A1
:107AB000C564000029650000A17900009411002030
:107AC0000023FF22436002700272C3600374704798
:107AD000F7B500231600FF22436002700272C360F4
