:10000000302A0020A10300009D0300009D03000092
:1000100000000000000000000000000000000000E0
:100020000000000000000000000000009D03000030
:1000300000000000000000009D0300009D03000080
:100040009D0300009D0300009D0300009D03000030
:10005000752900009D0300009D030000F5150000B8
:100060009D0300009D0300009D0300009D03000010
:100070009D03000000000000000000009D03000040
:100080009D0300009D0300009D0300009D030000F0
:100090009D03000000000000000000009D03000020
:1000A0009D0300009D0300009D0300009D030000D0
:1000B0000000000010B5064C2378002B07D1054B3B
:1000C000002B02D0044800E000BF0123237010BDC4
:1000D00064090020000000006CC10000084B10B54E
:1000E000002B03D00749084800E000BF0748036819
:1000F000002B00D110BD064B002BFBD09847F9E731
:1001000000000000680900206CC100006CC1000004
:1001100000000000704700008022642330B5920385
:100120008FB0059201220193154B01AC029300237D
:100130005242A2820A326A44D3770CAA1370312247
:100140006A44137032226A44039323760B9313702C
:10015000D7332386FA239B00E3820A4B0C200893B3
:10016000094B099303232373084B9847220008493E
:10017000084B05009847084B1D600FB030BDC046C6
:10018000480D00000200100002001100ED430000C5
:10019000000C0042115300008009002070B50122BC
:1001A0000024184B1A711C705C709C70DC70164B2C
:1001B0009847164B9847164B9847164B9847164B3F
:1001C0009847164E164B351D280098472800154BAA
:1001D0009847154B2020984705002100134B98475E
:1001E0002A00A9882000124BF5619847114B9847C7
:1001F00011493068114B9847114B9847114B98475C
:1002000070BDC04690150020D12A0000D1380000F2
:10021000A906000051270000454100008009002088
:10022000B504000081040000ED430000A951000066
:10023000A54500001901000015010000A14D0000B6
:10024000794D0000354D000010B5034B984700284C
:1002500001D0024B984710BDED4E00004140000018
:10026000012230B5384BB5B01A70BFF35F8F62B65C
:10027000364B06A81A680392354A18609A80002205
:100280001A72DA80334B9847041E07D1324B9847D5
:100290002E4B2F4A9A801C72DC800CE02B4B9A88E4
:1002A00092B20092DA8804AB92B2DA80DA8892B223
:1002B000DA802A4B01930021244B039A2448CA5028
:1002C0009A8892B2824211D00A2504AB06331B8869
:1002D000234C9BB2019A00992248A0472C00013C74
:1002E000214BE4B29847002CF9D1EEE71868029050
:1002F0001DA818609A801972D980164B984700285B
:1003000002D11A4B9847FCE70020104B9A88D988F5
:1003100092B20092114A89B2019204AAD180D18886
:1003200089B2D180029AC2509A88094B9A4209D068
:1003300004AB06331B88019A9BB200990C48084C09
:10034000A047F5E735B030BDE60000209815002045
:100350005A5A0000E97B00009D010000A015002012
:100360002149000048BB0000414000004902000054
:100370006EBB00001B22002310B5064842711A3ADA
:10038000037183718361C37143720272024B043043
:10039000984710BD80090020A5040000FEE700007A
:1003A0002148224970B5884202D00023204C03E046
:1003B000204B214A002106E0CA18A242F8D2C558B3
:1003C00004331560F8E7934201D202C3FBE7FF2133
:1003D00002240325194B1A4A8B430C2693600822EA
:1003E000184B19495C62CB78AB432343CB70CB7875
:1003F000B3431343CB703021144B987B884310399F
:1004000008439873997BB1431143997380219A7B78
:10041000AA4322439A730E4A53680B4353600D4B11
:1004200098470D4B9847FEE76CC100000000002084
:10043000640900206409002030160020000000003C
:1004400000ED00E0FC700041005000410048004118
:1004500000400041DD7400006102000041784B095A
:10046000CA0908D11F3211401E3A8A400349DB01F4
:100470005B189A61704700239B61FFDE00440041D6
:1004800041784B09CA0908D11F3211401E3A8A40EF
:100490000349DB015B185A61704700235B61FFDE93
:1004A0000044004110B5C11C014B4078984710BD75
:1004B00055380000C37810B5012B03D00123C37059
:1004C000014B984710BDC046A5040000C37810B585
:1004D000002B03D00023C370014B984710BDC046CA
:1004E000A504000070B5050008350400064B28007F
:1004F00098470123607823740433E3742900A060D3
:10050000024B984770BDC046492A00005D2A000092
:10051000436970B504000D00002B04D063220B4921
:1005200006200B4B98476561617800222800094B33
:1005300098471D2804D1672204491738044B98476F
:1005400060780021044B984770BDC04693BB000003
:10055000654300000D2900002D29000010B5034B54
:1005600058887F231840024B984710BDF414002090
:100570000927000070B5154A1378002B01D100201F
:1005800023E053681B681C798442F8D99360DC78B7
:100590009D7824022C4300251C199C4211D95E78B9
:1005A000042E0AD19E78864207D1DE788E4204D18D
:1005B000002D00D09360012007E01D785B19012514
:1005C000EBE7002DDBD09360D9E770BDA8090020D0
:1005D000094B5B681968CA788B7812021A438A182B
:1005E0000378C018904205D24378042B02D0052B23
:1005F000F6D100E000207047A809002070B5104B2C
:1006000005009847002801D1002017E00D4EB4687E
:1006100020000D4B9847041E0AD04279037912023C
:100620001A43C178094B807898470028F0D1EBE74E
:100630007368AD005B68EB581B68984770BDC04697
:1006400075050000A8090020D105000079230000ED
:10065000F8B50021104D0400A847002801D100255D
:1006600017E00E4FA2007B685B68D658F368984786
:1006700001002000A847051EF1D0BC682000084BEF
:100680009847041E03D08078064B9847F6E77368B6
:1006900098472800F8BDC04675050000A80900204D
:1006A000D10500002523000010B5014B984710BD6F
:1006B0001D28000070B50A4C00252378002B03D1BB
:1006C00000232370A38170BD63681B681B79AB4254
:1006D000F6D92800034B01359847EDB2F4E7C04640
:1006E000A80900205106000070B50B4B00241A78B1
:1006F0001D00002A0ED06B681A681279A24209D92F
:100700005B68A200D3581B69002B00D098470134C6
:10071000E4B2F0E770BDC046A8090020F8B5002398
:100720009C4C2278A38150B223616361984203DA22
:10073000E388002B00D19EE16021114000D053E1FD
:100740001F23002800DBAEE0E588002D00D14BE13F
:10075000134070D16378062B0BD0082B63D0002B8D
:1007600000D041E1022D00D03EE18B4829000C3041
:100770005EE063881D0A022D0CD006D8012D00D042
:1007800032E1864B1868017844E0032D1FD00F2D0D
:1007900013D029E1814ADBB21168497C994200D823
:1007A00022E15268DB009858C17883780902194326
:1007B0007B4B9847A3685D702EE0784B98680028C3
:1007C00000D111E1C17883780902194322E0DBB23C
:1007D000012B0BD0002B05D0022B00D004E10F2100
:1007E000704D06E06F4804211C3013E009216D4D67
:1007F00010356C4A0023100020305E00EF5C861933
:1008000001337780DEB2B142F7D8490002310132BC
:10081000D17789B2624B9847E388A2899A4200D87F
:1008200005E1A38103E1012D00D0DDE029005A4854
:100830005B4B9847FBE0012B22D163780A2B00D059
:10084000D2E0012D00D0CFE0534D2B78002B00D10A
:10085000CAE06F6826793B681B79B34200D8C3E0D1
:100860003000514B9847002800D1BDE07B68B600AE
:10087000F358DB6898472874280001211030D7E727
:10088000022B00D0B0E06378002B00D0ACE0022D4A
:1008900000D0A9E0454B207998473F4B290058826A
:1008A00012331800C4E713404BD160780138082890
:1008B00000D999E004F07CFF0C98989805989898D6
:1008C0001A00E388002B00D08EE0394B2361AEE0A4
:1008D000E388002B00D087E06388012B00D083E001
:1008E00002212D4A93898B439381A0E0E588002D56
:1008F00000D079E02F4B9847002875D0274FA27879
:100900003B685B7C9A426FDC2B4B9847A378224E66
:100910003370002B00D18AE0284A9B187A68DB00EC
:10092000D318736073681B681B79AB4200D87EE0F4
:1009300000212800224B9847002855D00135EDB200
:10094000F0E7012B15D163780B2B4DD1E388002BF9
:100950004AD1114B1B78002B46D02679194B300019
:100960006588984700283FD0E9B23000144B98477B
:1009700038E0022B38D16378012B02D0032B25D02D
:1009800032E0E388002B2FD16388002B2CD1207913
:100990000D4B26E0F4140020A80900206800002078
:1009A00029270000000000207505000045240000F4
:1009B0005D05000019270000B5060000FFFFFF1FBE
:1009C000FD0500005106000061250000E388002BB2
:1009D0000AD16388002B07D12079284B98472079CA
:1009E000274B9847002822D11F2322781340012B40
:1009F0001FD1244B1A78002A3DD05E6825793368D0
:100A00001B79AB4237D9002128001F4FB847002877
:100A10000FD07368AA00D658F368984701002800E1
:100A2000B847002805D0B3689847002801D00120B6
:100A300022E01F2322781340022B1CD1114B0024EB
:100A40001A781D00002A16D06B681A681279A24223
:100A500011D95B68A200D658F36898470A4B010089
:100A600020009847002806D0B36898470028DED1B8
:100A70000134E4B2E8E70020F8BDC046C52200001A
:100A800059240000A80900207505000082B0EFF38A
:100A900010835A425341019372B6BFF35F8F002215
:100AA000024B1A70019802B07047C046E600002061
:100AB000024A1378013BDBB213707047C40900206F
:100AC000002070470020704710B50020014B984768
:100AD00010BDC046CD4E000010B5064C6378013BFA
:100AE000DBB263706078044BC0B298470023A370F8
:100AF00010BDC046C4090020C14E0000002805D02A
:100B00000122034B1A70BFF35F8F62B67047C04675
:100B1000E60000206022154B197848B20A400028F0
:100B20000EDA0020202A1FD15A78212A1CD1D98818
:100B3000072919D10E4A998104329A60013013E0D5
:100B40000020202A10D15A78202A03D0223A50427D
:100B5000504109E0D988072906D10120054A998129
:100B60001A61034A04329A607047C046F4140020A8
:100B7000C4090020C90A0000A12370B50F4C00254C
:100B80002374813B63741E3BE382E1235B02636059
:100B900008232800A3726582094BA582258325724C
:100BA00065722570A58198472800064B9847A84292
:100BB00003D023780133DBB2237070BDC409002059
:100BC000CD4E0000B54E0000F0B5334C85B0A37E8D
:100BD000002B5FD1314EB047A58B314B002800D0A0
:100BE000304B9847854255D02F4B9847A57F07003B
:100BF000EDB26B00E3181B8C002B13D1A38C0133D7
:100C0000A384B047002806D1A38C632B03D83800F7
:100C1000264B98473EE0B047002803D0A28C244BD7
:100C20009A42F4D90023A384E31DDB7F002B04D177
:100C30006B426B41DBB2A37702E06A425541EDB2F1
:100C400001233800A3766F00184B9847E3191A8CDC
:100C50001300413BFF3B591E8B41DBB20393A023A2
:100C60005B009A4207D0B0470E4B002800D10C4BD6
:100C70009847A08301E00023A383AA010D492D0218
:100C8000E719521928343B8CA2180091812003994E
:100C9000094CA04705B0F0BDC409002001230000A5
:100CA00005230000152300008D0A0000FD0A000046
:100CB0001F030000710D00009D25000010B5014BC1
:100CC000984710BDC90B000037B50A4C283421786D
:100CD00000290DD1084A9389158B9D4208D093892C
:100CE000064D1383064B103200930A23A847207049
:100CF00037BDC046440C0020C40900209D250000DB
:100D0000050D0000002110B57C24074B100028338E
:100D10001970064B9989A1439981198BA1431983B5
:100D2000034B984710BDC046440C0020C409002066
:100D3000C90C000070B50A4B05000C009847094B20
:100D4000002D03D099892143998102E09A89A24319
:100D50009A81054B98478320044B984770BDC04645
:100D60008D0A0000C4090020FD0A0000C90C000023
:100D700010B500280FD1084A937F5C4263415B00A5
:100D8000D3181884D31DD8779076002901D0034B4F
:100D90009847034B984710BDC4090020BD4100008F
:100DA000C90B000010B540210120014B984710BD30
:100DB000350D000070B5084B9847084B1A002C32CF
:100DC0005D8D12782E335200D35AADB29CB2044BD3
:100DD0009847601B70BDC0468D0A0000440C00207F
:100DE000FD0A000010B5034B9847431E9841C0B25E
:100DF00010BDC046B50D0000F0B51E4B85B098473C
:100E00001D4D29002A002C3132320C781678E4B2BC
:100E1000F6B20392002E07D12B002E331A00630086
:100E20006F8D9B5A9F4203D2144B984700201EE0BF
:100E300063426341DBB26E850B700123039A13702A
:100E40000E4B984730000E4B9847002802D03000D8
:100E50000C4B98470C4BA2010093A02324021419B9
:100E600034352A195B0001210220084CA04705B047
:100E7000F0BDC0468D0A0000440C0020FD0A0000B1
:100E8000E50D000011420000ED0E00009D25000060
:100E900070B50024114DEB1D6C70AC76DC77104BF7
:100EA000AC772C846C84AC8398470E4B1A0032329A
:100EB00014701A002C321470DC851C865C850A4B79
:100EC0009847A04208D06B780133DBB26B706B7827
:100ED000DBB2012B00D1AB7070BDC046C40900204D
:100EE000C90B0000440C0020F90D000037B50400C8
:100EF0001000002C1FD1104A13002C331B785D42C8
:100F00006B41DBB200290DD1343211009A011B0272
:100F1000D318CA18094B01210093A023084C5B0089
:100F2000A04708E010005B0089B22E30195232321F
:100F3000044B1470984737BD440C0020ED0E0000A0
:100F40009D250000F90D000010B50020014B9847C9
:100F500010BDC046E50D0000F0B51D4A0027937A8C
:100F600085B0093B59424B41DBB201930392194BC7
:100F70009847194E33002C33758D1C783300E4B23A
:100F800062002E33D35AADB29BB20293134B9847F3
:100F9000029B9D4205D3039B9878C0B20028E6D1FE
:100FA00014E03200A1012302CC1834321419605D20
:100FB00001350B4BADB2074375859847019B002B5C
:100FC00003D000233F020193D1E7380005B0F0BD04
:100FD000C40900208D0A0000440C0020FD0A000016
:100FE000F90D000010B50020014B984710BDC04618
:100FF000590F000070B5104B9847104A937FDBB231
:10100000590051180C8CA02149008C420ED1917EC0
:1010100000290BD1D51DE97FC9B2002906D10124D1
:10102000EC775C4263410C00DBB29377044B98474A
:10103000A0204000001B70BD8D0A0000C4090020E4
:10104000FD0A000010B5034B9847431E9841C0B2FB
:1010500010BDC046F50F000010B50020014B9847A9
:1010600010BDC04645100000F8B5164D0E00AC7A14
:10107000093C63425C41E4B20020134B98470028CE
:1010800004D1A878C0B20028F6D119E00F4B9847D8
:10109000AB7FDBB25A00AA18118C4F1C17849A013F
:1010A00094461A022F00130028376344FB185E543D
:1010B000074B9847002C02D036120024DCE70120B1
:1010C000F8BDC046C4090020451000008D0A00008C
:1010D000FD0A000010B50100014B0020984710BD2B
:1010E000691000000B002E339B0010B51A50AA2285
:1010F000044B52004900845ACB5A234383520020A8
:1011000010BDC046D4BB0000064B4900CB5AAB21F2
:10111000026849009383425A1A43425202680020EF
:1011200013837047D4BB0000054B4900CA5AAB215A
:101130004900435A93434352036800209A82704700
:10114000D4BB000010B58C00A4183434A4000419DA
:101150004018054959306360FF300E3104788B5CCC
:1011600023430370002010BDD4BB000010B5002441
:101170008B009B1834339B00C3185C604118054BEF
:101180005931FF310E339A5C0B78200093430B707A
:1011900010BDC046D4BB00000F23F0B50B40C418EF
:1011A000204E6134FF340E362778B55C3D43257000
:1011B000002A0FD10268002B03D113000322FF3352
:1011C0002DE05B01D31849B2FF330222002926DB50
:1011D000012224E0012A0FD10268002B03D1130061
:1011E0000C22FF331BE05B01D31849B2FF33082206
:1011F000002914DB042212E0022A05D102685B01F7
:10120000D318FF3310220AE0032A09D102685B01D8
:10121000D31849B2FF334022002900DB20229A7202
:101220000020F0BDD4BB00000F2370B50B40C418E4
:10123000204D6134FF340E35AE5C2578B543257002
:10124000002A0FD10268002B03D113000322FF33C1
:101250002DE05B01D31849B2FF330222002926DBBF
:10126000012224E0012A0FD10268002B03D11300D0
:101270000C22FF331BE05B01D31849B2FF33082275
:10128000002914DB042212E0022A05D102685B0166
:10129000D318FF3310220AE0032A09D102685B0148
:1012A000D31849B2FF334022002900DB20225A72B2
:1012B000002070BDD4BB0000002303704370837016
:1012C0000133C370704700000F23F0B505000A78A2
:1012D000C878134052B2042800D999E02C6804F071
:1012E00067FA03084A5E7B00002008335B01E05484
:1012F000AAE05E01A419FF3462781C20520700D0D6
:10130000A2E070226778174200D09DE05F3A6270D9
:101310002A6808335B01D218243050712A684B4880
:10132000D31880221A718B78002B09D0802583195D
:101330005C682D062C435C605A692A435A6108E0B8
:10134000821953685B005B08536053695B005B085C
:101350005361072285194C7868683D4E1440240774
:1013600030402043686049786B690A401207334077
:1013700013436B6163E058012418FF34002A07DA35
:10138000702667781C2037425ED16078503E12E0AC
:1013900066781C20760757D1607802262FE0580126
:1013A0002418FF34002A10DA702667781C20374290
:1013B0004AD16078403E3043607018002C68083095
:1013C000400120188024047122E066781C207607F2
:1013D0003AD16078032612E058012418FF34002A1D
:1013E00007DA702667781C2037422DD16078303EAE
:1013F000E1E766781C20760726D104266078304322
:10140000607018002C680830400120184024447196
:101410000720D20F5B009B180C4A1B01D3184C7895
:101420005D680B4A204000072A4002435A608878D2
:101430005A68002805D0802109060A435A60002016
:1014400002E0520052085A60F0BDC046CC110020A4
:10145000FFFFFF8F0F230B40026808335B0149B287
:10146000D218002905DA802111710268D3180222EE
:1014700004E0402151710268D3180122DA717047EB
:101480000F230B4049B200680833002904DA5A01DF
:1014900083189879800603E05B01C3189879C00629
:1014A000C00F70470F230B4049B200680833002972
:1014B00003DA5A018318202202E010225B01C318CC
:1014C0005A7170470F2330B50B4002685C01121946
:1014D000FF3249B2D579002911DA20210D4220D0FE
:1014E0005171026814194022FF34217A114218D038
:1014F0002272026808335B01D318022210E0102127
:101500000D420ED05171026814192022FF34217A45
:10151000114206D02272026808335B01D3180122FF
:101520001A7130BD70B50C00056808346401665D41
:101530001C207606760F13D00A484901411808008E
:101540000A614969084A9B040A40426141699A0C50
:101550008B0B9B0313434361802300202C19637181
:1015600070BDC046CC110020FF3F00F070B50C00EC
:10157000056808346401665D1C20760712D00A48AD
:1015800049010A509B04411848681A09074B2C1955
:10159000034013434B604B6800209B0B9B034B6045
:1015A0004023237170BDC046CC110020FF3F00F0E6
:1015B000094B0A4A196059680A40802189020A4386
:1015C0005A605A68920B92035A60402203680020C6
:1015D000FF335A717047C046CC110020FF3F00F026
:1015E0000221026813780B43137002689378022B70
:1015F000FCD07047F7B5D44C67683E683378DB0998
:1016000000D1C4E0338C002B00D1CBE1308CCF4B28
:1016100080B298474301F618009333000500032079
:10162000FF331E7AF6B2064243D001229446AA4006
:1016300021681872914362467B19AE331B78216092
:10164000134236D02B00257208333A685B019A5C4E
:10165000BF4B9207920F62450ED16A019B185A68E0
:101660009204920C62815A681201920CA2815A680B
:10167000920B92035A6014E06A019B185A68120197
:10168000920C628191B25A689204920CA2815868BD
:10169000B04A02405A60002903D15B689B049B0C4E
:1016A0006381AB1C1B01A849FB185B68083138003B
:1016B0009847042216420BD00123AB40216899437E
:1016C0006368216019682B0008335B01CB18DA715D
:1016D000082216421DD00123AB402168606899435F
:1016E0002160AB1801685B01CB18DA714319AE3386
:1016F0001B789B070DD5964B6A019F181F2321006D
:10170000FA892572134063722B01C31808319B6A52
:101710009847102216421DD00123AB402168606813
:1017200099432B002160083301685B01CB18DA7103
:101730004319AE331B785B070CD5854A6B012572C4
:10174000D3185B6800211B019B0C63812B01C3181C
:10175000DB6A98472022164200D196E10123AB4074
:101760002168606899432B002160083301685B01A0
:10177000CB18DA714319AE331B781B0700D484E110
:10178000210025722D01451908312B6B02E1358CA2
:10179000AAB29446002A2CD1AB2355325B00FF320B
:1017A000FB5ABA5A80276546B68B7F00B6B23340E3
:1017B0001A400092684B6A00D35A334202D06268E2
:1017C00012689383009A13420FD0062D04D1604B08
:1017D0001B891B093B4023612B00210062682E33CB
:1017E0009B0010319B58100098470135072DE1D11F
:1017F0004BE13D005935FF35624601211A41DCB20B
:101800000A4200D1C8E01A00083251017118C81DFF
:10181000009201902A78C879297AC0B211406022DA
:101820000140104219D05A01B6184022FF36307AD2
:10183000104203D03272C03A144304E02022307ABE
:10184000104202D03272404A94766022114200D196
:101850001BE11B01FB18E03398E01022104218D066
:101860001021019A11701021FA186132FF3212789A
:101870000A4200D109E136495A018A1852681B010F
:1018800031499204FB18920CDC338A821B681431B4
:101890007FE0032210422DD002205A01B618FF36F5
:1018A000357A05420DD0802530726D4226482C4392
:1018B0008476274CA218103252689204920CC2828D
:1018C00010E00125307A28420CD01F48357284760A
:1018D0001F4CA2185468A404A40C848252681201FC
:1018E000920C02838A0700D1CFE00D331B01FB1855
:1018F0005B684CE00C2210424ED008205D01761946
:10190000FF36327A024229D030720226104840193E
:10191000857E354202D0857EB54385768020404263
:1019200004430948009A8476386852018218D279B3
:10193000920700D5A9E00C22114200D1A5E01B01BD
:10194000FB18D83322E0C046000F0020ED5A0000FB
:10195000CC110020FF3F00F0D4BB00000420327AFD
:101960000242E8D03072022648484019857A354252
:1019700002D0857AB54385724548009A84763868E6
:1019800052018218D279D207D5D57EE01B68404932
:1019900014313800984778E001330135082B00D026
:1019A0002AE772E00423B58BADB21D4208D0B383A1
:1019B0003B00A5331B78DB0702D57B6838009847CE
:1019C00008231D420BD000226068226002689383C6
:1019D0000300A5331B789B0701D5836898474023F4
:1019E0001D4209D06068026893830300A5331B7809
:1019F000DB0601D54369984720231D4209D0606862
:101A0000026893830300A5331B781B0701D5036984
:101A1000984710231D4209D0606802689383030031
:101A2000A5331B785B0701D5C368984780231D4207
:101A30000BD0002260682260026893830300A53304
:101A40001B789B0601D58369984780235B001D4264
:101A50000BD0002260682260026893830300A533E4
:101A60001B785B0601D5C369984780239B001D4204
:101A70000BD0002260682260026893830300A533C4
:101A80001B787F2B01D9036A9847F7BDCC11002042
:101A9000000F002000220123027043708270C37087
:101AA00070470000F7B50023040020201700664AA5
:101AB0000D0018C22160654901AECA690243CA61BE
:101AC00001227370F3700633337031000838604BB5
:101AD000B270984706233100337019205C4B984749
:101AE0006A46BB786946137006205A4B98475A4B92
:101AF0000620984701222B7813432B70AB78DB0725
:101B0000FCD403211F20554AD3788B4301390B4362
:101B1000D370D3780A318B4304390B435049D370C7
:101B20000B685B0B0340834200D1052303402E8DDD
:101B30009A014C4B334013432B850B689B0C03409D
:101B40001F2B00D1023B1F202A8D034082431343E9
:101B50002B8507230A68D20D1A409A4200D103222E
:101B60001340298D1A03404B40480B4013432B85EB
:101B70007F2329783A780B40D201134301222B703E
:101B800079782B780A40042192008B4313432B7001
:101B90006862FB78012B04D12268083113898B43DA
:101BA00006E0002B05D10C2522681389AB430B43BB
:101BB00013818022002152002D4B984723000021E1
:101BC000221D243302C29A42FCD120000021A430FD
:101BD000196059609960D960103300229842F7D19A
:101BE00023002100A5330270AE311A7001331A7040
:101BF0001A7201339942FAD1220023000021B8322F
:101C0000D43302C29342FCD1200000215530FF3072
:101C1000196059609960D960103300229842F7D159
:101C2000AA235B00E2520233E252230061345933AB
:101C3000FF33FF341A701A7201339C42FAD18022AA
:101C40000C4B00201A60FEBD000F00200004004075
:101C50000531000031300000A92F00000050004184
:101C6000246080003FF8FFFFFF8FFFFFCC110020B2
:101C7000317B000000E100E082B0EFF310835A42B4
:101C80005341019372B6BFF35F8F0022024B1A706B
:101C9000019802B07047C046E60000200F230340C1
:101CA0005B00C0091818142302385843014B181858
:101CB0007047C046240F0020F0B58D7985B06AB218
:101CC0000E00534B2800002A45DA0F2798472F4073
:101CD0000197038A816802937688C3680400F61826
:101CE000C660877C8E421FD08D1B4A4BADB29D4291
:101CF00006D918000299484B9847464B5D1AADB279
:101D00000022BB0706D5454B02992800984789B2A7
:101D10004A424A4151000222A37C9343626819431C
:101D2000A17492192B0008E002233800184009D052
:101D30009F4300236268A77492190199384C39486F
:101D4000A04762E001239F432368A774002B5CD067
:101D50002A00310058E098470F232B400293038A52
:101D600004000193837C37885B0711D5C268436800
:101D70009446634403930199284B80689847029BDB
:101D80000A00581E284B8001C1180398274B98471A
:101D9000E368FA18A368E2609A4200D9E360B28867
:101DA000BA4227D1E668B34224D09D1B194FADB289
:101DB0000199BD4204D9184B380098477B1A03E0BB
:101DC000164B280098476B1A019A9BB21548184F7A
:101DD0009A420AD90422A37C1343A374029B5A1E7D
:101DE000114B9201D218019B01E06268921902998D
:101DF000B8470AE00122A37C9343A3742368002B15
:101E000003D02A000020E168984705B0F0BDC04625
:101E10009D1C0000FF1F0000A55A0000D1580000C3
:101E2000251500008C130020CC120020B57A00008C
:101E30006D150000052210B5064B074C78331A705B
:101E400020008021054B984700212000044B984733
:101E500010BDC046240F00208C130020A5140000E4
:101E6000C514000037B504001E4B98478023226834
:101E700001AD937228001C4B9847032329006B7017
:101E800020001A4B98471A4920001A4B98471A4DC0
:101E90001A4B022200212000A8470022184B1100F3
:101EA0002000A847174B012200212000A847164D0B
:101EB000022200212000A847002220001100A8478C
:101EC000012200212000A8472268104B11890B40F5
:101ED0008021C9000B43138100220D4B78331A7007
:101EE00037BDC046B5060000B9120000C912000097
:101EF0000C150020B11500004511000081200000E4
:101F000085240000511F000099110000FFF3FFFF1E
:101F1000240F00200322084B10B5084C78331A70A8
:101F200007492000074B98470023074A1900926889
:101F30002000064CA04710BD240F00208C13002069
:101F40000C150020B1150000F41400202515000028
:101F500010B589790C4B4AB27833002A08DA1B781D
:101F6000012B02D1094B98470DE0042B0BD107E060
:101F70001A78022A02D102321A7004E0032A02D12E
:101F80000348044B984710BD240F0020151F000084
:101F90008C130020A5140000F8B5204C204E27001B
:101FA0007A373988B5896D1AADB2002D1DD122005E
:101FB0007C321388CB189BB21380F2889A4204D0EB
:101FC00023007E331B78002B07D004237834237042
:101FD0001449154B154898471FE07369002B0CD026
:101FE0009847002809D03D80B5893F2D05D92300A9
:101FF00000227E331A70402503E0230001227E3345
:102000001A707A342388B2680021D21807482B004E
:10201000074EB0472388ED182580F8BD240F002017
:10202000F41400200C150020B11500008C130020C2
:102030002515000010B5024B9847024B984710BD7C
:10204000E9060000A94E00000122034B1A70BFF3FD
:102050005F8F62B67047C046E6000020074B9A8C3F
:10206000920605D4D021DA680A40D02AFBD103E0D9
:102070001022D9681142FCD07047C04600080040C9
:1020800070B52C4C0D00230078331B78002B08D042
:10209000294B1B69002B00D098472300002278337E
:1020A0001A702B88082B01D0244B30E0244D224E8F
:1020B0002B7833706B787370EB78AA781B02D31887
:1020C00073806B792A791B02D318B380EB79AA79D4
:1020D0001B02D318F3801B4B98470028E4D03378B9
:1020E0007F2B10D9230000217C33198023007A3301
:1020F00019800223783423702A003E331248134C8F
:10210000A047134B03E0F388002B02D1114B9847F3
:102110000EE0230000217C33198023007A331980DC
:102120000123783423702A003F330748074CA04727
:1021300070BDC046240F0020F4140020351E00009E
:102140000C1500201D0700008C1300206D150000E9
:10215000991F0000151F0000F0B585B003AD0422E3
:102160001A4B04001A49280098471A4B1A007F326C
:10217000127801930092A24225D0002C0ED02E5D41
:10218000154FBB5DFF2B00D1FEE7144B9847BB5D9D
:102190000133BB55002801D0114B9847009B002B01
:1021A0000ED0ED5C0C4E735D002B00D1FEE70B4BA7
:1021B0009847735D013B7355002801D0084B984741
:1021C000019B7F331C7005B0F0BDC046B57A00009E
:1021D000E6BB0000240F002090150020791C0000B1
:1021E0004920000070B50D000D4C06210D4E200059
:1021F000B04704212000B04702210B4B2000984734
:102200000A4B022098472B68002B01D0084B9847B7
:102210002B68002B01D1074B9847074B984770BD9F
:102220008C13002029110000091100005921000021
:10223000E74E0000E94E0000E54E000070B50C4B83
:1022400098470C4C0C4B0221200098470B4D042161
:102250002000A8470A4A0B4B062120009847062178
:102260002000A8470320084B9847084B984770BDAB
:102270005D2000008C1300202911000009110000CE
:10228000E5210000E5100000592100009D4E0000EE
:1022900010B5074C04212000064B9847022120006E
:1022A000054B98470120054B9847054B984710BDB3
:1022B0008C13002029110000091100005921000091
:1022C000914E000070B5040001000A4B0A4898477F
:1022D0000A4B200098470300827C0120024207D06D
:1022E0001D6882439A74002D02D02200D968A84745
:1022F00070BDC046551400008C1300209D1C0000CA
:1023000000207047024B1B68188A8004400D7047FC
:102310008C130020024B1B68188A80B27047C0469D
:102320008C130020F7B50400002701AD28000C4BEA
:10233000984720000B4B98470B4E290030000B4B61
:10234000EF702C7098470F213A0021403000084B65
:1023500098473A0030002100064B9847F7BDC04629
:10236000B9120000C52200008C130020C912000021
:102370006D11000029120000F7B5060001AC294BD1
:1023800020000F001500984726700023082D1ED945
:102390000123102D1BD90223202D18D90323402DF2
:1023A00015D90423802D12D980235B009D4201D8CA
:1023B000FB3B0CE080239B009D4202D8FB3BFF3B94
:1023C00005E0194B9D4201D900202AE007236370E4
:1023D0003000164B98470323390005821940012924
:1023E00001D1013B04E0022902D00329ECD10423EE
:1023F0000F4DE370210028000E4B9847041EE3D1D7
:102400000F210D4B0200314028000C4FB84722002D
:1024100031000B4C2800A047012231002800A047C2
:102420000120FEBDB9120000FF0300009D1C00004A
:102430008C130020C9120000B91C000045110000D7
:102440009911000010B50100014B0248984710BDDA
:10245000811400008C1300200F2310B503400400EA
:102460000020032B07D821000348044B9847200085
:10247000034B9847012010BD8C130020A5140000C9
:10248000C5220000F7B52D4C230078331B78012BB3
:1024900046D122002A4D7A320E881788AB89BA19A4
:1024A000934201DADE1BB6B2AB683200D819254977
:1024B000254BBF199847BBB22700224A7A373B8089
:1024C0000192402E06D126007C363288E988D21847
:1024D00091420FDCAB816B69002B09D09847002833
:1024E00006D10523783423700020184B984724E048
:1024F000174B18E0AA899A420BD16B69002BF0D0D8
:1025000098470028EDD032883B88D31833800023C9
:102510003B804023019A00210E4C0F48A0470CE05D
:10252000022B02D10D4B984707E0054B1B69002B8E
:1025300000D09847002378342370F7BD240F002083
:10254000F41400200C150020B57A00005924000076
:10255000151F00006D1500008C130020991F00004E
:102560000F2370B5034006000024032B0ED8084B40
:1025700098470500074B310007489847AB7C01346A
:10258000234203D0A343AB742B689847200070BD4F
:102590009D1C0000C51400008C130020F0B51D0028
:1025A0000F2385B003400700039102920193032B90
:1025B00001D900268EE0494B9847061EF9D1484BB9
:1025C000380098470400474B98470122A37C1342E8
:1025D00004D00028EDD0444B98477BE01343A3740C
:1025E000002801D0404B9847029B012163600023E3
:1025F0000220E3600A9BA5602360039B0B405A0006
:10260000A37C8343134304229343A3747BB2002B24
:1026100035DAA67C002D1AD0344FADB2BD4205D9B3
:10262000218A3800324B98477D1AADB20021B3079A
:1026300006D5304B218A2800984789B24B42594130
:102640000222A37C490093431943A17410E006427F
:1026500002D08643A6740BE08E43A6740A9B002B1F
:1026600004D000213A0008000A9B9847012631E077
:102670002B00029A0199204C2048A04722E0002D0F
:1026800024D0278A194EADB23900B54204D9184B6F
:1026900030009847731A03E0164B280098476B1ACE
:1026A0009BB21648164E029ABB4209D20422A37C62
:1026B0001343A374019B5A1E124B9201D2183B0084
:1026C0000199B04746424641F6B203E0A37C8B43F2
:1026D000A374C3E7300005B0F0BDC0464524000038
:1026E0009D1C0000791C000049200000FF1F000015
:1026F000A55A0000D1580000251500008C130020B9
:102700006D150000CC120020024B1A68802318437C
:10271000907270478C130020024B1B68987A400619
:10272000400E70478C130020014B986099817047D0
:10273000F4140020012010B5034B1A6813890343D9
:102740001381024B984710BD8C13002059210000C3
:10275000F8B501270320164B9847164C164E2268F1
:10276000042113892000BB431381144AB047144A43
:1027700000212000B0473900124A2000B047124A19
:1027800002212000B047114D04212000A84700215C
:102790002000A84739002000A84702212000A847B0
:1027A0000B4A06212000B04706212000A847F8BDAB
:1027B000592100008C130020E51000009122000038
:1027C00035200000651E00003D22000009110000B8
:1027D000E521000010B50B4B00210F2098470A4B54
:1027E0001A6A1C00130401D5084B00E0084B9847F7
:1027F000206A084B0004C00F98470021064B0F20A9
:10280000984710BD512900000044004151270000A5
:1028100035270000D94E00002D290000F0B5214BCE
:1028200087B09847012701901F4B02A898471F4C7B
:1028300002AB1A001E4920009F701E4B98472000D3
:102840001D4B98471D4B03AC984738001C4B9847CD
:1028500020001C4B98470F25002603233100E3720C
:102860002800194B66602672A772039598472100CD
:102870002800164B9847164C32002900154B2000B3
:102880009847154B310028009847144B1B6A1B04CE
:1028900000D5A047019B002B01D0114B984707B0F2
:1028A000F0BDC046791C0000951A00008C13002072
:1028B00000500041A51A0000E11500005D20000055
:1028C00059210000492A0000512900005D2A00001A
:1028D000D5270000E52800002D2900000044004114
:1028E0004920000010B51723002A0BD1064B8900A0
:1028F000CC58002C02D1C850230003E013008442BE
:1029000000D01D23180010BD5015002030B517232E
:10291000002A07D1044C89000D590133854201D1A9
:1029200013000A51180030BD50150020172300294C
:1029300009D11F2805D8163B8340044AD3600B00F9
:1029400001E0C960FFDE18007047C0460018004073
:102950001723002909D11F2805D8163B8340044AB4
:1029600093600B0001E08960FFDE18007047C046ED
:1029700000180040002370B501250B4C237023780C
:102980000F2B10D829009940084A1069084206D038
:102990001161074A9B009B58002B00D09847237871
:1029A00001332370EBE770BD4C1500200018004088
:1029B00050150020014B5878C0097047001800409E
:1029C000022110B5044A13780B431370034B984748
:1029D0000028FBD110BDC04600180040B5290000FA
:1029E00007B54021104A052093690B4393610023EA
:1029F00001A90B700D4B98470D4B052098470121FD
:102A00000C4A13780B4313700B4B98470028FBD1EB
:102A100002000A4B1A5004304028FBD11022084B08
:102A20001A60084B984707BD000400403130000091
:102A3000A92F000000180040B52900005015002003
:102A400000E100E0C129000000230122036043608F
:102A50008372023302724272C3727047F7B50D007F
:102A600000262B7901A94E70CE700B702B7A0400D2
:102A70008B702878134B984733001F2C00D8124BCB
:102A80000720A97A20408000EA7A002901D0082195
:102A90000A430F2787408240E108890059188E6950
:102AA000BE4332438A61697A0122002903D0A240E1
:102AB00059690A4303E0A240596991430A005A61E7
:102AC000F7BDC04605310000001800407047000007
:102AD00010B5054B9847054B9847054B9847054B54
:102AE0009847054B984710BDDD2C0000CD2A00000B
:102AF000CD2A0000E1290000CD2A00001023024960
:102B0000CA681A42FCD07047000800400222F8B59B
:102B10000026094D094C2B68094F13432B60A284F2
:102B2000B847AB68E3626B68A362A684B8472B68BA
:102B300030009BB2A384F8BDAC0F00200008004019
:102B4000FD2A000010B5082806D802F031FE07055E
:102B5000052626110A141E00002020E0104B1869DB
:102B60001DE0104B10481B6A9B059B0FD84016E0D8
:102B70000B4B586913E00223094C206818400ED013
:102B80000A4B984723680A4809E00A4B00201B7843
:102B90005B0704D5024BD86801E08020000210BD1D
:102BA000AC0F00200008004000127A00FD2A00004F
:102BB000006CDC025008004070B501218678057871
:102BC00042784020094C0A40236A92018343134310
:102BD00080223140C90193430B437D3A044915409B
:102BE0002D020B402B43236270BDC04600080040FD
:102BF000FFFCFFFF027A438992069B059B0D120C96
:102C00001A43194B30B55A60C279847981881443CC
:102C100042880A4341782243C90104780A431A6072
:102C2000042C0ED1027B018A92060A431500C28948
:102C30000E4912040A402A439A601A6814431C6021
:102C400010E0202C0ED1027B018A92060A43140068
:102C5000C289064912040A4022439A601A6804494C
:102C60000A431A6030BDC046AC0F00200000FF03CD
:102C70002404000010B5082806D802F099FD1305B9
:102C800005270D19071F2200172020E00221104AF6
:102C9000136A0B43136219E002210D4A93690B4337
:102CA000936113E002210A4A138A0B4313820DE059
:102CB0000221074A938A0B43938207E0054B98470A
:102CC00005E00221044A13780B431370002010BD65
:102CD000000800400D2B000044080040C2231E20C5
:102CE000F0B53C4ADB003C4993604B6800258343C8
:102CF0001A3803434B6002238DB007AC2370019256
:102D0000E8B22100354B01359847252DF8D1002335
:102D100020226380A371E3716370314B22701B68C2
:102D200007269B0E3F2B00D1203B23720A23002550
:102D30000127E3812B4B20006381FF3BA3802A4BBB
:102D400026732382294B984703A8294B8770457027
:102D500005709847274B062004AC9847264B9847A8
:102D6000210038002670254E6760657025726572F7
:102D7000B0473800224B98470623210003206760A4
:102D80002370657025726572B04703201C4B98470D
:102D90001C4B984710231A4F01990E4AC9681942D3
:102DA000FAD080210025938C28000B439384164B86
:102DB00007221D725D729D72DD7201232100636026
:102DC0002270237265706572B0472800B8470DB055
:102DD000F0BDC04600080040004000413130000016
:102DE00024608000FF01000080BBFFFFF52B000086
:102DF000B92B0000752C0000192E0000392E0000A0
:102E0000E12E00000D2B000000040040014B58781B
:102E1000C0097047000C00400821054A93690B4324
:102E200093610123034A137011781942FCD1704752
:102E300000040040000C0040F8B50C784B782402E8
:102E4000060005000443002B02D08023DB021C4354
:102E50004B7A002B02D080231B031C434B68012BB1
:102E600013D95D1E1D400222002D09D19A4202D2C3
:102E700001355200FAE780232D0235435B0303E05E
:102E80001D02802335439B021C430B7A002B02D08A
:102E900080239B031C430D4FB8470028FBD10C4BEC
:102EA00098470C4B1E70B8470028FCD10A4B9D6018
:102EB0001D00B8470028FCD180236A685B021340DC
:102EC0001C436C60054B9847F8BDC0460D2E0000B2
:102ED00075380000080C0040000C0040A5380000C8
:102EE00070B50500094CA0470028FBD1084B984756
:102EF000084B1D70A0470028FCD18021064A4902DA
:102F000053680B435360054B984770BD0D2E00006E
:102F100075380000040C0040000C0040A53800008B
:102F2000F7B50700184EB0470028FBD1174B98475C
:102F3000174B1F700193B0470028FCD1154D164B5D
:102F40006868C004C00E98470400019B1F706B683E
:102F5000DB02DB0F0193114B1F70B0470028FCD13F
:102F6000AD680F4B9847019B2D022D0C002B07D10C
:102F7000012D07D9200029000A4B9847040001E0E1
:102F80000135EC402000FEBD0D2E0000753800001C
:102F9000040C0040000C0040452B0000080C0040D1
:102FA000A5380000C557000010B50400064B98472F
:102FB0008021064B064A1C705388C9010B4353807D
:102FC000044B984710BDC04675380000020C004005
:102FD000000C0040A538000070B504000E4B984767
:102FE0000E4B0F4A1C700F4B59885888090510402A
:102FF00058805C880C48090F204080245880E401E8
:103000005D8808482542FBD144880B0222401A43C0
:103010004280064B984770BD75380000020C004096
:10302000FFF0FFFF000C0040FFBFFFFFA5380000CE
:1030300010B50C78034B240204439847024BA4B20A
:103040005C8010BDD92F0000000C004010B50400BA
:10305000064B9847064B1C70064B5C88064B2405B4
:10306000240F98472000054B984710BD7538000085
:10307000020C0040000C0040A5380000212F000089
:10308000D37830B5002B1BD11478802C03D080234B
:1030900024065B02234302255478AC4309D194787B
:1030A000002C02D18024A40201E0C024E4022343C6
:1030B00041605478013C012C04D8114C234001E0BC
:1030C00000234160A0258CB2ED052C43D0251C4384
:1030D00084622D060C0C2C431C438462D478002C93
:1030E0000CD15B0305D59378012B01D1816100E000
:1030F00041615378013B012B00D8816030BDC0464F
:10310000FFFFFBFF10B50A0004004309C1090020BE
:10311000814202D1D801054BC0181F231C401E3B21
:10312000A3401900024B984710BDC046004400411F
:10313000813000000D4B37B51A7804001D00002ABD
:1031400001D000290CD001A91320094B0C7098471D
:103150001320084B984701236C702B70002004E06B
:103160005B780800A34200D01D203EBDCC0F00209C
:1031700031300000A92F0000284A030000B50800E4
:10318000934218D003D8264A934207D03AE0254A02
:1031900093421DD0244A934227D033E000230329D1
:1031A00039D802F005FB31020406204B33E0204BF6
:1031B00031E0204B2FE0002303292CD802F0F8FA4D
:1031C000260204061C4B26E01C4B24E01C4B22E08C
:1031D000002303291FD802F0EBFA1B020406194B47
:1031E00019E0194B17E0194B15E00023032912D8F9
:1031F00002F0DEFA10020406154B0CE0154B0AE053
:10320000154B08E0002306E0144B04E0032302E022
:10321000134B00E0134B180000BDC046000C0042E9
:1032200000080042001000420014004203000500A4
:1032300003000600030007000300010003001E0056
:1032400003001F000300090003000A0003000B0035
:103250000300110003001200030013000300040028
:1032600003000800030010007FB56946094B6A4659
:1032700070CB70C11B680B600023990051588142CC
:1032800001D1D8B203E00133042BF6D1002004B001
:1032900070BDC046ECBB000007230168CA691A4232
:1032A000FCD170470300F0B501278BB01960069080
:1032B0008F4B080016000D0098473C00811C8C4085
:1032C0008C4A1430136A23431362337B08AAC4B2B6
:1032D000137011002000884B98472000874B9847B7
:1032E000874B307B002198472B681C209B0700D51B
:1032F000FBE02C6817383C4000D0F6E014232B602C
:10330000069B09AD1B6801931800794B98478023F1
:103310000290F0696C70EC702B70AF70346A00280A
:1033200003D10100774B0198984702232870000CC5
:103330006B70C0B22900744B9847002C04D1012156
:103340000198704B9847040002272C70240C6E4B98
:10335000E0B229006F709847B38A069AD380F38A47
:103360001381327E8023002A05D1684B9B781F4051
:103370007B1E9F41FB01B268376917431F43731DD2
:10338000DB7F002B02D08023DB051F43B36A1F4382
:1033900033002C331B78002B03D180239B049A42EB
:1033A00002D180231B051F4333002D331B78002BD4
:1033B00002D080231B041F4333002E331B78002BC5
:1033C00002D08023DB031F43019B02981B68019AF4
:1033D0001F43019B14301F608023FA275B0053605A
:1033E000C0B24B4B98473368BF005F437368069089
:1033F0000793484B9847474B0290039178009847B2
:1034000004900591069B308E5843424B9847424AA0
:10341000424B434CA0470022424B434CA0473D4BFC
:10342000040038000D00984702000B00200029001E
:103430003B4CA0473D4D02000B0002980399A84762
:10344000049A059B384CA0470022394BA847049AA0
:10345000059B384CA047384B98478023B26807003B
:103460009B049A422DD1FA23079C9B005C43029A4D
:10347000039B2D4E10001900B047264B029003917C
:103480002000984700222D4B254EB047294E0200C0
:103490000B0002980399B0470022254BA847264B02
:1034A0009847274B061E05D02100069898470238FA
:1034B000801B08E06100069A481E80189847013872
:1034C00001E0002630004023FF2F01D8FF2801D95A
:1034D00018000AE0FF2336061B04000418403E4390
:1034E000019B3043D8600023F2E70BB0F0BDC0462B
:1034F000693200000004004031300000A92F0000B4
:103500003531000079310000053100000020004114
:103510004D300000B973000095D626E80B2E113E01
:10352000B1670000000024402D5B0000A56C000086
:103530000000F03F856100004D730000000008406E
:10354000C557000002220368197E114205D01A7681
:103550005B8B412013420BD109E05A8B520706D5F1
:10356000C0215A6889020A435A60182000E00020EE
:10357000704770B500220126022401680B7E33409B
:103580000BD10D7E254206D10132038992B29342BE
:10359000F4D8122002E0180000E0002070BD000006
:1035A000802210B50468D2026368134363606162CD
:1035B000024B98470123237610BDC04673350000A7
:1035C000F0B504684B8885B00193236807001B01A0
:1035D000DB0F03934B7A0E00002B02D0897A4D4B00
:1035E000984763684C4D2B406360737A3288317A18
:1035F00052009B0300291DD01A4380231B021A434B
:103600006262464B3800984763682B40636000282D
:1036100000D07DE03800424B9847002878D17821CF
:103620003388727A1B0A0B43590001239203134318
:103630000B4302E013430122134363623800374B0C
:103640009847039B0090002B08D07388012B05D16D
:1036500080226368D2021343636002E063681D4006
:1036600065600098002853D138002D4B9847029090
:1036700000284DD1019B013B9BB20193294B019A3C
:103680009A4230D02022638B134240D0FB7A002B29
:1036900010D0039B002B03D1019B002B03D009E02A
:1036A000019B012B06D180226368D2021343636021
:1036B000009D10E038001C4B9847009B72685D1C11
:1036C000230028331B78009938005354134BADB2B4
:1036D0009847002805D1019B0095013B9BB20193BF
:1036E000CCE700950290BB7A0F4D002B06D0380036
:1036F000A847C022636892021343636038002834ED
:10370000A84722787368009902985A5400E0412033
:1037100005B0F0BDA1350000FFFFFBFF73350000D1
:1037200045350000FFFF000099320000F0B50F00A2
:103730004B8885B02A4E039305000468B0477B7A16
:103740000296002B03D0B97A2800264B984762686E
:10375000254B134063607B7A3A88397A52009B0389
:103760001343002902D0802212021343636228000F
:103770001E4B9847061E30D128001D4B98470190DC
:10378000061E2AD1039B9E4219D02022638B13422E
:1037900022D02800029B98477B6828009A5D23006E
:1037A00028331A70114B9847002807D10422638BE5
:1037B00001361342E6D01E23019300E00190AB7A5C
:1037C000019E002B09D0029B28009847C022636805
:1037D00092021343636000E04126300005B0F0BD63
:1037E00099320000A1350000FFFFFBFF7335000098
:1037F00045350000012310B58372C372014B984711
:1038000010BDC046C1350000002310B583720133DE
:10381000C372014B984710BD2D37000010B5044B03
:1038200004689847C022636892021343636010BD26
:103830009932000070B50E0004000568034B28356E
:1038400098472E702000024B984770BD99320000B7
:103850007335000007B5802201AB1A700A785A70E0
:103860004A789A708A781900DA70014B984707BD38
:1038700005310000094B1A68002A0AD1EFF31081C4
:10388000002905D172B6BFF35F8F054A117001227E
:103890001A711A6801321A607047C046D40F0020AE
:1038A000E6000020084B1A68013A1A601A68002ADC
:1038B00008D11B79002B05D0044B01321A70BFF3DD
:1038C0005F8F62B67047C046D40F0020E60000202C
:1038D00070B5094B00209847FA21084D8900060071
:1038E000A847074C074920603000A8470522064B2F
:1038F00060601A6070BDC046212F0000C5570000EF
:10390000E800002040420F0010E000E070B5802485
:103910000021084B084A1B686402013808D3002BB9
:10392000FBD0054E5360916035682542FCD0F4E72A
:1039300070BDC046E800002010E000E0024B187D9A
:10394000012318407047C04600400041042170B573
:103950001E4A1F4DD36904000B43D3612023FF335C
:103960002B831C4B984703000520002B2DD0C02231
:10397000237892001B0213401E221800A378802196
:103980005B00134003436278E078D2018004134364
:103990000200C9020A40C02113431800237989029A
:1039A0001B040B401A000300082113436B60AB6833
:1039B000094A5B035B0F99401180AB6853806378C1
:1039C0001371288BC005C00F000170BD00040040BA
:1039D000004000413D390000DC0F0020F7B5264AC9
:1039E000009153881188009A4B430400934207D2F8
:1039F0008022009B214918205B18920193423AD8FB
:103A000080231F4DDB026F682E003B436B60202339
:103A1000FF332B831B4B98471A4B0193002802D18D
:103A20006F60053027E0062C06D8052C0BD2022C3F
:103A30000FD0042C12D10CE0402C0FD3412C08D90C
:103A4000452C0ED90AE02B8BDB0502D56F601020C8
:103A500011E0009B9B085B00F36102E07760172098
:103A600009E0A5231B021C433480019B98470028D2
:103A7000FBD000207760FEBDDC0F002000C07FFF80
:103A8000004000413D390000F7B51500214A0F0004
:103A9000138851880400594300921822814236D37A
:103AA000591E084233D1013AAB4230D31A4EB047C7
:103AB000052200282BD0194B194A1A800193B047D0
:103AC0000028FCD02023019AFF33138300236008D1
:103AD00040006E1E9AB295420DD99AB2B95CB242BC
:103AE00001DB8AB203E0BA18527812020A43C11805
:103AF0000A800233EEE70022009B1B79934206D135
:103B00003F2D04D821000420064B984702001000E6
:103B1000FEBDC046DC0F00203D39000000400041E2
:103B200044A5FFFFDD390000F8B5184B0D001988DA
:103B30005B8814004B4307001822834223D34B1E9B
:103B400003401E1E1FD1013AA1421CD3104B9847BF
:103B50000522002817D020220E4BFF3278081A8346
:103B600040003300661E9AB294420BD9C2181288E4
:103B700099B292B26A54B14202DA6918120A4A70D2
:103B80000233F0E700221000F8BDC046DC0F002031
:103B90003D3900000040004170B5134A040013880D
:103BA000528818205A43A2421CD39B00013B1C425E
:103BB00018D10E4DA84703000520002B12D020225B
:103BC0000B4BA408FF3264001A83DC611C00094A15
:103BD0001A80A8470028FCD01C23208B1840431EC5
:103BE0009841800070BDC046DC0F00203D390000C8
:103BF0000040004102A5FFFF2022124BFF321A8332
:103C0000996808234A03520F93400F4A037041807A
:103C100013885B065B0F072B01D1002303E006210D
:103C2000C91A04238B404360072312881A409A4222
:103C300001D1002303E09B1A04229A401300836001
:103C40007047C046004000410040800073B504004A
:103C5000204B98470028FBD06A461F4B1B881380D7
:103C60001E4B1B8853801E4B1B8893801D4B1B884B
:103C7000D380009B072219001140217019090A40C6
:103C8000012162709A04920EA2709A0B0A40E270AF
:103C9000DA03920F2271019ADD0E100A084060715A
:103CA000580E0840A071980E0840E0710F200540A2
:103CB00025720E2556003540DB0F2B436372D30867
:103CC0001840D3091940120CA072E1720020A281A1
:103CD00076BDC0463D3900000040800002408000B3
:103CE0000440800006408000F0B503008FB017202C
:103CF000002B7DD03F4F404D3A682E6802925A7893
:103D00001C7803929A7829000492DA781238059286
:103D10001A7906925A7907929A790892DA79099271
:103D20001A7A0A925A7A01929A7A0B92DA7A0C9259
:103D30009B8900220D93314B9847002858D10200EF
:103D4000290044302D4B9847002851D10722964333
:103D500033007021144023438B431C00039B1E013E
:103D60000E40FC21264B34431C40049B89011B025E
:103D70000B401C43234B1C40059B99030C43224BD7
:103D800006992340C9030B4320490B400899490673
:103D90000B431F490B40099989060B431D490B40F2
:103DA0000A99C9060B4301995B00C9075B080B43DD
:103DB0002B600299184B19400B00079909020B431D
:103DC0009343019A290052081343782293430B9A94
:103DD000D2001343802293430C9AD20113430D9ACD
:103DE0009BB2120413433B600200044B0630984719
:103DF0000FB0F0BD0440800000408000DD390000BD
:103E0000FFC0FFFFFFBFFFFFFF7FFEFFFFFFFFFDC4
:103E1000FFFFFFFBFFFFFF87FFFEFFFF094A10B513
:103E20001388FF21181880B2040053880C40C3186F
:103E30009BB21940000A1B0A2018CB18108053802F
:103E400010BDC046E80F002070B505000F4EB0470A
:103E50000F4CFF21A388E2885B199BB218009A18C7
:103E600092B208401B0A1140120AC3188A18A38094
:103E7000E280AA2D07D1237A013BDBB22372002B0B
:103E800003D15520B0470223237270BD09410000C1
:103E9000E80F00200022024B5A729A727047C04607
:103EA000E80F002070B5364903004A7A0C00022A58
:103EB0000AD100224A72AA2802D1A93B8B725DE086
:103EC00055285BD000234EE00132AA2800D0002202
:103ED000A07A62720138052850D801F069FC030EFF
:103EE0001A2A2E460022E37222731800FF32254B55
:103EF000228062809847022335E00F25A3731D407E
:103F00001800204B657398470323002D2BD1042301
:103F100029E0227B1800511C217321000F318B54A2
:103F2000184B9847637B013BDBB26373002BEED0E9
:103F300024E01B02E383052315E0E28B2188134371
:103F4000FF250A00090A2A4050182A006188E383E5
:103F50000A40090A521862801202024392B220807B
:103F60009342AFD10623A37208E0552BAAD12000BB
:103F7000E27AA17B0F30044B9847A3E770BDC0469F
:103F8000E80F00201D3E00006D400000F7B5050061
:103F90000E00009272B6BFF35F8F0023214C237096
:103FA000214B9847019420283AD902231F4C204FD7
:103FB0002372AA20FD33A380E380B847AA20B84724
:103FC000AA20B84728001B4DA8470098A8470F23F0
:103FD000009A1A40B3180093009BB34203D0307884
:103FE000A8470136F8E7A288FF211300120A0B4008
:103FF00098180B00E288A0801340120A9B18E380F7
:104000001B0203431CB2A0B2000AA847E0B2A847B3
:104010005520B8470123019A1370BFF35F8F62B632
:10402000F7BDC046E600002039410000E80F00203F
:1040300009410000493E00000F231840704700006E
:1040400013B5074B9847002809D06B46DC1D0121AA
:104050002000044B98472078034B9847F1E713BDA5
:104060003D430000A9420000A53E00000300901E51
:1040700010B50A2834D801F09BFB060B10151A3333
:10408000331F24292E000A0002201900154B26E0B8
:104090000A0003201900144B21E00A000420190033
:1040A000124B1CE00A0005201900114B17E00A0012
:1040B000062019000F4B12E00A00092019000E4BD0
:1040C0000DE00A000A2019000C4B08E00A000B2042
:1040D00019000B4B03E00C200A001900094B98470C
:1040E00010BDC04695460000AD460000D546000014
:1040F00009470000A1460000A5470000D547000081
:10410000FD4700009947000013B56B46DC1DD871D0
:10411000064B9847002807D001212000044B984700
:10412000044B98470028FBD013BDC046ED4E00005D
:10413000494200001143000010B5014B984710BDE3
:104140001143000010B5024B9847024B984710BD31
:1041500089410000953E0000C37902799A420CD053
:104160000133C37143795A1C42710268D1544279B8
:1041700003799A4201D100234371C379027A9A42AA
:1041800000D20372704700000B4B002219000C3163
:10419000196018004621603019711900DA719A719E
:1041A0005A711A72586528235431CA718A714A713A
:1041B0000B710A727047C0461010002010B5104BEA
:1041C0000120DA79002A19D09979013ADA714A1C6A
:1041D000D2B218689A71445C1979914201D10022D7
:1041E0009A71084B9847002803D1074B9847022043
:1041F00004E02000054B9847002000E0404210BD3D
:104200001010002059100000A50D0000D51000006E
:1042100010B5094CA047002801D101380AE0A04799
:10422000002807D0054B9847C1B20548054B5430CC
:104230009847F4E710BDC046490F0000E50F0000A5
:104240001010002059410000F7B503000C000025B4
:10425000002C1FD072B6BFF35F8F00260E4F0F48A1
:104260003E70C179027991420DD05A1C19780C4BDD
:104270000192013C984701350A4B30009847E4B25F
:10428000EDB2019B00E0340001223A70BFF35F8F72
:1042900062B6DDE72800FEBDE60000201010002019
:1042A00059410000BD410000F7B504000020164E42
:1042B000002928D072B6BFF35F8F0022134B1A700B
:1042C00033005433DA79002A15D0671C01979F799F
:1042D000013ADA717A1C756DD2B29A71EF5D1D796F
:1042E000954201D100229A71013901302770C9B27B
:1042F000C0B2019C00E011000122044B1A70BFF310
:104300005F8F62B6D4E7FEBD10100020E6000020EB
:1043100072B6BFF35F8F0023064A074913700B790B
:10432000C879181A0123C0B21370BFF35F8F62B649
:104330007047C046E60000201010002072B6BFF3A0
:104340005F8F0023054A1370054B5433D87901233E
:104350001370BFF35F8F62B67047C046E60000205F
:104360001010002070B51500044C054BA0800548C6
:104370009847E58020680121034B98479815002055
:104380001D7C0000A0150020017C0000F8B5040091
:104390000E4D4C432B880600E4188023A4B20F0076
:1043A0001B029C4204D9272209490120094B984746
:1043B00030003900084B9847061E04D12C220449CE
:1043C0000120044B984730002C80F8BDA01000203D
:1043D000FCBB0000654300002974000010B50121FA
:1043E000014B984710BDC0468D43000010B5014BEE
:1043F000984710BDDD430000F7B56B46DD1D03682F
:104400002A7001339A18C36804000E009A4204D936
:104410002F2210491720104B984720692900036864
:1044200001225F682368B8472069236801682A78F9
:104430004F6801333100B847206903689B6898478B
:104440002079431C237123685A1C2B78D3182360CE
:10445000FEBDC04648BC00006543000010B583683F
:1044600001795A1C036988B000930139C9B2C36845
:10447000034C03A8A04703A8024B984708B010BDFF
:10448000754600003546000070B504000069211D26
:10449000036801221D68A368A8472079FF2800D17E
:1044A000002070BD70B50400002020712000A160C4
:1044B000E2602361013114300D4DA847A368E26822
:1044C000934204D31C220B4917200B4B9847200022
:1044D0000A4B98472071002803D1A3680133236059
:1044E00003E02000064B98472060200070BDC046C6
:1044F000ED45000048BC0000654300008944000011
:104500005D44000070B504000069211D03680122AC
:104510005D68A368A847206903689B68984770BDD9
:10452000037910B50400002B06D000230371034B60
:104530009847A3680133236010BDC04605450000BD
:10454000054B10B51B68002B04D1762203490520CA
:10455000034B984710BDC046A410002048BC000083
:104560006543000070B50D000400044B9847044BF0
:104570002A0021001868034B984770BD4145000090
:10458000A4100020F943000010B5034B9847034BDB
:104590001868034B984710BD41450000A410002047
:1045A00021450000F7B50C4B17001A680500019172
:1045B0001E00002A04D09D2208490620084B984777
:1045C000084B2820984704003B002900019A064D1B
:1045D000A8473460F7BDC046A410002048BC0000C6
:1045E00065430000ED430000A544000010B5002421
:1045F00081600470C260036110BD70B50400006981
:10460000A11C036801221D686368A847A378FF2BDB
:1046100001D10023237070BD436810B55A1C837804
:10462000D3184360437801334370014B984710BD62
:10463000FB45000043685A1C8378D018704700007F
:10464000002370B5437083680400436001230D00AC
:104650000370064B98476378AB4205D22378002B52
:1046600002D02000024BF5E770BDC046FB450000BC
:104670001946000010B504000020E360029B207082
:1046800023612000A260024B9847200010BDC04665
:104690004146000010B5014B984710BD8D3F00000A
:1046A00010B5014B984710BD3548000010B5074CB8
:1046B000012A04D90800064B9847208001E0002316
:1046C00023800023A3700133E37010BDA8100020E5
:1046D000854E0000F8B5094C0F00E378002B0CD094
:1046E0001000074B98470600A578201D401932009E
:1046F0003900044B75199847A570F8BDA810002023
:1047000039400000B57A000010B51C4B9AB0DA7839
:10471000002A03D099781A88914205D0184B9847FF
:104720000022164BDA7026E00022DA70154B03A83F
:10473000196801911449186099801A72DA80134B34
:104740009847041E0AD10D48114B01780430984750
:104750000C4B0D4A9A801C72DC8001E0094B9B884F
:10476000084B019A1A609A88074B9A4201D0044B71
:1047700000E0084B98471AB010BDC046A8100020B2
:1047800051480000981500205A5A0000E97B0000AB
:10479000654500003948000010B5014B984710BD31
:1047A0005148000010B5002A0BD00878012A08D91A
:1047B0004B785D2805D1922B03D1034B9847034BCF
:1047C00000E0034B984710BD8945000039480000C0
:1047D0005148000010B5054B984710220021044BAA
:1047E0009847044B9847044B984710BD794D0000FB
:1047F000754B00000D4E00006548000010B5002408
:10480000032A03D90800064B9847040021000548F5
:10481000054B9847054B98472100054B984710BD1D
:10482000794E000094BC000021490000794D000041
:10483000A14C000070470000002307B501A90B70D0
:104840000122F020014B984707BDC0468D3F000074
:1048500007B5012201A9F020014B0A70984707BD56
:104860008D3F000007B5044B01A99847042201A918
:104870002920024B984707BD494E00008D3F00009C
:1048800007B5054B00B201A99847022201A93020C3
:10489000024B984707BDC046594E00008D3F0000AF
:1048A00010B50A00024B01003120984710BDC046E8
:1048B0008D3F000007B5034B002201A93220984725
:1048C00007BDC0468D3F000070B50B4B05000800CA
:1048D0000C009847002C0CD0084B0E2C06D9280051
:1048E0000F210F3C9847A4B20F35F3E7E1B228003F
:1048F0009847034B984770BD81480000A1480000CD
:10490000B548000010B5044B04009847034B81B232
:104910002000984710BDC0462D7C0000C94800000B
:104920000FB410B5A2B024AA02CA72B6BFF35F8F4B
:104930000023094C0192237002A8084B984702A853
:10494000074B984701232370BFF35F8F62B622B0F5
:1049500010BC08BC04B01847E6000020C57C00006D
:104960000549000010B5034B04000800984720607B
:1049700010BDC046CD56000010B50400014B98474D
:10498000200010BD6549000010B5014B984710BDCF
:1049900099550000F7B50400012622713200002568
:1049A0009A4008A800782160019009A807786371EF
:1049B000A271A561E57126726572201D0E4B9847A4
:1049C0006B461B79200023773300BB40A37723007D
:1049D0001F3367772563E5771C305E709D70064B4B
:1049E000984701235B426363230038331E700A9BA0
:1049F0002000E363FEBDC046A504000073B5051D9D
:104A000004000E4B2800984728000D4B1835984796
:104A100028000C4B98470023009301331A0005210E
:104A20002800094EB047C820084B98472068084B1B
:104A300098472800E16B074B984773BDB504000009
:104A400081040000CD040000E50400000D390000E1
:104A50003953000011050000062302115B42534345
:104A6000C018C0B270470000F0B57F2787B004AD12
:104A700000950C000022682107230068194EB047FA
:104A80002878194E3840B04720706878B0474023E6
:104A90006070A8789843B047A070EB7823712879AC
:104AA000B047E07068793840B04701386071A87944
:104AB000B0476430E0800D4D0D48A8470620215EC8
:104AC0000020205603230290012020560522019049
:104AD00002202056E3560090A2560648A847002020
:104AE00007B0F0BD09540000594A000021490000F8
:104AF000A8BC0000ADBC00001FB5054B01A998473C
:104B000001A96846034B9847009805B000BDC04610
:104B1000694A00007949000070B5130072B6BFF30E
:104B20005F8F0022064C00682270064D0A00682143
:104B3000A84701232370BFF35F8F62B670BDC046E4
:104B4000E60000209D54000070B50D000400064BE7
:104B500098472A0068212068044B98470400044BBA
:104B60009847200070BDC046753800007D53000096
:104B7000A5380000F0B50600150085B0531802AF47
:104B8000DBB279603B603B6899420BD0144B30003C
:104B90004C1C9847E4B20200611E1248124B984721
:104BA0002100F0E76A46EB1DDB08DB00D31A9D46C7
:104BB00002AC00942B0030687A680C4E6821B04734
:104BC00066192500B54208D07B682A78191B491957
:104BD0000448054B98470135F4E7BD46F7BDC0468C
:104BE000494B0000C7BC00002149000009540000E7
:104BF00010B50C00044B0A212000984706235843A7
:104C00002018C0B210BDC046C5570000F0B5040062
:104C10000E0085B01C4B98471C4F31782000B847D8
:104C200002AD287071782000B8476870B178200014
:104C3000B847A87033792000EB70F178B847287135
:104C4000717920000131C9B2B8476871F18820003C
:104C50006439C9B2B8470022A871072300952068BB
:104C600068210B4DA8470F2120000A4B98477F234E
:104C700002000F211A402000074B9847074B984726
:104C8000002005B0F0BDC04675380000F14B0000B3
:104C900015550000494B0000194B0000A5380000D5
:104CA00013B5054B040001A801919847034B01007F
:104CB0002000984713BDC046894900000D4C0000F4
:104CC00070B50C000A4B0E21160005009847611EB6
:104CD000012423008B4001009943CAB2002E01D069
:104CE0000343DAB228000E21024B984770BDC0463C
:104CF000494B0000194B000070B50C000B4B0F2105
:104D000005009847631E0124210099400B00020012
:104D100003400020DBB2834206D08A432800D2B28F
:104D20000F21034B9847200070BDC046494B00003F
:104D3000194B000010B50400044B0430984720685C
:104D4000034B984701233834237010BD81040000C1
:104D50003953000070B50500040001CD044B98479D
:104D60002800044B984700233834237070BDC04698
:104D7000635300005D040000064B10B51A681C0068
:104D8000002A05D1BA220449FF320320034B984779
:104D9000206810BD7C110020D8BC000065430000D5
:104DA0007FB50D000600124B402098470295062360
:104DB000002504002A003100019300950D330D4EAB
:104DC000B0470D4B1C600D4CA0470D4B9847A047BA
:104DD0002A000C4E0121B047A0472A000221B0470B
:104DE000A047094D0121A847A0470221A8477FBD40
:104DF000ED430000954900007C110020794D000032
:104E0000FD490000C14C0000F94C000070B50A4C8F
:104E1000A04738300378094D002B02D0A047A8479F
:104E200009E0A047064B9847A047A8470500A047C0
:104E3000044B9847280070BD794D0000F94A0000E6
:104E4000354D0000554D0000030E0B70030C4B70E8
:104E5000030A8B70C8707047030A0B704870704764
:104E600002000378180653781B040343D0781843D4
:104E700093781B021843704710B5014B984710BD3B
:104E8000614E0000037840781B02184300B270475F
:104E90000022014B1A707047881100200122014B3B
:104EA0001A707047881100200122014B5A70704718
:104EB000881100200120014B987070478811002054
:104EC0000022014B9A707047881100200122014B8B
:104ED000DA70704788110020014B18717047C04686
:104EE000881100207047704770470000014B987888
:104EF0007047C0468811002010B5037C84685A436F
:104F0000141920009AB20B4B9847002804D09F2216
:104F100009491A20094B9847002221000420084B18
:104F20009847002804D0A12203491A20034B984730
:104F300010BDC046893A000038BD0000654300003E
:104F4000DD39000070B505000C001600032904D9F6
:104F5000AB2207491720074B9847297C6B696143AF
:104F6000B6003619B2B259182800034B984770BDE5
:104F700038BD000065430000F94E000070B5050023
:104F80000E0000242100013432002800024BE4B25C
:104F90009847042CF6D170BD454F000010B58388AA
:104FA0008B4204D2BD2202491920024B984710BD02
:104FB00038BD000065430000F0B51F00060003681F
:104FC00087B0059203919B689847059B3000DB19D9
:104FD00019000093244B9847357C244C2900380055
:104FE000A04783B2019329000098A0476B46049024
:104FF0001B8A019D0293029B9D4232D8019B029A1B
:10500000B068934202D13818059C17E0019B347CAC
:105010009D4205D16B1C9BB25C433818E41B0CE02D
:10502000029B9D4206D16B461B8A5C43009B201865
:105030001C1B02E023006B431818A4B2002C10D0F4
:10504000220003990A4B9847002804D056220949A8
:105050001920094B9847039B01351B190393ADB2E7
:10506000C9E707B0F0BDC0469D4F0000C55700001E
:10507000293B000038BD00006543000070B5050005
:1050800014000E00037C511C5943094B9847287C9F
:105090003100444382B2A868064B20189847002884
:1050A00004D0C52204491920044B984770BDC0465E
:1050B0009D4F0000293B000038BD00006543000003
:1050C000F8B507000E000025920094B26219310075
:1050D000044B92B2380098473B7C0135F618042DFA
:1050E000F4D1F8BD7D50000070B50A000D00054BED
:1050F0004169040098470023637701336582237771
:1051000070BDC046C150000010B58900037C89B253
:1051100059438368C818054B9847002804D0E422F7
:1051200003491A20034B984710BDC046993B000025
:1051300038BD00006543000010B5437F0400002B1C
:105140000BD0037F002B08D0418A044B9847044BB7
:10515000618A200098470023637710BD0951000041
:105160007D4F000000B507291CD8080000F020FB87
:10517000150418070A0D10138020800112E080200A
:1051800000010FE08020C0000CE08020800009E0DA
:105190008020400006E0002004E08020C00101E003
:1051A0008020400100BD000070B504008AB01F4B94
:1051B0000D0098471E4B012208332360FF236382B2
:1051C0000023A08001A842701A4A237763770370F6
:1051D000526806AED206120FC3700371164B82706E
:1051E0009847164B300098477378AB4203D0300095
:1051F000134B7570984703AD2800124B98472878D9
:105200000121020020746B885A43E2606A680E4DE7
:105210009B1A4343A360A847A061207C0121800022
:10522000A847606120000AB070BDC046655100000B
:1052300024BD0000004000414D3900004D3C0000FD
:10524000E93C0000F93B00008D430000F8B50C007C
:10525000057C1E00290020000A4B1700984783B2E6
:105260005D439B08641BE4B29A00002F00D03B8092
:10527000002E01D0801A3070069B002B00D01C70CD
:10528000F8BDC046C5570000F0B50E250D27040037
:1052900087B00291190002ABED18FF18039205AB1D
:1052A0002A000097184EB047628A2B889A4207D08E
:1052B000236820009B68984729882000134B984753
:1052C00002AB227C1B7B029D53433A780127D31803
:1052D000039A9BB2AE18AE4211D0297860695A1C6D
:1052E000C154237C92B29B009A4205DD2368677704
:1052F0009B6820009847002201351300EBE701234B
:10530000637707B0F0BDC0464D520000E950000081
:1053100010B5064B04009847002804D01622044913
:105320000E20044B9847200010BDC046A532000057
:105330008EBD000065430000072110B50268D369E7
:105340000B40FCD102241168214311600E34518BB3
:10535000214205D1C18801338B42F8D310235383F6
:1053600010BD07220368D9691142FCD183220221B2
:105370001A751A761A688A431A607047F0B585B0B4
:105380006B460D0001ACDE1C32701A4B07000C227C
:105390000021200098470123258000256380666056
:1053A00021003800144B9847002811D06B1C9BB289
:1053B0000A2D01D01D00F3E7104B352210491220B1
:1053C00098470B23F6E76B1C9BB20A2D07D01D00F4
:1053D000210038000B4B98470028F4D106E0074B1A
:1053E0003B220749122098470B23F0E7307805B09D
:1053F000F0BDC046317B0000093800006543000065
:105400008EBD0000F5370000F0B587B000936B4605
:1054100003ACDE1DDA710F001B4B05000C220021CE
:1054200020009847012366600026638027802100C2
:105430002800164B984700280CD0731C9BB20A2EEC
:1054400001D01E00F3E7124B502212491220984758
:105450000B23F6E70C9B6360009B63802100280010
:105460000D4B984700280CD0731C9BB20A2E01D01C
:105470001E00F3E7064B5A220649122098470B23D9
:10548000F6E707B0F0BDC046317B000009380000E8
:10549000654300008EBD0000F5370000F0B587B011
:1054A00000936B4603ACDE1DDA710F00134B050051
:1054B0000C220021200098470123666000266380AB
:1054C0002780210028000E4B984700280CD0731C21
:1054D0009BB20A2E01D01E00F3E70A4B6E220A4946
:1054E000132098470B23F6E700992800074B9847AD
:1054F0002800074B984707B0F0BDC046317B00003D
:1055000009380000654300008EBD000035380000FA
:105510001D380000F0B587B000936B4603ACDE1D6C
:10552000DA710F00164B05000C220021200098476D
:105530000123666000266380278021002800114B2C
:10554000984700280CD0731C9BB20A2E01D01E0075
:10555000F3E70D4B8F220D49132098470B23F6E7F5
:105560000C9C009BE618B44205D021782800084B1B
:1055700098470134F7E72800064B984707B0F0BD7D
:10558000317B000009380000654300008EBD00003B
:10559000353800001D38000010B5034C034B2100C6
:1055A0009847200010BDC04620160020B1550000CD
:1055B000F0B5056885B00C003D4B3E492800984782
:1055C00006003D4F28003B49B8473C4D3C22684609
:1055D000A847019B3C222370009902A8384B9847AA
:1055E000039BB01D6370029B80B2A3700721B84774
:1055F000217131006426334A6846A847009B01990F
:105600005E43314A6846A847009BB6B29D007519B3
:10561000019BADB299B22A4E642D02D9013189B2F3
:1056200002E00023642D00D001231A006D32FF3206
:1056300092B28A420BD26E22C91A89B2FF3202A8F4
:10564000B047029BED18039BADB299B200233B33E8
:1056500064359BB2E5802181994204D21F2202A8C1
:10566000B047029B19E0C91A89B2992202A8B04733
:105670000523029A03995343023363713D2202A822
:10568000B047029B03995A00637902A8D31863714B
:105690001F22B0476379029AD3186371039BE370AA
:1056A00000236381E3780133E37005B0F0BDC046A9
:1056B000C557000080510100D15800002575000039
:1056C000A1740000AD8E0000B5050000F8B50623FA
:1056D000C75E06003D000020643D85420CD03800C6
:1056E000032364216538C4171C404942204B241809
:1056F0009847A4100419601C6E2403230522FF346C
:105700006C43F356B25624185D1E012A04DC002AAD
:105710001BD01E331D0018E0164BFF1838B2164B75
:1057200098473B304519052030560238042800DDE3
:105730009935124B052198473D20CB0F5B185B1024
:1057400043435D19CB0700D51F350221E122715675
:105750001201514301223C23B256094853435A18BF
:1057600000232C196043F3569B181818F8BDC04647
:10577000D95800006C07000085570000A55A0000AA
:105780008051010013B501000324002021420CD1F7
:105790006846064B64229847019B0120002B04D1E8
:1057A000009B1C4060426041C0B216BDA174000065
:1057B00002B4714649084900095C49008E4402BCA4
:1057C0007047C046002243088B4274D303098B42C2
:1057D0005FD3030A8B4244D3030B8B4228D3030CC1
:1057E0008B420DD3FF22090212BA030C8B4202D363
:1057F0001212090265D0030B8B4219D300E0090A8B
:10580000C30B8B4201D3CB03C01A5241830B8B4293
:1058100001D38B03C01A5241430B8B4201D34B037C
:10582000C01A5241030B8B4201D30B03C01A5241E1
:10583000C30A8B4201D3CB02C01A5241830A8B4266
:1058400001D38B02C01A5241430A8B4201D34B024F
:10585000C01A5241030A8B4201D30B02C01A5241B3
:10586000CDD2C3098B4201D3CB01C01A5241830967
:105870008B4201D38B01C01A524143098B4201D3A1
:105880004B01C01A524103098B4201D30B01C01ACC
:105890005241C3088B4201D3CB00C01A5241830846
:1058A0008B4201D38B00C01A524143088B4201D373
:1058B0004B00C01A5241411A00D2014652411046D3
:1058C0007047FFE701B5002000F0F0F802BDC046C8
:1058D0000029F7D076E7704703460B437FD40022B8
:1058E00043088B4274D303098B425FD3030A8B4274
:1058F00044D3030B8B4228D3030C8B420DD3FF22DE
:10590000090212BA030C8B4202D31212090265D0AB
:10591000030B8B4219D300E0090AC30B8B4201D35E
:10592000CB03C01A5241830B8B4201D38B03C01AA5
:105930005241430B8B4201D34B03C01A5241030B1C
:105940008B4201D30B03C01A5241C30A8B4201D3CD
:10595000CB02C01A5241830A8B4201D38B02C01A78
:105960005241430A8B4201D34B02C01A5241030AEF
:105970008B4201D30B02C01A5241CDD2C3098B42D4
:1059800001D3CB01C01A524183098B4201D38B0151
:10599000C01A524143098B4201D34B01C01A5241F4
:1059A00003098B4201D30B01C01A5241C3088B4239
:1059B00001D3CB00C01A524183088B4201D38B0024
:1059C000C01A524143088B4201D34B00C01A5241C6
:1059D000411A00D201465241104670475DE0CA0F9D
:1059E00000D04942031000D34042534000229C465D
:1059F00003098B422DD3030A8B4212D3FC22890167
:105A000012BA030A8B420CD3890192118B4208D33C
:105A1000890192118B4204D389013AD0921100E09E
:105A20008909C3098B4201D3CB01C01A52418309B2
:105A30008B4201D38B01C01A524143098B4201D3DF
:105A40004B01C01A524103098B4201D30B01C01A0A
:105A50005241C3088B4201D3CB00C01A5241830884
:105A60008B4201D38B00C01A5241D9D243088B42DA
:105A700001D34B00C01A5241411A00D2014663467D
:105A800052415B10104601D34042002B00D54942E1
:105A9000704763465B1000D3404201B5002000F020
:105AA00005F802BD0029F8D016E770477047C046D8
:105AB0001C2101231B04984201D3000C10391B0A3E
:105AC000984201D3000A08391B09984201D3000902
:105AD000043902A2105C40187047C0460403020259
