:1000000070040020B9120000A1120000A11200002B
:1000100000000000000000000000000000000000E0
:10002000000000000000000000000000A11200001D
:100030000000000000000000A1120000A11200005A
:10004000A1120000A1120000A1120000A1120000E4
:10005000A1120000A1120000A1120000A1120000D4
:10006000A1120000A1120000A1120000A1120000C4
:10007000A1120000A1120000A1120000A1120000B4
:10008000A1120000A1120000A1120000A1120000A4
:10009000A1120000A1120000A1120000A112000094
:1000A000A1120000A1120000A1120000A112000084
:1000B0000000000038B5AB48016820220A43026006
:1000C000A94901200A7F02430A770A78F0231340E6
:1000D0000B7006220B7806241C430C704B7F0343E5
:1000E0004B770B781B071B0F0B700B7860241C439E
:1000F0000C7000BF28A10B889C490C889C4D2540A2
:100100002A430A800A889B4C1C4022438223DB013D
:1001100013430B8098490A7802430A708A78024296
:10012000FCD11F20954A13685B0B03401F2B00D1A5
:1001300005230C8D924D25409B012B430B851368A5
:100140009B0C18401F2800D11D200B8D8D4C1C408E
:100150002043088510688001400F072800D1032044
:100160000A8D894B13400003184308850878400620
:10017000400E08700878042202430A7083484862DF
:100180000A89834B13400B810A89824B13400B81F0
:10019000802100F00DFB31BD0000016000210171E4
:1001A00041717D4981607D49C1607D49016101687E
:1001B0000A78022313430B70704770B5040021685E
:1001C00080204000081808228B8B134228D08B8B8C
:1001D0001A438A8380228A72112101704021417161
:1001E0000271C0239B05BE4D684A56682E401E43CF
:1001F0005660566935402B4353616A4B13601300B8
:10020000943313615368684D1D40CB022B435360F8
:1002100053689B0B9B03536001710020207105E024
:10022000C079C00602D5200000F0C4F8207970BD66
:10023000F0B583B0006800240194A2235B00C018CD
:10024000009001255148574B584E3678002E12D158
:100250001E0040360664466CB60BB6034664466C18
:10026000514F37404764009E377840263E43009FF9
:100270003E704E4E3570009EF678F60716D54C4E01
:10028000476C3740974203D2406C0640019600E02D
:1002900001920800019A1900403100F08BFA009891
:1002A000C07805430098C570404804700198FEBDB1
:1002B000F8B50468180001D1002000E040201500C6
:1002C0005A010092314A009BD618012377697F00BA
:1002D0007F0FFF1CBB409D4205D370698022120630
:1002E0000243726106E0171894372A00380000F0C4
:1002F00061FA390031617069800B8003A904890CAF
:1003000001437161706928490140716100982018AA
:10031000FF21891D4018022182780A4382700278E9
:1003200080231343037082780A42FCD02800F2BD78
:1003300080B50023FFF7BCFF01BD14494A69920B49
:1003400092034A61FF21891D4018022182780A43E5
:100350008270027880231343037082780A42FCD0B3
:10036000704700001C0400403C440041020C004067
:10037000C0FF0000FF7000000050004124608000BA
:100380003FF80000E0FF0000FF8F00006400002045
:10039000F3FF0000FEFF0000BB010000B1020000FF
:1003A0003102000078010020FF3F00F066020020CB
:1003B000FF3F0000F1B582B0006800908221490043
:1003C00045181020E9780143E970BB4CBB49097816
:1003D0002170BA4949786170B8498978A180A188AB
:1003E000B64AD27812020A43A280B4490979E18060
:1003F000E188B24A527912020A43E280AF49897910
:1004000021812189AD4AD27912020A4322814021F9
:10041000297063780099832252008918202280264F
:100420001B0227783B43803B012B00D87AE09B1EC0
:1004300000D17AE07F3B15D05B1E00D1B2E0AD4F1A
:10044000DB1B0FD05B1E00D18DE07F1EDB1B2ED08F
:100450007E3FDB1B11D04701DB1B5FD0803B2ED0E2
:10046000A54FDB1B00D1DBE0C0277F00DB1B00D1E9
:10047000DAE0803B00D1E3E0E6E0A088D1008842EA
:1004800008D12089122801D9122200E0228900BF58
:100490006EA1D1E0A08849008842EDD1208944288E
:1004A00001D3432200E0228921000C31C4E00098EE
:1004B000FFF743FFA088064300988672F7BDA08827
:1004C000029908710098FFF738FF009892214900BF
:1004D0004018032101770907014AA24B02E000BF3F
:1004E000FFFFFF8F5C6C14400C435C64009CBB3FBF
:1004F000E419402727709C4F1F6430272F775D6BCE
:1005000015402943596306701800D4301863402001
:10051000E076586F02405A67E677F7BD01220298ED
:10052000011D8AE00020608119E000206081E088E0
:1005300050230340A370E0880007000FE080E088AC
:1005400004281FDAA0780028E08803D04001085C66
:10055000800602E04001085CC006C10F61810222F2
:1005600021000A3168E0E1880E40A670E1880907A1
:10057000090FE180A188002966D1E188002963D0B4
:10058000E188042960DA0099FF239B1DC918A3782C
:10059000002B03D0E08840010A5441E0E288520178
:1005A00088543DE0E3881E40A670E3881B071B0FBC
:1005B000E380A388002B47D1E388002B44D0E38855
:1005C000042B41DA009BFF2608369B19A678002EE3
:1005D00012D0E0884001085C104221D0E088400140
:1005E0002A54E0884001185C400619D54020E18873
:1005F00049015854022010E0E6887601895D0142E5
:100600000ED0E18849016854E0884001185C10422E
:1006100006D0E08840011A540120E188490168545D
:100620000098FFF78AFEF7BD2089082801D9082223
:1006300000E02289210050310298FFF779FEF7BDD2
:10064000A08802994871EBE76A70F7BD12011001AA
:1006500002000040EB0324611001000000010000D3
:1006600010B5424C42482060FFF724FD216820006D
:10067000FFF793FD200010BD01B50123012269465B
:100680003A48FFF715FE012002BD80B501226946F8
:100690003648FFF7CDFD6846007802BD10B5334CF3
:1006A0002000FFF78AFD002805D02068FF2148318F
:1006B000415CC807C00F10BD040000207801002075
:1006C00010B50C000123220001002848FFF7F0FDBF
:1006D000200010BD70B505000E00244C2000FFF76F
:1006E0006CFD002804D0290032002000FFF7A0FD97
:1006F00070BD0000FF01000021170000F8B50500E3
:100700000C00184E370080373800FFF756FD0028E0
:1007100026D03868A22149004118402215480378A4
:10072000002B05D04B7840271F434F7000230370E8
:1007300020003564736C9B0B9B037364736C0E4CCD
:100740001C4083030D4D1D40254375640B781A43EF
:100750000A70CA78D207FCD5CA7801231343CB703C
:10076000F2BD000064000020B8010020E400002079
:100770000050004166020020FF3F00F000C0FF0F64
:10078000130030B414001500103902D310393CC0E6
:10079000FCD2490700D30CC000D504C0890002D3A5
:1007A0000280801C002900D5027030BC7047000018
:1007B0000022E5E7124207D08B0706D00B78491CD0
:1007C0000370401C521EF7D87047830706D00B7881
:1007D000491C0370401C521EF9D1704770B4103A86
:1007E00003D378C9103A78C0FBD2530701D318C994
:1007F00018C001D508C908C0D20704D30B880380EC
:10080000891C801C002A01D50B78037070BC7047CE
:1008100038B501257648C17E01220A43C2760178A7
:10082000F0220A400270017802220A430270017F1E
:1008300001220A43027701780907090F0170017844
:1008400020220A430270AA4C200000F0ABF9A9490B
:100850000A68831C9D4015430D6000BF10A10A88E3
:10086000A5490B88A54D1D4014308006800E2843F5
:1008700008800888A24B134018430A0C02430A80E0
:10088000802252039F49200000F0A0F99E480021D9
:10089000017041708170C1700171417131BD000002
:1008A000000080B5C1B2924800F0BEF9012002BD3F
:1008B00080B58F48017E4907FCD500F0BAF902BD2A
:1008C00080B5B4480078400705D5FFF7F1FF23282D
:1008D00001D1012002BD002002BDAE4800784107D1
:1008E000C80F704770B505000C00002604E028789A
:1008F000FFF7D7FF6D1C761CA642F8D3300070BD01
:1009000010B50400FFF7D4FF2070012010BD81B0A6
:100910000002484008214200000402D59E48504091
:1009200000E01000491EF6D180B201B07047F8B562
:1009300000260700684641800680984D18E0310087
:10094000E0B2FFF7E4FF06002889002802D1A87969
:10095000002808D03C707F1C68464088802802D15F
:100960002889401E2881684669460988491C0180FB
:10097000008869464988884207D2FFF799FF04003A
:1009800068790028DBD00120F2BD3000F2BDF8B557
:1009900005000C0002216846FFF7C9FF80212800EE
:1009A000FFF7C5FF05007D4E7079002808D1FFF7DD
:1009B0007FFF0702FFF77CFF38187179012901D109
:1009C0000020F2BD80B2A84208D168460178A14259
:1009D00004D14078E143C9B2884203D01820FFF720
:1009E00060FFEDE70620FFF75CFF0120F2BD00008D
:1009F0003B440041F2B584B001216B46197002906E
:100A0000664C002060710498002801D020810021EC
:100A1000A1710498400604D0049880307F21884357
:100A20000490FFF745FF6179002906D0002060712E
:100A3000FFF73EFF6179002957D1C0B2152805D0D4
:100A4000432803D07128ECD100204CE0029F0026FF
:100A50000120FFF726FF68460078FFF722FF68466F
:100A60000178C843C0B2FFF71CFF802001902089A5
:100A7000002804D1A179002901D1002503E03D78A7
:100A80007F1C401E20812800FFF70BFF310028004B
:100A9000FFF73DFF06000198401E0190E7D1300AA4
:100AA000FFF7FFFEF0B2FFF7FCFEFFF701FF6179F1
:100AB00000291AD1C0B206280AD1684669460978C9
:100AC000491C01700498803804900298803002908C
:100AD00004980028BAD10420FFF7E3FEFFF7E8FEF0
:100AE0000020A071012005B0F0BD00206071FAE780
:100AF0000014004220040040020C0040C0FF00002F
:100B0000FF70000004C500005C020020F8B50090F2
:100B10006426012001240027204D6F71002901D196
:100B2000A87101E02981AF714320FFF7BAFE1C488C
:100B300002E0002824D0401E164909784907F8D55C
:100B4000002804D11CE0012815D000281FD0FFF791
:100B5000AFFE697900290CD1C0B2012802D0042867
:100B600012D014E0E1B20098FFF711FF6979002973
:100B7000E9D06F7106E0641C009880300090E6E7D1
:100B8000761ED1D10020F2BD0620FFF78AFEAF719C
:100B90000120F2BD18140042211000005C02002068
:100BA00000350C001FB50400684600BF2DA11022BF
:100BB000FFF714FE00206946820089588C4203D05A
:100BC000401C0428F7D3002004B010BD30B5012329
:100BD000C46964081C40FBD104680225AC4304606E
:100BE000C4691C40FCD104681C43046004681C40B8
:100BF000FCD1C4691C40FCD1C46964081C40F8D114
:100C0000164C14430460C26992081A40FBD1C022FA
:100C1000920242608181C16949081940FBD1016893
:100C200002220A43026030BD027ED207FCD5018554
:100C300070470121027E92080A42FBD0428B0A4291
:100C400007D1428B52080A4203D1428B92080A42D2
:100C500001D0034A1170008DC0B2704704000040FB
:100C60006802002000080042000C00420010004210
:100C7000001400423A49012804D100BF04A24A608E
:100C800001224A70002801D108A048607047000086
:100C9000A3080000B1080000DB080000E508000020
:100CA00001090000F50900000D0B000079060000A5
:100CB0008B0600009D060000C1060000D50600005E
:100CC000C1060000FD060000F0B585B0B14B1A78F2
:100CD000002A1FD0042901D1006804E0022901D1B3
:100CE000008800E000784A00009201AC49006518D5
:100CF000691C00223026009FBA4210D207073F0F1E
:100D00000A2F01DB373700E037430F700009491E17
:100D1000521CF0E75A68D268904705B0F0BD2670C3
:100D2000782060700A20A8700D20E8700099091DD5
:100D300001A85A68D2689047EFE7000072B6BFF387
:100D40005F8F0021944A1170EFF30881914A9160FE
:100D5000016881F30888001D0068004770470000A3
:100D6000F8010020F8B500258A4CA5617A20A07012
:100D700040212000243062681269904760612000A1
:100D80002430E06125610BE0A07002E02C29FBD14A
:100D9000A261E560E069401CE0612069401C2061BF
:100DA000206961698842E3D2E06900780100FF2987
:100DB000F3D0232900D0D6E02078002804D00221E7
:100DC00076A06268D2689047A178A06953292BD198
:100DD000616922698A4216D2E3695B1CE361521C95
:100DE0002261891AE268914200D3110021620A4609
:100DF0001946FFF7DFFC206A216909182161E169C2
:100E00000918E161E0702069401E2061E069401E20
:100E1000E061E078E168884204D2091AA06962685A
:100E20009269904700BF92E0522904D1E16862685C
:100E3000526990478BE04F2902D1E168017086E04A
:100E4000482902D1E168018081E0572902D1E16897
:100E500001607CE06F2901D101210CE0682903D1F8
:100E60000088E060022104E0772907D10068E06093
:100E7000042120000C30FFF727FF68E001264729F6
:100E800012D1E068FFF75AFFA06880F30888424853
:100E90000670BFF35F8F62B66078002857D00620D7
:100EA00061680968884752E0542901D1267049E0F9
:100EB0004E2909D12078002804D1022137A0626888
:100EC000D2689047257042E0562940D1012134A0D4
:100ED0006268D268904700BF3AA000F075F8010040
:100EE00038A06268D268904701212EA06268D2685B
:100EF000904700BF2DA0E061256101E0491C216100
:100F0000E069411CE161216900780028F6D100BF49
:100F100026A06268D2689047012122A06268D26848
:100F20009047256124A0E06101E0491C2161E0694E
:100F3000411CE161216900780028F6D11EA0626899
:100F4000D2689047022115A06268D26890477A2043
:100F5000A070E5602078002804D0012112A062680A
:100F6000D268904716E70600E26813013700303F69
:100F70000A2F03D230391943E1600BE73700413FB4
:100F8000062F01D23739F6E7613E062E00D3FDE683
:100F90005739F0E7F80100205D0000200A0D00003D
:100FA00076000000200000003E0000004A756C2022
:100FB000203520323031370032323A33303A35354D
:100FC00000000000312E3100010000E0491C0A78C9
:100FD000002AFBD1081A7047FFB56B4801681E2232
:100FE000914302220A43026068494869684A024004
:100FF0004A6100BF75A00068664A0F23DB43D21C1C
:1010000014681C401460D21E802415782542FCD13F
:10101000D21C1668604D284083277F020743029741
:101020003E431660D21E10782042FCD168A0008892
:101030006E46308067A000680390584E3068800E7E
:101040003F2800D11F207668B605B60D01969F0D8A
:10105000BE4201D1DE0D0196039E370C3F04800293
:10106000019E06433E436846844607884C48384004
:1010700091277F00074360460780088B494F074050
:101080000F830868C006FCD547480862CE616846F1
:101090000088088350A00088521C1188434E0E40DF
:1010A00016801188424E06403143100C08431080D0
:1010B000921C10680340012018431060D21E107863
:1010C0002042FCD1D21C106802990D4028433949B6
:1010D00001431160D21E10782042FCD1FFBD0000F8
:1010E00070B582B08024A40500202060200C4168E7
:1010F0000022D243914215D02F4A430013600625A7
:101100002E4E35705361D2695204D30F6A46137064
:101110001278002A06D0006880F30888200C284A3C
:1011200010600847FFF758FF012526480570BFF3F8
:101130005F8F62B6660C206880192060FFF768FB3D
:10114000206880192060FFF78BFA06001E4C3000E3
:10115000B1688847002800D025702078002805D085
:101160000020FFF787FDFFF7FDFDFCE72078002852
:10117000EDD1FFF7A5FB0028E9D00120FFF77AFDAC
:10118000FFF7F0FDFCE70000044000410C080040C0
:10119000FFFCFFFF010C0040FFE0DFFF2460800048
:1011A000FFF900007FFF000080BB0000C0FF0000CF
:1011B000FF70000000070100044400414E4400415C
:1011C00008ED00E05D000020670200200000000044
:1011D0000000000000000000000070B401000123C6
:1011E000002413E00A68091D1A4202D04D466D1E04
:1011F00052191460121D001F0428FAD21500860728
:1012000001D51480AD1C184000D02C700868091D51
:101210000028E7D1080070BC704730B5016841185C
:10122000446862088A188368E4070DD54C461B1988
:101230000AE00C7864B2491C0D78491C1D705B1CD7
:10124000002C05D5641CF9D19142F2D10C3030BD8F
:10125000641EF1D5F8E7000010B50749794418314C
:10126000064C7C44163404E0081D0A688918884737
:101270000100A142F8D110BD0800000024000000C8
:101280005BFFFFFF08020000640000200000000078
:101290008BFFFFFF7C000000A40000000400002082
:1012A000FEE70348FF218843024908600120704798
:1012B0000000000008ED00E080B500F001F801BD7D
:1012C00000BF00BF00BF00BF00F000F8FFF7E9FF5C
:1012D000002801D0FFF7C0FF002000BF00BFFFF7CC
:1012E000FFFE00F000F880B500F002F801BD00003C
:1012F0000746384600F002F8FBE7000080B500BF63
:1013000000BF024A11001820ABBEFBE72600020016
:10131000F4003109024300020100C000090400008A
:10132000010202000005240010010424020005242B
:101330000600010524010001070583030800FF09D9
:10134000040100020AFD000B0705810240000007AE
:1013500005020240FC0001C201FD0003080000017B
:02136000FA0091
:04000005000012C124
:00000001FF
